{
  "_format": "hh-sol-artifact-1",
  "contractName": "DappWorks",
  "sourceName": "src/contracts/DappWorks.sol",
  "abi": [
    {
      "anonymous": false,
      "inputs": [
        {
          "indexed": true,
          "internalType": "address",
          "name": "previousOwner",
          "type": "address"
        },
        {
          "indexed": true,
          "internalType": "address",
          "name": "newOwner",
          "type": "address"
        }
      ],
      "name": "OwnershipTransferred",
      "type": "event"
    },
    {
      "inputs": [
        {
          "internalType": "uint256",
          "name": "id",
          "type": "uint256"
        },
        {
          "internalType": "uint256",
          "name": "jId",
          "type": "uint256"
        },
        {
          "internalType": "address",
          "name": "bidder",
          "type": "address"
        }
      ],
      "name": "acceptBid",
      "outputs": [],
      "stateMutability": "nonpayable",
      "type": "function"
    },
    {
      "inputs": [
        {
          "internalType": "string",
          "name": "jobTitle",
          "type": "string"
        },
        {
          "internalType": "string",
          "name": "description",
          "type": "string"
        },
        {
          "internalType": "string",
          "name": "tags",
          "type": "string"
        }
      ],
      "name": "addJobListing",
      "outputs": [],
      "stateMutability": "payable",
      "type": "function"
    },
    {
      "inputs": [
        {
          "internalType": "uint256",
          "name": "id",
          "type": "uint256"
        }
      ],
      "name": "bidForJob",
      "outputs": [],
      "stateMutability": "nonpayable",
      "type": "function"
    },
    {
      "inputs": [
        {
          "internalType": "uint256",
          "name": "id",
          "type": "uint256"
        }
      ],
      "name": "bidStatus",
      "outputs": [
        {
          "internalType": "bool",
          "name": "",
          "type": "bool"
        }
      ],
      "stateMutability": "view",
      "type": "function"
    },
    {
      "inputs": [
        {
          "internalType": "uint256",
          "name": "id",
          "type": "uint256"
        }
      ],
      "name": "deleteJob",
      "outputs": [],
      "stateMutability": "nonpayable",
      "type": "function"
    },
    {
      "inputs": [
        {
          "internalType": "uint256",
          "name": "id",
          "type": "uint256"
        }
      ],
      "name": "dispute",
      "outputs": [],
      "stateMutability": "nonpayable",
      "type": "function"
    },
    {
      "inputs": [
        {
          "internalType": "uint256",
          "name": "id",
          "type": "uint256"
        }
      ],
      "name": "getAcceptedFreelancer",
      "outputs": [
        {
          "components": [
            {
              "internalType": "uint256",
              "name": "id",
              "type": "uint256"
            },
            {
              "internalType": "uint256",
              "name": "jId",
              "type": "uint256"
            },
            {
              "internalType": "address",
              "name": "account",
              "type": "address"
            },
            {
              "internalType": "bool",
              "name": "isAssigned",
              "type": "bool"
            }
          ],
          "internalType": "struct DappWorks.FreelancerStruct",
          "name": "",
          "type": "tuple"
        }
      ],
      "stateMutability": "view",
      "type": "function"
    },
    {
      "inputs": [
        {
          "internalType": "uint256",
          "name": "id",
          "type": "uint256"
        }
      ],
      "name": "getBidders",
      "outputs": [
        {
          "components": [
            {
              "internalType": "uint256",
              "name": "id",
              "type": "uint256"
            },
            {
              "internalType": "uint256",
              "name": "jId",
              "type": "uint256"
            },
            {
              "internalType": "address",
              "name": "account",
              "type": "address"
            }
          ],
          "internalType": "struct DappWorks.BidStruct[]",
          "name": "Bidders",
          "type": "tuple[]"
        }
      ],
      "stateMutability": "view",
      "type": "function"
    },
    {
      "inputs": [
        {
          "internalType": "uint256",
          "name": "id",
          "type": "uint256"
        }
      ],
      "name": "getFreelancers",
      "outputs": [
        {
          "components": [
            {
              "internalType": "uint256",
              "name": "id",
              "type": "uint256"
            },
            {
              "internalType": "uint256",
              "name": "jId",
              "type": "uint256"
            },
            {
              "internalType": "address",
              "name": "account",
              "type": "address"
            },
            {
              "internalType": "bool",
              "name": "isAssigned",
              "type": "bool"
            }
          ],
          "internalType": "struct DappWorks.FreelancerStruct[]",
          "name": "",
          "type": "tuple[]"
        }
      ],
      "stateMutability": "view",
      "type": "function"
    },
    {
      "inputs": [
        {
          "internalType": "uint256",
          "name": "id",
          "type": "uint256"
        }
      ],
      "name": "getJob",
      "outputs": [
        {
          "components": [
            {
              "internalType": "uint256",
              "name": "id",
              "type": "uint256"
            },
            {
              "internalType": "address",
              "name": "owner",
              "type": "address"
            },
            {
              "internalType": "string",
              "name": "jobTitle",
              "type": "string"
            },
            {
              "internalType": "string",
              "name": "description",
              "type": "string"
            },
            {
              "internalType": "string",
              "name": "tags",
              "type": "string"
            },
            {
              "internalType": "uint256",
              "name": "prize",
              "type": "uint256"
            },
            {
              "internalType": "bool",
              "name": "paidOut",
              "type": "bool"
            },
            {
              "internalType": "uint256",
              "name": "timestamp",
              "type": "uint256"
            },
            {
              "internalType": "bool",
              "name": "listed",
              "type": "bool"
            },
            {
              "internalType": "bool",
              "name": "disputed",
              "type": "bool"
            }
          ],
          "internalType": "struct DappWorks.JobStruct",
          "name": "",
          "type": "tuple"
        }
      ],
      "stateMutability": "view",
      "type": "function"
    },
    {
      "inputs": [],
      "name": "getJobs",
      "outputs": [
        {
          "components": [
            {
              "internalType": "uint256",
              "name": "id",
              "type": "uint256"
            },
            {
              "internalType": "address",
              "name": "owner",
              "type": "address"
            },
            {
              "internalType": "string",
              "name": "jobTitle",
              "type": "string"
            },
            {
              "internalType": "string",
              "name": "description",
              "type": "string"
            },
            {
              "internalType": "string",
              "name": "tags",
              "type": "string"
            },
            {
              "internalType": "uint256",
              "name": "prize",
              "type": "uint256"
            },
            {
              "internalType": "bool",
              "name": "paidOut",
              "type": "bool"
            },
            {
              "internalType": "uint256",
              "name": "timestamp",
              "type": "uint256"
            },
            {
              "internalType": "bool",
              "name": "listed",
              "type": "bool"
            },
            {
              "internalType": "bool",
              "name": "disputed",
              "type": "bool"
            }
          ],
          "internalType": "struct DappWorks.JobStruct[]",
          "name": "ActiveJobs",
          "type": "tuple[]"
        }
      ],
      "stateMutability": "view",
      "type": "function"
    },
    {
      "inputs": [],
      "name": "getMyJobs",
      "outputs": [
        {
          "components": [
            {
              "internalType": "uint256",
              "name": "id",
              "type": "uint256"
            },
            {
              "internalType": "address",
              "name": "owner",
              "type": "address"
            },
            {
              "internalType": "string",
              "name": "jobTitle",
              "type": "string"
            },
            {
              "internalType": "string",
              "name": "description",
              "type": "string"
            },
            {
              "internalType": "string",
              "name": "tags",
              "type": "string"
            },
            {
              "internalType": "uint256",
              "name": "prize",
              "type": "uint256"
            },
            {
              "internalType": "bool",
              "name": "paidOut",
              "type": "bool"
            },
            {
              "internalType": "uint256",
              "name": "timestamp",
              "type": "uint256"
            },
            {
              "internalType": "bool",
              "name": "listed",
              "type": "bool"
            },
            {
              "internalType": "bool",
              "name": "disputed",
              "type": "bool"
            }
          ],
          "internalType": "struct DappWorks.JobStruct[]",
          "name": "MyJobs",
          "type": "tuple[]"
        }
      ],
      "stateMutability": "view",
      "type": "function"
    },
    {
      "inputs": [
        {
          "internalType": "uint256",
          "name": "",
          "type": "uint256"
        },
        {
          "internalType": "address",
          "name": "",
          "type": "address"
        }
      ],
      "name": "hasPlacedBid",
      "outputs": [
        {
          "internalType": "bool",
          "name": "",
          "type": "bool"
        }
      ],
      "stateMutability": "view",
      "type": "function"
    },
    {
      "inputs": [],
      "name": "owner",
      "outputs": [
        {
          "internalType": "address",
          "name": "",
          "type": "address"
        }
      ],
      "stateMutability": "view",
      "type": "function"
    },
    {
      "inputs": [
        {
          "internalType": "uint256",
          "name": "id",
          "type": "uint256"
        }
      ],
      "name": "payout",
      "outputs": [],
      "stateMutability": "nonpayable",
      "type": "function"
    },
    {
      "inputs": [],
      "name": "platformCharge",
      "outputs": [
        {
          "internalType": "uint256",
          "name": "",
          "type": "uint256"
        }
      ],
      "stateMutability": "view",
      "type": "function"
    },
    {
      "inputs": [],
      "name": "renounceOwnership",
      "outputs": [],
      "stateMutability": "nonpayable",
      "type": "function"
    },
    {
      "inputs": [
        {
          "internalType": "uint256",
          "name": "id",
          "type": "uint256"
        }
      ],
      "name": "resolved",
      "outputs": [],
      "stateMutability": "nonpayable",
      "type": "function"
    },
    {
      "inputs": [
        {
          "internalType": "uint256",
          "name": "jId",
          "type": "uint256"
        },
        {
          "internalType": "uint256",
          "name": "id",
          "type": "uint256"
        }
      ],
      "name": "revoke",
      "outputs": [],
      "stateMutability": "nonpayable",
      "type": "function"
    },
    {
      "inputs": [
        {
          "internalType": "address",
          "name": "newOwner",
          "type": "address"
        }
      ],
      "name": "transferOwnership",
      "outputs": [],
      "stateMutability": "nonpayable",
      "type": "function"
    },
    {
      "inputs": [
        {
          "internalType": "uint256",
          "name": "id",
          "type": "uint256"
        },
        {
          "internalType": "string",
          "name": "jobTitle",
          "type": "string"
        },
        {
          "internalType": "string",
          "name": "description",
          "type": "string"
        },
        {
          "internalType": "string",
          "name": "tags",
          "type": "string"
        }
      ],
      "name": "updateJob",
      "outputs": [],
      "stateMutability": "nonpayable",
      "type": "function"
    }
  ],
  "bytecode": "0x6080604052600560035534801561001557600080fd5b5061001f33610028565b60018055610078565b600080546001600160a01b038381166001600160a01b0319831681178455604051919092169283917f8be0079c531659141344cd1fd0a4f28419497f9722a3daafe3b4186f6b6457e09190a35050565b612a0c806100876000396000f3fe6080604052600436106101295760003560e01c80638da5cb5b116100ab578063bf22c4571161006f578063bf22c4571461036d578063d09096151461039a578063def5e737146103ad578063e1152343146103cd578063eb361f81146103ed578063f2fde38b1461041a57600080fd5b80638da5cb5b146102b55780639b00214c146102dd578063a7e2a330146102f2578063b9b7efb61461032d578063be1b6fc61461034d57600080fd5b806365a990f0116100f257806365a990f01461021a57806368581ebd1461023a578063715018a61461025c57806386d6282c146102715780638b1422251461029157600080fd5b80620a106b1461012e578063288676241461017e5780634b3f53e0146101a05780634fa7b507146101cd5780636358bb8c146101fa575b600080fd5b34801561013a57600080fd5b50610169610149366004612337565b600860209081526000928352604080842090915290825290205460ff1681565b60405190151581526020015b60405180910390f35b34801561018a57600080fd5b5061019e610199366004612363565b61043a565b005b3480156101ac57600080fd5b506101c06101bb366004612363565b610697565b604051610175919061237c565b3480156101d957600080fd5b506101ed6101e8366004612363565b61073f565b60405161017591906123f3565b34801561020657600080fd5b5061019e610215366004612363565b6107ee565b34801561022657600080fd5b5061019e6102353660046124f8565b6108ea565b34801561024657600080fd5b5061024f610a1d565b604051610175919061269d565b34801561026857600080fd5b5061019e610dca565b34801561027d57600080fd5b5061019e61028c366004612363565b610dde565b34801561029d57600080fd5b506102a760035481565b604051908152602001610175565b3480156102c157600080fd5b506000546040516001600160a01b039091168152602001610175565b3480156102e957600080fd5b5061024f610f01565b3480156102fe57600080fd5b5061016961030d366004612363565b600090815260086020908152604080832033845290915290205460ff1690565b34801561033957600080fd5b5061019e610348366004612363565b61127c565b34801561035957600080fd5b5061019e6103683660046126ff565b611366565b34801561037957600080fd5b5061038d610388366004612363565b6114c3565b6040516101759190612721565b61019e6103a836600461273b565b611706565b3480156103b957600080fd5b5061019e6103c83660046127c3565b6119a2565b3480156103d957600080fd5b5061019e6103e8366004612363565b611c77565b3480156103f957600080fd5b5061040d610408366004612363565b611ebd565b60405161017591906127f8565b34801561042657600080fd5b5061019e61043536600461282e565b611fef565b60008181526007602052604090205460ff166104715760405162461bcd60e51b815260040161046890612849565b60405180910390fd5b6000818152600460205260409020600101546001600160a01b03163314156104cf5760405162461bcd60e51b8152602060048201526011602482015270466f7262696464656e20616374696f6e2160781b6044820152606401610468565b60008181526004602052604090206006015460ff16156105015760405162461bcd60e51b815260040161046890612880565b60008181526004602052604090206008015460ff1661055d5760405162461bcd60e51b81526020600482015260186024820152772a3434b9903537b1103430bb32903132b2b7103a30b5b2b760411b6044820152606401610468565b600081815260086020908152604080832033845290915290205460ff16156105c75760405162461bcd60e51b815260206004820152601d60248201527f596f75206861766520706c6163656420612062696420616c72656164790000006044820152606401610468565b6105f46040518060600160405280600081526020016000815260200160006001600160a01b031681525090565b60008281526006602052604090205461060e9060016128cd565b815260208082018381523360408085018281526000878152600886528281209381529285528183208054600160ff19909116811790915596835260068552908220805480880182559083529390912093516003909302909301918255519281019290925551600290910180546001600160a01b0319166001600160a01b03909216919091179055565b606060056000838152602001908152602001600020805480602002602001604051908101604052809291908181526020016000905b82821015610734576000848152602090819020604080516080810182526003860290920180548352600180820154848601526002909101546001600160a01b03811692840192909252600160a01b90910460ff161515606083015290835290920191016106cc565b505050509050919050565b60008181526007602052604090205460609060ff166107705760405162461bcd60e51b815260040161046890612849565b600082815260066020908152604080832080548251818502810185019093528083529193909284015b82821015610734576000848152602090819020604080516060810182526003860290920180548352600180820154848601526002909101546001600160a01b0316918301919091529083529092019101610799565b60008181526007602052604090205460ff1661081c5760405162461bcd60e51b815260040161046890612849565b60008181526004602052604090206008015460ff166108775760405162461bcd60e51b81526020600482015260176024820152762a3434b9903537b1103430b9903132b2b7103a30b5b2b760491b6044820152606401610468565b60008181526004602052604090206006015460ff16156108a95760405162461bcd60e51b815260040161046890612880565b6000818152600760209081526040808320805460ff191690556004909152902060018101546005909101546108e7916001600160a01b031690612065565b50565b60008481526007602052604090205460ff166109185760405162461bcd60e51b815260040161046890612849565b60008481526004602052604090206008015460ff166109735760405162461bcd60e51b81526020600482015260176024820152762a3434b9903537b1103430b9903132b2b7103a30b5b2b760491b6044820152606401610468565b60008481526004602052604090206006015460ff16156109a55760405162461bcd60e51b815260040161046890612880565b600084815260046020908152604090912084516109ca926002909201918601906121ed565b50600084815260046020908152604090912083516109f0926003909201918501906121ed565b5060008481526004602081815260409092208351610a16939190920191908401906121ed565b5050505050565b606060008060015b6002548111610aa05760008181526007602052604090205460ff168015610a5d575060008181526004602052604090206008015460ff165b8015610a7b575060008181526004602052604090206006015460ff16155b15610a8e5782610a8a816128e5565b9350505b80610a98816128e5565b915050610a25565b508167ffffffffffffffff811115610aba57610aba612455565b604051908082528060200260200182016040528015610af357816020015b610ae0612271565b815260200190600190039081610ad85790505b50925060015b6002548111610dc45760008181526007602052604090205460ff168015610b31575060008181526004602052604090206008015460ff165b8015610b4f575060008181526004602052604090206006015460ff16155b15610db2576000818152600460209081526040918290208251610140810184528154815260018201546001600160a01b0316928101929092526002810180549293919291840191610b9f90612900565b80601f0160208091040260200160405190810160405280929190818152602001828054610bcb90612900565b8015610c185780601f10610bed57610100808354040283529160200191610c18565b820191906000526020600020905b815481529060010190602001808311610bfb57829003601f168201915b50505050508152602001600382018054610c3190612900565b80601f0160208091040260200160405190810160405280929190818152602001828054610c5d90612900565b8015610caa5780601f10610c7f57610100808354040283529160200191610caa565b820191906000526020600020905b815481529060010190602001808311610c8d57829003601f168201915b50505050508152602001600482018054610cc390612900565b80601f0160208091040260200160405190810160405280929190818152602001828054610cef90612900565b8015610d3c5780601f10610d1157610100808354040283529160200191610d3c565b820191906000526020600020905b815481529060010190602001808311610d1f57829003601f168201915b505050918352505060058201546020820152600682015460ff9081161515604083015260078301546060830152600890920154808316151560808301526101009004909116151560a0909101528483610d94816128e5565b945081518110610da657610da661293b565b60200260200101819052505b80610dbc816128e5565b915050610af9565b50505090565b610dd26120ca565b610ddc6000612124565b565b60008181526004602052604090206001015481906001600160a01b03163314610e195760405162461bcd60e51b815260040161046890612951565b60008281526007602052604090205460ff16610e475760405162461bcd60e51b815260040161046890612849565b600082815260046020526040902060080154610100900460ff1615610eae5760405162461bcd60e51b815260206004820152601960248201527f54686973206a6f6220616c7265616479206469737075746564000000000000006044820152606401610468565b60008281526004602052604090206006015460ff1615610ee05760405162461bcd60e51b815260040161046890612880565b506000908152600460205260409020600801805461ff001916610100179055565b606060008060015b6002548111610f6e5760008181526007602052604090205460ff168015610f4957506000818152600460205260409020600101546001600160a01b031633145b15610f5c5782610f58816128e5565b9350505b80610f66816128e5565b915050610f09565b508167ffffffffffffffff811115610f8857610f88612455565b604051908082528060200260200182016040528015610fc157816020015b610fae612271565b815260200190600190039081610fa65790505b50925060015b6002548111610dc45760008181526007602052604090205460ff16801561100757506000818152600460205260409020600101546001600160a01b031633145b1561126a576000818152600460209081526040918290208251610140810184528154815260018201546001600160a01b031692810192909252600281018054929391929184019161105790612900565b80601f016020809104026020016040519081016040528092919081815260200182805461108390612900565b80156110d05780601f106110a5576101008083540402835291602001916110d0565b820191906000526020600020905b8154815290600101906020018083116110b357829003601f168201915b505050505081526020016003820180546110e990612900565b80601f016020809104026020016040519081016040528092919081815260200182805461111590612900565b80156111625780601f1061113757610100808354040283529160200191611162565b820191906000526020600020905b81548152906001019060200180831161114557829003601f168201915b5050505050815260200160048201805461117b90612900565b80601f01602080910402602001604051908101604052809291908181526020018280546111a790612900565b80156111f45780601f106111c9576101008083540402835291602001916111f4565b820191906000526020600020905b8154815290600101906020018083116111d757829003601f168201915b505050918352505060058201546020820152600682015460ff9081161515604083015260078301546060830152600890920154808316151560808301526101009004909116151560a090910152848361124c816128e5565b94508151811061125e5761125e61293b565b60200260200101819052505b80611274816128e5565b915050610fc7565b6112846120ca565b60008181526007602052604090205460ff166112b25760405162461bcd60e51b815260040161046890612849565b600081815260046020526040902060080154610100900460ff166113185760405162461bcd60e51b815260206004820152601b60248201527f54686973206a6f62206d757374206265206f6e206469737075746500000000006044820152606401610468565b60008181526004602052604090206006015460ff161561134a5760405162461bcd60e51b815260040161046890612880565b6000908152600460205260409020600801805461ff0019169055565b61136e6120ca565b60008281526007602052604090205460ff1661139c5760405162461bcd60e51b815260040161046890612849565b600082815260046020526040902060080154610100900460ff166114025760405162461bcd60e51b815260206004820152601b60248201527f54686973206a6f62206d757374206265206f6e206469737075746500000000006044820152606401610468565b60008281526004602052604090206006015460ff16156114345760405162461bcd60e51b815260040161046890612880565b60008281526005602052604081208054839081106114545761145461293b565b600091825260208083206002600390930201918201805460ff60a01b1916905585835260049052604090912060018101546005909101549192506114a3916001600160a01b0390911690612065565b50506000908152600460205260409020600801805460ff19166001179055565b6114cb612271565b6000828152600460209081526040918290208251610140810184528154815260018201546001600160a01b031692810192909252600281018054929391929184019161151690612900565b80601f016020809104026020016040519081016040528092919081815260200182805461154290612900565b801561158f5780601f106115645761010080835404028352916020019161158f565b820191906000526020600020905b81548152906001019060200180831161157257829003601f168201915b505050505081526020016003820180546115a890612900565b80601f01602080910402602001604051908101604052809291908181526020018280546115d490612900565b80156116215780601f106115f657610100808354040283529160200191611621565b820191906000526020600020905b81548152906001019060200180831161160457829003601f168201915b5050505050815260200160048201805461163a90612900565b80601f016020809104026020016040519081016040528092919081815260200182805461166690612900565b80156116b35780601f10611688576101008083540402835291602001916116b3565b820191906000526020600020905b81548152906001019060200180831161169657829003601f168201915b505050918352505060058201546020820152600682015460ff9081161515604083015260078301546060830152600890920154808316151560808301526101009004909116151560a09091015292915050565b60008351116117575760405162461bcd60e51b815260206004820152601a60248201527f506c656173652070726f766964652061206a6f62207469746c650000000000006044820152606401610468565b60008251116117a85760405162461bcd60e51b815260206004820152601c60248201527f506c656173652070726f766964652061206465736372697074696f6e000000006044820152606401610468565b60008151116117ef5760405162461bcd60e51b8152602060048201526013602482015272506c656173652070726f76696465207461677360681b6044820152606401610468565b600034116118345760405162461bcd60e51b8152602060048201526012602482015271496e73756666696369656e742066756e647360701b6044820152606401610468565b611842600280546001019055565b600061184d60025490565b9050611857612271565b8181523360208201526040810185905260608101849052608081018390523460a0820152600161010082015261188b612174565b60e082015260008281526004602090815260409182902083518155818401516001820180546001600160a01b0319166001600160a01b039092169190911790559183015180518493926118e59260028501929101906121ed565b50606082015180516119019160038401916020909101906121ed565b506080820151805161191d9160048401916020909101906121ed565b5060a0820151600582015560c082015160068201805491151560ff1992831617905560e0830151600780840191909155610100808501516008909401805461012090960151151590910261ff00199415159490941661ffff19909516949094179290921790925560009384526020526040909220805490921660011790915550505050565b60008281526004602052604090206001015482906001600160a01b031633146119dd5760405162461bcd60e51b815260040161046890612951565b60008381526007602052604090205460ff16611a0b5760405162461bcd60e51b815260040161046890612849565b60008381526004602052604090206008015460ff16611a675760405162461bcd60e51b81526020600482015260186024820152772a3434b9903537b1103430bb32903132b2b7103a30b5b2b760411b6044820152606401610468565b60008381526004602052604090206006015460ff1615611a995760405162461bcd60e51b815260040161046890612880565b60008381526008602090815260408083206001600160a01b038616845290915290205460ff16611b015760405162461bcd60e51b81526020600482015260136024820152722ab724b232b73a34b334b2b2103134b23232b960691b6044820152606401610468565b611b096122d3565b600084815260056020818152604080842080548087528684018a81526001600160a01b03808b16948901948552600160608a0181815297875280840185559388529487208851600390930201918255519181019190915590516002909101805493511515600160a01b026001600160a81b031990941691909216179190911790555b600085815260066020526040902054811015611c57576000858152600660205260409020805487919083908110611bc457611bc461293b565b90600052602060002090600302016000015414611c4557600085815260086020908152604080832060069092528220805483919085908110611c0857611c0861293b565b60009182526020808320600392909202909101600201546001600160a01b031683528201929092526040019020805460ff19169115159190911790555b80611c4f816128e5565b915050611b8b565b505050600091825250600460205260409020600801805460ff1916905550565b611c7f612193565b60008181526004602052604090206001015481906001600160a01b03163314611cba5760405162461bcd60e51b815260040161046890612951565b60008281526007602052604090205460ff16611ce85760405162461bcd60e51b815260040161046890612849565b600082815260046020526040902060080154610100900460ff1615611d4f5760405162461bcd60e51b815260206004820152601f60248201527f54686973206a6f62206d757374206e6f74206265206f6e2064697370757465006044820152606401610468565b60008281526004602052604090206006015460ff1615611d815760405162461bcd60e51b815260040161046890612880565b600082815260046020526040812060050154600354909190606490611da6908461297e565b611db0919061299d565b905060015b600085815260056020526040902054811015611e79576000858152600560205260409020805482908110611deb57611deb61293b565b906000526020600020906003020160020160149054906101000a900460ff161515600115151415611e675760008581526005602052604090208054611e67919083908110611e3b57611e3b61293b565b60009182526020909120600260039092020101546001600160a01b0316611e6284866129bf565b612065565b80611e71816128e5565b915050611db5565b50611e95611e8f6000546001600160a01b031690565b82612065565b5050506000818152600460205260409020600601805460ff191660011790556108e760018055565b611ec56122d3565b60008281526007602052604090205460ff16611ef35760405162461bcd60e51b815260040161046890612849565b60005b600083815260056020526040902054811015611fe0576000838152600560205260409020805482908110611f2c57611f2c61293b565b906000526020600020906003020160020160149054906101000a900460ff1615611fce576000838152600560205260409020805482908110611f7057611f7061293b565b600091825260209182902060408051608081018252600393909302909101805483526001810154938301939093526002909201546001600160a01b03811692820192909252600160a01b90910460ff16151560608201529392505050565b80611fd8816128e5565b915050611ef6565b50611fe96122d3565b92915050565b611ff76120ca565b6001600160a01b03811661205c5760405162461bcd60e51b815260206004820152602660248201527f4f776e61626c653a206e6577206f776e657220697320746865207a65726f206160448201526564647265737360d01b6064820152608401610468565b6108e781612124565b6000826001600160a01b03168260405160006040518083038185875af1925050503d80600081146120b2576040519150601f19603f3d011682016040523d82523d6000602084013e6120b7565b606091505b50509050806120c557600080fd5b505050565b6000546001600160a01b03163314610ddc5760405162461bcd60e51b815260206004820181905260248201527f4f776e61626c653a2063616c6c6572206973206e6f7420746865206f776e65726044820152606401610468565b600080546001600160a01b038381166001600160a01b0319831681178455604051919092169283917f8be0079c531659141344cd1fd0a4f28419497f9722a3daafe3b4186f6b6457e09190a35050565b6000612182426103e861297e565b61218e906103e86128cd565b905090565b600260015414156121e65760405162461bcd60e51b815260206004820152601f60248201527f5265656e7472616e637947756172643a207265656e7472616e742063616c6c006044820152606401610468565b6002600155565b8280546121f990612900565b90600052602060002090601f01602090048101928261221b5760008555612261565b82601f1061223457805160ff1916838001178555612261565b82800160010185558215612261579182015b82811115612261578251825591602001919060010190612246565b5061226d929150612306565b5090565b6040518061014001604052806000815260200160006001600160a01b0316815260200160608152602001606081526020016060815260200160008152602001600015158152602001600081526020016000151581526020016000151581525090565b6040518060800160405280600081526020016000815260200160006001600160a01b031681526020016000151581525090565b5b8082111561226d5760008155600101612307565b80356001600160a01b038116811461233257600080fd5b919050565b6000806040838503121561234a57600080fd5b8235915061235a6020840161231b565b90509250929050565b60006020828403121561237557600080fd5b5035919050565b6020808252825182820181905260009190848201906040850190845b818110156123e7576123d483855180518252602080820151908301526040808201516001600160a01b0316908301526060908101511515910152565b9284019260809290920191600101612398565b50909695505050505050565b602080825282518282018190526000919060409081850190868401855b828110156124485781518051855286810151878601528501516001600160a01b03168585015260609093019290850190600101612410565b5091979650505050505050565b634e487b7160e01b600052604160045260246000fd5b600082601f83011261247c57600080fd5b813567ffffffffffffffff8082111561249757612497612455565b604051601f8301601f19908116603f011681019082821181831017156124bf576124bf612455565b816040528381528660208588010111156124d857600080fd5b836020870160208301376000602085830101528094505050505092915050565b6000806000806080858703121561250e57600080fd5b84359350602085013567ffffffffffffffff8082111561252d57600080fd5b6125398883890161246b565b9450604087013591508082111561254f57600080fd5b61255b8883890161246b565b9350606087013591508082111561257157600080fd5b5061257e8782880161246b565b91505092959194509250565b6000815180845260005b818110156125b057602081850181015186830182015201612594565b818111156125c2576000602083870101525b50601f01601f19169290920160200192915050565b60006101408251845260208301516125fa60208601826001600160a01b03169052565b5060408301518160408601526126128286018261258a565b9150506060830151848203606086015261262c828261258a565b91505060808301518482036080860152612646828261258a565b91505060a083015160a085015260c083015161266660c086018215159052565b5060e083015160e0850152610100808401516126858287018215159052565b50506101209283015115159390920192909252919050565b6000602080830181845280855180835260408601915060408160051b870101925083870160005b828110156126f257603f198886030184526126e08583516125d7565b945092850192908501906001016126c4565b5092979650505050505050565b6000806040838503121561271257600080fd5b50508035926020909101359150565b60208152600061273460208301846125d7565b9392505050565b60008060006060848603121561275057600080fd5b833567ffffffffffffffff8082111561276857600080fd5b6127748783880161246b565b9450602086013591508082111561278a57600080fd5b6127968783880161246b565b935060408601359150808211156127ac57600080fd5b506127b98682870161246b565b9150509250925092565b6000806000606084860312156127d857600080fd5b83359250602084013591506127ef6040850161231b565b90509250925092565b81518152602080830151908201526040808301516001600160a01b03169082015260608083015115159082015260808101611fe9565b60006020828403121561284057600080fd5b6127348261231b565b6020808252601e908201527f54686973206a6f62206c697374696e6720646f65736e27742065786973740000604082015260600190565b6020808252601a908201527f54686973206a6f6220686173206265656e2070616964206f7574000000000000604082015260600190565b634e487b7160e01b600052601160045260246000fd5b600082198211156128e0576128e06128b7565b500190565b60006000198214156128f9576128f96128b7565b5060010190565b600181811c9082168061291457607f821691505b6020821081141561293557634e487b7160e01b600052602260045260246000fd5b50919050565b634e487b7160e01b600052603260045260246000fd5b602080825260139082015272556e617574686f72697a656420656e7469747960681b604082015260600190565b6000816000190483118215151615612998576129986128b7565b500290565b6000826129ba57634e487b7160e01b600052601260045260246000fd5b500490565b6000828210156129d1576129d16128b7565b50039056fea2646970667358221220355a682abe4fd8a2171bac91dbe94e16375f6fc32935fbf0e58ed852f057722564736f6c634300080b0033",
  "linkReferences": {},
  "deployedLinkReferences": {}
}