{
  "_format": "hh-sol-artifact-1",
  "contractName": "DappWorks",
  "sourceName": "src/contracts/DappWorks.sol",
  "abi": [
    {
      "anonymous": false,
      "inputs": [
        {
          "indexed": true,
          "internalType": "address",
          "name": "previousOwner",
          "type": "address"
        },
        {
          "indexed": true,
          "internalType": "address",
          "name": "newOwner",
          "type": "address"
        }
      ],
      "name": "OwnershipTransferred",
      "type": "event"
    },
    {
      "inputs": [
        {
          "internalType": "uint256",
          "name": "id",
          "type": "uint256"
        },
        {
          "internalType": "uint256",
          "name": "jId",
          "type": "uint256"
        },
        {
          "internalType": "address",
          "name": "bidder",
          "type": "address"
        }
      ],
      "name": "acceptBid",
      "outputs": [],
      "stateMutability": "nonpayable",
      "type": "function"
    },
    {
      "inputs": [
        {
          "internalType": "string",
          "name": "jobTitle",
          "type": "string"
        },
        {
          "internalType": "string",
          "name": "description",
          "type": "string"
        },
        {
          "internalType": "string",
          "name": "tags",
          "type": "string"
        }
      ],
      "name": "addJobListing",
      "outputs": [],
      "stateMutability": "payable",
      "type": "function"
    },
    {
      "inputs": [
        {
          "internalType": "uint256",
          "name": "id",
          "type": "uint256"
        }
      ],
      "name": "bidForJob",
      "outputs": [],
      "stateMutability": "nonpayable",
      "type": "function"
    },
    {
      "inputs": [
        {
          "internalType": "uint256",
          "name": "id",
          "type": "uint256"
        }
      ],
      "name": "bidStatus",
      "outputs": [
        {
          "internalType": "bool",
          "name": "",
          "type": "bool"
        }
      ],
      "stateMutability": "view",
      "type": "function"
    },
    {
      "inputs": [
        {
          "internalType": "uint256",
          "name": "id",
          "type": "uint256"
        }
      ],
      "name": "deleteJob",
      "outputs": [],
      "stateMutability": "nonpayable",
      "type": "function"
    },
    {
      "inputs": [
        {
          "internalType": "uint256",
          "name": "id",
          "type": "uint256"
        }
      ],
      "name": "dispute",
      "outputs": [],
      "stateMutability": "nonpayable",
      "type": "function"
    },
    {
      "inputs": [
        {
          "internalType": "uint256",
          "name": "id",
          "type": "uint256"
        }
      ],
      "name": "getAcceptedFreelancer",
      "outputs": [
        {
          "components": [
            {
              "internalType": "uint256",
              "name": "id",
              "type": "uint256"
            },
            {
              "internalType": "uint256",
              "name": "jId",
              "type": "uint256"
            },
            {
              "internalType": "address",
              "name": "account",
              "type": "address"
            },
            {
              "internalType": "bool",
              "name": "isAssigned",
              "type": "bool"
            }
          ],
          "internalType": "struct DappWorks.FreelancerStruct",
          "name": "",
          "type": "tuple"
        }
      ],
      "stateMutability": "view",
      "type": "function"
    },
    {
      "inputs": [],
      "name": "getAssignedJobs",
      "outputs": [
        {
          "components": [
            {
              "internalType": "uint256",
              "name": "id",
              "type": "uint256"
            },
            {
              "internalType": "address",
              "name": "owner",
              "type": "address"
            },
            {
              "internalType": "string",
              "name": "jobTitle",
              "type": "string"
            },
            {
              "internalType": "string",
              "name": "description",
              "type": "string"
            },
            {
              "internalType": "string",
              "name": "tags",
              "type": "string"
            },
            {
              "internalType": "uint256",
              "name": "prize",
              "type": "uint256"
            },
            {
              "internalType": "bool",
              "name": "paidOut",
              "type": "bool"
            },
            {
              "internalType": "uint256",
              "name": "timestamp",
              "type": "uint256"
            },
            {
              "internalType": "bool",
              "name": "listed",
              "type": "bool"
            },
            {
              "internalType": "bool",
              "name": "disputed",
              "type": "bool"
            }
          ],
          "internalType": "struct DappWorks.JobStruct[]",
          "name": "AssignedJobs",
          "type": "tuple[]"
        }
      ],
      "stateMutability": "view",
      "type": "function"
    },
    {
      "inputs": [
        {
          "internalType": "uint256",
          "name": "id",
          "type": "uint256"
        }
      ],
      "name": "getBidders",
      "outputs": [
        {
          "components": [
            {
              "internalType": "uint256",
              "name": "id",
              "type": "uint256"
            },
            {
              "internalType": "uint256",
              "name": "jId",
              "type": "uint256"
            },
            {
              "internalType": "address",
              "name": "account",
              "type": "address"
            }
          ],
          "internalType": "struct DappWorks.BidStruct[]",
          "name": "Bidders",
          "type": "tuple[]"
        }
      ],
      "stateMutability": "view",
      "type": "function"
    },
    {
      "inputs": [],
      "name": "getBidsForBidder",
      "outputs": [
        {
          "components": [
            {
              "internalType": "uint256",
              "name": "id",
              "type": "uint256"
            },
            {
              "internalType": "uint256",
              "name": "jId",
              "type": "uint256"
            },
            {
              "internalType": "address",
              "name": "account",
              "type": "address"
            }
          ],
          "internalType": "struct DappWorks.BidStruct[]",
          "name": "Bids",
          "type": "tuple[]"
        }
      ],
      "stateMutability": "view",
      "type": "function"
    },
    {
      "inputs": [
        {
          "internalType": "uint256",
          "name": "id",
          "type": "uint256"
        }
      ],
      "name": "getFreelancers",
      "outputs": [
        {
          "components": [
            {
              "internalType": "uint256",
              "name": "id",
              "type": "uint256"
            },
            {
              "internalType": "uint256",
              "name": "jId",
              "type": "uint256"
            },
            {
              "internalType": "address",
              "name": "account",
              "type": "address"
            },
            {
              "internalType": "bool",
              "name": "isAssigned",
              "type": "bool"
            }
          ],
          "internalType": "struct DappWorks.FreelancerStruct[]",
          "name": "",
          "type": "tuple[]"
        }
      ],
      "stateMutability": "view",
      "type": "function"
    },
    {
      "inputs": [
        {
          "internalType": "uint256",
          "name": "id",
          "type": "uint256"
        }
      ],
      "name": "getJob",
      "outputs": [
        {
          "components": [
            {
              "internalType": "uint256",
              "name": "id",
              "type": "uint256"
            },
            {
              "internalType": "address",
              "name": "owner",
              "type": "address"
            },
            {
              "internalType": "string",
              "name": "jobTitle",
              "type": "string"
            },
            {
              "internalType": "string",
              "name": "description",
              "type": "string"
            },
            {
              "internalType": "string",
              "name": "tags",
              "type": "string"
            },
            {
              "internalType": "uint256",
              "name": "prize",
              "type": "uint256"
            },
            {
              "internalType": "bool",
              "name": "paidOut",
              "type": "bool"
            },
            {
              "internalType": "uint256",
              "name": "timestamp",
              "type": "uint256"
            },
            {
              "internalType": "bool",
              "name": "listed",
              "type": "bool"
            },
            {
              "internalType": "bool",
              "name": "disputed",
              "type": "bool"
            }
          ],
          "internalType": "struct DappWorks.JobStruct",
          "name": "",
          "type": "tuple"
        }
      ],
      "stateMutability": "view",
      "type": "function"
    },
    {
      "inputs": [],
      "name": "getJobs",
      "outputs": [
        {
          "components": [
            {
              "internalType": "uint256",
              "name": "id",
              "type": "uint256"
            },
            {
              "internalType": "address",
              "name": "owner",
              "type": "address"
            },
            {
              "internalType": "string",
              "name": "jobTitle",
              "type": "string"
            },
            {
              "internalType": "string",
              "name": "description",
              "type": "string"
            },
            {
              "internalType": "string",
              "name": "tags",
              "type": "string"
            },
            {
              "internalType": "uint256",
              "name": "prize",
              "type": "uint256"
            },
            {
              "internalType": "bool",
              "name": "paidOut",
              "type": "bool"
            },
            {
              "internalType": "uint256",
              "name": "timestamp",
              "type": "uint256"
            },
            {
              "internalType": "bool",
              "name": "listed",
              "type": "bool"
            },
            {
              "internalType": "bool",
              "name": "disputed",
              "type": "bool"
            }
          ],
          "internalType": "struct DappWorks.JobStruct[]",
          "name": "ActiveJobs",
          "type": "tuple[]"
        }
      ],
      "stateMutability": "view",
      "type": "function"
    },
    {
      "inputs": [],
      "name": "getJobsForBidder",
      "outputs": [
        {
          "components": [
            {
              "internalType": "uint256",
              "name": "id",
              "type": "uint256"
            },
            {
              "internalType": "address",
              "name": "owner",
              "type": "address"
            },
            {
              "internalType": "string",
              "name": "jobTitle",
              "type": "string"
            },
            {
              "internalType": "string",
              "name": "description",
              "type": "string"
            },
            {
              "internalType": "string",
              "name": "tags",
              "type": "string"
            },
            {
              "internalType": "uint256",
              "name": "prize",
              "type": "uint256"
            },
            {
              "internalType": "bool",
              "name": "paidOut",
              "type": "bool"
            },
            {
              "internalType": "uint256",
              "name": "timestamp",
              "type": "uint256"
            },
            {
              "internalType": "bool",
              "name": "listed",
              "type": "bool"
            },
            {
              "internalType": "bool",
              "name": "disputed",
              "type": "bool"
            }
          ],
          "internalType": "struct DappWorks.JobStruct[]",
          "name": "bidderJobs",
          "type": "tuple[]"
        }
      ],
      "stateMutability": "view",
      "type": "function"
    },
    {
      "inputs": [],
      "name": "getMyJobs",
      "outputs": [
        {
          "components": [
            {
              "internalType": "uint256",
              "name": "id",
              "type": "uint256"
            },
            {
              "internalType": "address",
              "name": "owner",
              "type": "address"
            },
            {
              "internalType": "string",
              "name": "jobTitle",
              "type": "string"
            },
            {
              "internalType": "string",
              "name": "description",
              "type": "string"
            },
            {
              "internalType": "string",
              "name": "tags",
              "type": "string"
            },
            {
              "internalType": "uint256",
              "name": "prize",
              "type": "uint256"
            },
            {
              "internalType": "bool",
              "name": "paidOut",
              "type": "bool"
            },
            {
              "internalType": "uint256",
              "name": "timestamp",
              "type": "uint256"
            },
            {
              "internalType": "bool",
              "name": "listed",
              "type": "bool"
            },
            {
              "internalType": "bool",
              "name": "disputed",
              "type": "bool"
            }
          ],
          "internalType": "struct DappWorks.JobStruct[]",
          "name": "MyJobs",
          "type": "tuple[]"
        }
      ],
      "stateMutability": "view",
      "type": "function"
    },
    {
      "inputs": [
        {
          "internalType": "uint256",
          "name": "",
          "type": "uint256"
        },
        {
          "internalType": "address",
          "name": "",
          "type": "address"
        }
      ],
      "name": "hasPlacedBid",
      "outputs": [
        {
          "internalType": "bool",
          "name": "",
          "type": "bool"
        }
      ],
      "stateMutability": "view",
      "type": "function"
    },
    {
      "inputs": [],
      "name": "owner",
      "outputs": [
        {
          "internalType": "address",
          "name": "",
          "type": "address"
        }
      ],
      "stateMutability": "view",
      "type": "function"
    },
    {
      "inputs": [
        {
          "internalType": "uint256",
          "name": "id",
          "type": "uint256"
        }
      ],
      "name": "payout",
      "outputs": [],
      "stateMutability": "nonpayable",
      "type": "function"
    },
    {
      "inputs": [],
      "name": "platformCharge",
      "outputs": [
        {
          "internalType": "uint256",
          "name": "",
          "type": "uint256"
        }
      ],
      "stateMutability": "view",
      "type": "function"
    },
    {
      "inputs": [],
      "name": "renounceOwnership",
      "outputs": [],
      "stateMutability": "nonpayable",
      "type": "function"
    },
    {
      "inputs": [
        {
          "internalType": "uint256",
          "name": "id",
          "type": "uint256"
        }
      ],
      "name": "resolved",
      "outputs": [],
      "stateMutability": "nonpayable",
      "type": "function"
    },
    {
      "inputs": [
        {
          "internalType": "uint256",
          "name": "jId",
          "type": "uint256"
        },
        {
          "internalType": "uint256",
          "name": "id",
          "type": "uint256"
        }
      ],
      "name": "revoke",
      "outputs": [],
      "stateMutability": "nonpayable",
      "type": "function"
    },
    {
      "inputs": [
        {
          "internalType": "address",
          "name": "newOwner",
          "type": "address"
        }
      ],
      "name": "transferOwnership",
      "outputs": [],
      "stateMutability": "nonpayable",
      "type": "function"
    },
    {
      "inputs": [
        {
          "internalType": "uint256",
          "name": "id",
          "type": "uint256"
        },
        {
          "internalType": "string",
          "name": "jobTitle",
          "type": "string"
        },
        {
          "internalType": "string",
          "name": "description",
          "type": "string"
        },
        {
          "internalType": "string",
          "name": "tags",
          "type": "string"
        }
      ],
      "name": "updateJob",
      "outputs": [],
      "stateMutability": "nonpayable",
      "type": "function"
    }
  ],
  "bytecode": "0x608060405260056003553480156200001657600080fd5b5062000022336200002c565b600180556200007c565b600080546001600160a01b038381166001600160a01b0319831681178455604051919092169283917f8be0079c531659141344cd1fd0a4f28419497f9722a3daafe3b4186f6b6457e09190a35050565b6136d0806200008c6000396000f3fe6080604052600436106101495760003560e01c80639180f2a0116100b6578063c4ff0b451161006f578063c4ff0b45146103e4578063d0909615146103f9578063def5e7371461040c578063e11523431461042c578063eb361f811461044c578063f2fde38b1461047957600080fd5b80639180f2a0146103125780639b00214c14610327578063a7e2a3301461033c578063b9b7efb614610377578063be1b6fc614610397578063bf22c457146103b757600080fd5b806365a990f01161010857806365a990f01461025c57806368581ebd1461027c578063715018a61461029157806386d6282c146102a65780638b142225146102c65780638da5cb5b146102ea57600080fd5b80620a106b1461014e578062ebd5fa1461019e57806328867624146101c05780634b3f53e0146101e25780634fa7b5071461020f5780636358bb8c1461023c575b600080fd5b34801561015a57600080fd5b50610189610169366004612ffb565b600860209081526000928352604080842090915290825290205460ff1681565b60405190151581526020015b60405180910390f35b3480156101aa57600080fd5b506101b3610499565b604051610195919061313a565b3480156101cc57600080fd5b506101e06101db36600461319c565b6109bb565b005b3480156101ee57600080fd5b506102026101fd36600461319c565b610bf3565b60405161019591906131b5565b34801561021b57600080fd5b5061022f61022a36600461319c565b610c9b565b604051610195919061322c565b34801561024857600080fd5b506101e061025736600461319c565b610d8a565b34801561026857600080fd5b506101e0610277366004613331565b610e86565b34801561028857600080fd5b506101b3610fb9565b34801561029d57600080fd5b506101e0611360565b3480156102b257600080fd5b506101e06102c136600461319c565b611374565b3480156102d257600080fd5b506102dc60035481565b604051908152602001610195565b3480156102f657600080fd5b506000546040516001600160a01b039091168152602001610195565b34801561031e57600080fd5b5061022f611497565b34801561033357600080fd5b506101b361173b565b34801561034857600080fd5b5061018961035736600461319c565b600090815260086020908152604080832033845290915290205460ff1690565b34801561038357600080fd5b506101e061039236600461319c565b611ab6565b3480156103a357600080fd5b506101e06103b23660046133c3565b611ba0565b3480156103c357600080fd5b506103d76103d236600461319c565b611cfd565b60405161019591906133e5565b3480156103f057600080fd5b506101b3611f40565b6101e06104073660046133ff565b612343565b34801561041857600080fd5b506101e0610427366004613487565b6125df565b34801561043857600080fd5b506101e061044736600461319c565b6128b4565b34801561045857600080fd5b5061046c61046736600461319c565b612b5c565b60405161019591906134bc565b34801561048557600080fd5b506101e06104943660046134f2565b612c8e565b606060008060015b60025481116105d65760008181526007602052604090205460ff1680156104d9575060008181526004602052604090206008015460ff165b80156104f7575060008181526004602052604090206006015460ff16155b156105c45760005b6000828152600560205260409020548110156105c25760008281526005602052604090208054339190839081106105385761053861350d565b60009182526020909120600260039092020101546001600160a01b031614801561059d5750600082815260056020526040902080548290811061057d5761057d61350d565b906000526020600020906003020160020160149054906101000a900460ff165b156105b057836105ac81613539565b9450505b806105ba81613539565b9150506104ff565b505b806105ce81613539565b9150506104a1565b508167ffffffffffffffff8111156105f0576105f061328e565b60405190808252806020026020018201604052801561062957816020015b610616612e8c565b81526020019060019003908161060e5790505b50925060015b60025481116109b55760008181526007602052604090205460ff168015610668575060008181526004602052604090206008015460ff16155b8015610686575060008181526004602052604090206006015460ff16155b156109a35760005b6000828152600560205260409020548110156109a15760008281526005602052604090208054339190839081106106c7576106c761350d565b60009182526020909120600260039092020101546001600160a01b031614801561072c5750600082815260056020526040902080548290811061070c5761070c61350d565b906000526020600020906003020160020160149054906101000a900460ff165b1561098f576000828152600460209081526040918290208251610140810184528154815260018201546001600160a01b031692810192909252600281018054929391929184019161077c90613554565b80601f01602080910402602001604051908101604052809291908181526020018280546107a890613554565b80156107f55780601f106107ca576101008083540402835291602001916107f5565b820191906000526020600020905b8154815290600101906020018083116107d857829003601f168201915b5050505050815260200160038201805461080e90613554565b80601f016020809104026020016040519081016040528092919081815260200182805461083a90613554565b80156108875780601f1061085c57610100808354040283529160200191610887565b820191906000526020600020905b81548152906001019060200180831161086a57829003601f168201915b505050505081526020016004820180546108a090613554565b80601f01602080910402602001604051908101604052809291908181526020018280546108cc90613554565b80156109195780601f106108ee57610100808354040283529160200191610919565b820191906000526020600020905b8154815290600101906020018083116108fc57829003601f168201915b505050918352505060058201546020820152600682015460ff9081161515604083015260078301546060830152600890920154808316151560808301526101009004909116151560a090910152858461097181613539565b9550815181106109835761098361350d565b60200260200101819052505b8061099981613539565b91505061068e565b505b806109ad81613539565b91505061062f565b50505090565b60008181526007602052604090205460ff166109f25760405162461bcd60e51b81526004016109e99061358f565b60405180910390fd5b6000818152600460205260409020600101546001600160a01b0316331415610a505760405162461bcd60e51b8152602060048201526011602482015270466f7262696464656e20616374696f6e2160781b60448201526064016109e9565b60008181526004602052604090206006015460ff1615610a825760405162461bcd60e51b81526004016109e9906135c6565b60008181526004602052604090206008015460ff16610ade5760405162461bcd60e51b81526020600482015260186024820152772a3434b9903537b1103430bb32903132b2b7103a30b5b2b760411b60448201526064016109e9565b600081815260086020908152604080832033845290915290205460ff1615610b485760405162461bcd60e51b815260206004820152601d60248201527f596f75206861766520706c6163656420612062696420616c726561647900000060448201526064016109e9565b610b50612eee565b600082815260066020526040902054610b6a9060016135fd565b815260208082018381523360408085018281526000878152600886528281209381529285528183208054600160ff19909116811790915596835260068552908220805480880182559083529390912093516003909302909301918255519281019290925551600290910180546001600160a01b0319166001600160a01b03909216919091179055565b606060056000838152602001908152602001600020805480602002602001604051908101604052809291908181526020016000905b82821015610c90576000848152602090819020604080516080810182526003860290920180548352600180820154848601526002909101546001600160a01b03811692840192909252600160a01b90910460ff16151560608301529083529092019101610c28565b505050509050919050565b60008181526004602052604090206008015460609060ff168015610ccd575060008281526007602052604090205460ff165b15610d5057600082815260066020908152604080832080548251818502810185019093528083529193909284015b82821015610c90576000848152602090819020604080516060810182526003860290920180548352600180820154848601526002909101546001600160a01b0316918301919091529083529092019101610cfb565b6040805160008082526020820190925290610d81565b610d6e612eee565b815260200190600190039081610d665790505b5090505b919050565b60008181526007602052604090205460ff16610db85760405162461bcd60e51b81526004016109e99061358f565b60008181526004602052604090206008015460ff16610e135760405162461bcd60e51b81526020600482015260176024820152762a3434b9903537b1103430b9903132b2b7103a30b5b2b760491b60448201526064016109e9565b60008181526004602052604090206006015460ff1615610e455760405162461bcd60e51b81526004016109e9906135c6565b6000818152600760209081526040808320805460ff19169055600490915290206001810154600590910154610e83916001600160a01b031690612d04565b50565b60008481526007602052604090205460ff16610eb45760405162461bcd60e51b81526004016109e99061358f565b60008481526004602052604090206008015460ff16610f0f5760405162461bcd60e51b81526020600482015260176024820152762a3434b9903537b1103430b9903132b2b7103a30b5b2b760491b60448201526064016109e9565b60008481526004602052604090206006015460ff1615610f415760405162461bcd60e51b81526004016109e9906135c6565b60008481526004602090815260409091208451610f6692600290920191860190612f18565b5060008481526004602090815260409091208351610f8c92600390920191850190612f18565b5060008481526004602081815260409092208351610fb293919092019190840190612f18565b5050505050565b606060008060015b600254811161103c5760008181526007602052604090205460ff168015610ff9575060008181526004602052604090206008015460ff165b8015611017575060008181526004602052604090206006015460ff16155b1561102a578261102681613539565b9350505b8061103481613539565b915050610fc1565b508167ffffffffffffffff8111156110565761105661328e565b60405190808252806020026020018201604052801561108f57816020015b61107c612e8c565b8152602001906001900390816110745790505b50925060015b60025481116109b55760008181526007602052604090205460ff1680156110cd575060008181526004602052604090206008015460ff165b80156110eb575060008181526004602052604090206006015460ff16155b1561134e576000818152600460209081526040918290208251610140810184528154815260018201546001600160a01b031692810192909252600281018054929391929184019161113b90613554565b80601f016020809104026020016040519081016040528092919081815260200182805461116790613554565b80156111b45780601f10611189576101008083540402835291602001916111b4565b820191906000526020600020905b81548152906001019060200180831161119757829003601f168201915b505050505081526020016003820180546111cd90613554565b80601f01602080910402602001604051908101604052809291908181526020018280546111f990613554565b80156112465780601f1061121b57610100808354040283529160200191611246565b820191906000526020600020905b81548152906001019060200180831161122957829003601f168201915b5050505050815260200160048201805461125f90613554565b80601f016020809104026020016040519081016040528092919081815260200182805461128b90613554565b80156112d85780601f106112ad576101008083540402835291602001916112d8565b820191906000526020600020905b8154815290600101906020018083116112bb57829003601f168201915b505050918352505060058201546020820152600682015460ff9081161515604083015260078301546060830152600890920154808316151560808301526101009004909116151560a090910152848361133081613539565b9450815181106113425761134261350d565b60200260200101819052505b8061135881613539565b915050611095565b611368612d69565b6113726000612dc3565b565b60008181526004602052604090206001015481906001600160a01b031633146113af5760405162461bcd60e51b81526004016109e990613615565b60008281526007602052604090205460ff166113dd5760405162461bcd60e51b81526004016109e99061358f565b600082815260046020526040902060080154610100900460ff16156114445760405162461bcd60e51b815260206004820152601960248201527f54686973206a6f6220616c72656164792064697370757465640000000000000060448201526064016109e9565b60008281526004602052604090206006015460ff16156114765760405162461bcd60e51b81526004016109e9906135c6565b506000908152600460205260409020600801805461ff001916610100179055565b606060006114a460025490565b67ffffffffffffffff8111156114bc576114bc61328e565b6040519080825280602002602001820160405280156114f557816020015b6114e2612eee565b8152602001906001900390816114da5790505b509050600060015b60025481116116905760008181526007602052604090205460ff168015611535575060008181526004602052604090206008015460ff165b8015611553575060008181526004602052604090206006015460ff16155b1561167e57600081815260086020908152604080832033845290915290205460ff161561167e5760005b60008281526006602052604090205481101561167c5760008281526006602052604090208054339190839081106115b6576115b661350d565b60009182526020909120600260039092020101546001600160a01b0316141561166a5760008281526006602052604090208054829081106115f9576115f961350d565b6000918252602091829020604080516060810182526003909302909101805483526001810154938301939093526002909201546001600160a01b03169181019190915284518590859081106116505761165061350d565b6020026020010181905250828061166690613539565b9350505b8061167481613539565b91505061157d565b505b8061168881613539565b9150506114fd565b508067ffffffffffffffff8111156116aa576116aa61328e565b6040519080825280602002602001820160405280156116e357816020015b6116d0612eee565b8152602001906001900390816116c85790505b50925060005b818110156109b5578281815181106117035761170361350d565b602002602001015184828151811061171d5761171d61350d565b6020026020010181905250808061173390613539565b9150506116e9565b606060008060015b60025481116117a85760008181526007602052604090205460ff16801561178357506000818152600460205260409020600101546001600160a01b031633145b15611796578261179281613539565b9350505b806117a081613539565b915050611743565b508167ffffffffffffffff8111156117c2576117c261328e565b6040519080825280602002602001820160405280156117fb57816020015b6117e8612e8c565b8152602001906001900390816117e05790505b50925060015b60025481116109b55760008181526007602052604090205460ff16801561184157506000818152600460205260409020600101546001600160a01b031633145b15611aa4576000818152600460209081526040918290208251610140810184528154815260018201546001600160a01b031692810192909252600281018054929391929184019161189190613554565b80601f01602080910402602001604051908101604052809291908181526020018280546118bd90613554565b801561190a5780601f106118df5761010080835404028352916020019161190a565b820191906000526020600020905b8154815290600101906020018083116118ed57829003601f168201915b5050505050815260200160038201805461192390613554565b80601f016020809104026020016040519081016040528092919081815260200182805461194f90613554565b801561199c5780601f106119715761010080835404028352916020019161199c565b820191906000526020600020905b81548152906001019060200180831161197f57829003601f168201915b505050505081526020016004820180546119b590613554565b80601f01602080910402602001604051908101604052809291908181526020018280546119e190613554565b8015611a2e5780601f10611a0357610100808354040283529160200191611a2e565b820191906000526020600020905b815481529060010190602001808311611a1157829003601f168201915b505050918352505060058201546020820152600682015460ff9081161515604083015260078301546060830152600890920154808316151560808301526101009004909116151560a0909101528483611a8681613539565b945081518110611a9857611a9861350d565b60200260200101819052505b80611aae81613539565b915050611801565b611abe612d69565b60008181526007602052604090205460ff16611aec5760405162461bcd60e51b81526004016109e99061358f565b600081815260046020526040902060080154610100900460ff16611b525760405162461bcd60e51b815260206004820152601b60248201527f54686973206a6f62206d757374206265206f6e2064697370757465000000000060448201526064016109e9565b60008181526004602052604090206006015460ff1615611b845760405162461bcd60e51b81526004016109e9906135c6565b6000908152600460205260409020600801805461ff0019169055565b611ba8612d69565b60008281526007602052604090205460ff16611bd65760405162461bcd60e51b81526004016109e99061358f565b600082815260046020526040902060080154610100900460ff16611c3c5760405162461bcd60e51b815260206004820152601b60248201527f54686973206a6f62206d757374206265206f6e2064697370757465000000000060448201526064016109e9565b60008281526004602052604090206006015460ff1615611c6e5760405162461bcd60e51b81526004016109e9906135c6565b6000828152600560205260408120805483908110611c8e57611c8e61350d565b600091825260208083206002600390930201918201805460ff60a01b191690558583526004905260409091206001810154600590910154919250611cdd916001600160a01b0390911690612d04565b50506000908152600460205260409020600801805460ff19166001179055565b611d05612e8c565b6000828152600460209081526040918290208251610140810184528154815260018201546001600160a01b0316928101929092526002810180549293919291840191611d5090613554565b80601f0160208091040260200160405190810160405280929190818152602001828054611d7c90613554565b8015611dc95780601f10611d9e57610100808354040283529160200191611dc9565b820191906000526020600020905b815481529060010190602001808311611dac57829003601f168201915b50505050508152602001600382018054611de290613554565b80601f0160208091040260200160405190810160405280929190818152602001828054611e0e90613554565b8015611e5b5780601f10611e3057610100808354040283529160200191611e5b565b820191906000526020600020905b815481529060010190602001808311611e3e57829003601f168201915b50505050508152602001600482018054611e7490613554565b80601f0160208091040260200160405190810160405280929190818152602001828054611ea090613554565b8015611eed5780601f10611ec257610100808354040283529160200191611eed565b820191906000526020600020905b815481529060010190602001808311611ed057829003601f168201915b505050918352505060058201546020820152600682015460ff9081161515604083015260078301546060830152600890920154808316151560808301526101009004909116151560a09091015292915050565b60606000611f4d60025490565b67ffffffffffffffff811115611f6557611f6561328e565b604051908082528060200260200182016040528015611f9e57816020015b611f8b612e8c565b815260200190600190039081611f835790505b509050600060015b60025481116122985760008181526007602052604090205460ff168015611fde575060008181526004602052604090206008015460ff165b8015611ffc575060008181526004602052604090206006015460ff16155b1561228657600081815260086020908152604080832033845290915290205460ff1615612286576000818152600460209081526040918290208251610140810184528154815260018201546001600160a01b031692810192909252600281018054929391929184019161206e90613554565b80601f016020809104026020016040519081016040528092919081815260200182805461209a90613554565b80156120e75780601f106120bc576101008083540402835291602001916120e7565b820191906000526020600020905b8154815290600101906020018083116120ca57829003601f168201915b5050505050815260200160038201805461210090613554565b80601f016020809104026020016040519081016040528092919081815260200182805461212c90613554565b80156121795780601f1061214e57610100808354040283529160200191612179565b820191906000526020600020905b81548152906001019060200180831161215c57829003601f168201915b5050505050815260200160048201805461219290613554565b80601f01602080910402602001604051908101604052809291908181526020018280546121be90613554565b801561220b5780601f106121e05761010080835404028352916020019161220b565b820191906000526020600020905b8154815290600101906020018083116121ee57829003601f168201915b505050918352505060058201546020820152600682015460ff9081161515604083015260078301546060830152600890920154808316151560808301526101009004909116151560a090910152835184908490811061226c5761226c61350d565b6020026020010181905250818061228290613539565b9250505b8061229081613539565b915050611fa6565b508067ffffffffffffffff8111156122b2576122b261328e565b6040519080825280602002602001820160405280156122eb57816020015b6122d8612e8c565b8152602001906001900390816122d05790505b50925060005b818110156109b55782818151811061230b5761230b61350d565b60200260200101518482815181106123255761232561350d565b6020026020010181905250808061233b90613539565b9150506122f1565b60008351116123945760405162461bcd60e51b815260206004820152601a60248201527f506c656173652070726f766964652061206a6f62207469746c6500000000000060448201526064016109e9565b60008251116123e55760405162461bcd60e51b815260206004820152601c60248201527f506c656173652070726f766964652061206465736372697074696f6e0000000060448201526064016109e9565b600081511161242c5760405162461bcd60e51b8152602060048201526013602482015272506c656173652070726f76696465207461677360681b60448201526064016109e9565b600034116124715760405162461bcd60e51b8152602060048201526012602482015271496e73756666696369656e742066756e647360701b60448201526064016109e9565b61247f600280546001019055565b600061248a60025490565b9050612494612e8c565b8181523360208201526040810185905260608101849052608081018390523460a082015260016101008201526124c8612e13565b60e082015260008281526004602090815260409182902083518155818401516001820180546001600160a01b0319166001600160a01b03909216919091179055918301518051849392612522926002850192910190612f18565b506060820151805161253e916003840191602090910190612f18565b506080820151805161255a916004840191602090910190612f18565b5060a0820151600582015560c082015160068201805491151560ff1992831617905560e0830151600780840191909155610100808501516008909401805461012090960151151590910261ff00199415159490941661ffff19909516949094179290921790925560009384526020526040909220805490921660011790915550505050565b60008281526004602052604090206001015482906001600160a01b0316331461261a5760405162461bcd60e51b81526004016109e990613615565b60008381526007602052604090205460ff166126485760405162461bcd60e51b81526004016109e99061358f565b60008381526004602052604090206008015460ff166126a45760405162461bcd60e51b81526020600482015260186024820152772a3434b9903537b1103430bb32903132b2b7103a30b5b2b760411b60448201526064016109e9565b60008381526004602052604090206006015460ff16156126d65760405162461bcd60e51b81526004016109e9906135c6565b60008381526008602090815260408083206001600160a01b038616845290915290205460ff1661273e5760405162461bcd60e51b81526020600482015260136024820152722ab724b232b73a34b334b2b2103134b23232b960691b60448201526064016109e9565b612746612f9c565b600084815260056020818152604080842080548087528684018a81526001600160a01b03808b16948901948552600160608a0181815297875280840185559388529487208851600390930201918255519181019190915590516002909101805493511515600160a01b026001600160a81b031990941691909216179190911790555b6000858152600660205260409020548110156128945760008581526006602052604090208054879190839081106128015761280161350d565b90600052602060002090600302016000015414612882576000858152600860209081526040808320600690925282208054839190859081106128455761284561350d565b60009182526020808320600392909202909101600201546001600160a01b031683528201929092526040019020805460ff19169115159190911790555b8061288c81613539565b9150506127c8565b505050600091825250600460205260409020600801805460ff1916905550565b6128bc612e32565b60008181526004602052604090206001015481906001600160a01b031633146128f75760405162461bcd60e51b81526004016109e990613615565b60008281526007602052604090205460ff166129255760405162461bcd60e51b81526004016109e99061358f565b60008281526004602052604090206008015460ff16156129875760405162461bcd60e51b815260206004820152601b60248201527f54686973206a6f6220686173206e6f74206265656e2074616b656e000000000060448201526064016109e9565b600082815260046020526040902060080154610100900460ff16156129ee5760405162461bcd60e51b815260206004820152601f60248201527f54686973206a6f62206d757374206e6f74206265206f6e20646973707574650060448201526064016109e9565b60008281526004602052604090206006015460ff1615612a205760405162461bcd60e51b81526004016109e9906135c6565b600082815260046020526040812060050154600354909190606490612a459084613642565b612a4f9190613661565b905060015b600085815260056020526040902054811015612b18576000858152600560205260409020805482908110612a8a57612a8a61350d565b906000526020600020906003020160020160149054906101000a900460ff161515600115151415612b065760008581526005602052604090208054612b06919083908110612ada57612ada61350d565b60009182526020909120600260039092020101546001600160a01b0316612b018486613683565b612d04565b80612b1081613539565b915050612a54565b50612b34612b2e6000546001600160a01b031690565b82612d04565b5050506000818152600460205260409020600601805460ff19166001179055610e8360018055565b612b64612f9c565b60008281526007602052604090205460ff16612b925760405162461bcd60e51b81526004016109e99061358f565b60005b600083815260056020526040902054811015612c7f576000838152600560205260409020805482908110612bcb57612bcb61350d565b906000526020600020906003020160020160149054906101000a900460ff1615612c6d576000838152600560205260409020805482908110612c0f57612c0f61350d565b600091825260209182902060408051608081018252600393909302909101805483526001810154938301939093526002909201546001600160a01b03811692820192909252600160a01b90910460ff16151560608201529392505050565b80612c7781613539565b915050612b95565b50612c88612f9c565b92915050565b612c96612d69565b6001600160a01b038116612cfb5760405162461bcd60e51b815260206004820152602660248201527f4f776e61626c653a206e6577206f776e657220697320746865207a65726f206160448201526564647265737360d01b60648201526084016109e9565b610e8381612dc3565b6000826001600160a01b03168260405160006040518083038185875af1925050503d8060008114612d51576040519150601f19603f3d011682016040523d82523d6000602084013e612d56565b606091505b5050905080612d6457600080fd5b505050565b6000546001600160a01b031633146113725760405162461bcd60e51b815260206004820181905260248201527f4f776e61626c653a2063616c6c6572206973206e6f7420746865206f776e657260448201526064016109e9565b600080546001600160a01b038381166001600160a01b0319831681178455604051919092169283917f8be0079c531659141344cd1fd0a4f28419497f9722a3daafe3b4186f6b6457e09190a35050565b6000612e21426103e8613642565b612e2d906103e86135fd565b905090565b60026001541415612e855760405162461bcd60e51b815260206004820152601f60248201527f5265656e7472616e637947756172643a207265656e7472616e742063616c6c0060448201526064016109e9565b6002600155565b6040518061014001604052806000815260200160006001600160a01b0316815260200160608152602001606081526020016060815260200160008152602001600015158152602001600081526020016000151581526020016000151581525090565b6040518060600160405280600081526020016000815260200160006001600160a01b031681525090565b828054612f2490613554565b90600052602060002090601f016020900481019282612f465760008555612f8c565b82601f10612f5f57805160ff1916838001178555612f8c565b82800160010185558215612f8c579182015b82811115612f8c578251825591602001919060010190612f71565b50612f98929150612fcf565b5090565b6040518060800160405280600081526020016000815260200160006001600160a01b031681526020016000151581525090565b5b80821115612f985760008155600101612fd0565b80356001600160a01b0381168114610d8557600080fd5b6000806040838503121561300e57600080fd5b8235915061301e60208401612fe4565b90509250929050565b6000815180845260005b8181101561304d57602081850181015186830182015201613031565b8181111561305f576000602083870101525b50601f01601f19169290920160200192915050565b600061014082518452602083015161309760208601826001600160a01b03169052565b5060408301518160408601526130af82860182613027565b915050606083015184820360608601526130c98282613027565b915050608083015184820360808601526130e38282613027565b91505060a083015160a085015260c083015161310360c086018215159052565b5060e083015160e0850152610100808401516131228287018215159052565b50506101209283015115159390920192909252919050565b6000602080830181845280855180835260408601915060408160051b870101925083870160005b8281101561318f57603f1988860301845261317d858351613074565b94509285019290850190600101613161565b5092979650505050505050565b6000602082840312156131ae57600080fd5b5035919050565b6020808252825182820181905260009190848201906040850190845b818110156132205761320d83855180518252602080820151908301526040808201516001600160a01b0316908301526060908101511515910152565b92840192608092909201916001016131d1565b50909695505050505050565b602080825282518282018190526000919060409081850190868401855b828110156132815781518051855286810151878601528501516001600160a01b03168585015260609093019290850190600101613249565b5091979650505050505050565b634e487b7160e01b600052604160045260246000fd5b600082601f8301126132b557600080fd5b813567ffffffffffffffff808211156132d0576132d061328e565b604051601f8301601f19908116603f011681019082821181831017156132f8576132f861328e565b8160405283815286602085880101111561331157600080fd5b836020870160208301376000602085830101528094505050505092915050565b6000806000806080858703121561334757600080fd5b84359350602085013567ffffffffffffffff8082111561336657600080fd5b613372888389016132a4565b9450604087013591508082111561338857600080fd5b613394888389016132a4565b935060608701359150808211156133aa57600080fd5b506133b7878288016132a4565b91505092959194509250565b600080604083850312156133d657600080fd5b50508035926020909101359150565b6020815260006133f86020830184613074565b9392505050565b60008060006060848603121561341457600080fd5b833567ffffffffffffffff8082111561342c57600080fd5b613438878388016132a4565b9450602086013591508082111561344e57600080fd5b61345a878388016132a4565b9350604086013591508082111561347057600080fd5b5061347d868287016132a4565b9150509250925092565b60008060006060848603121561349c57600080fd5b83359250602084013591506134b360408501612fe4565b90509250925092565b81518152602080830151908201526040808301516001600160a01b03169082015260608083015115159082015260808101612c88565b60006020828403121561350457600080fd5b6133f882612fe4565b634e487b7160e01b600052603260045260246000fd5b634e487b7160e01b600052601160045260246000fd5b600060001982141561354d5761354d613523565b5060010190565b600181811c9082168061356857607f821691505b6020821081141561358957634e487b7160e01b600052602260045260246000fd5b50919050565b6020808252601e908201527f54686973206a6f62206c697374696e6720646f65736e27742065786973740000604082015260600190565b6020808252601a908201527f54686973206a6f6220686173206265656e2070616964206f7574000000000000604082015260600190565b6000821982111561361057613610613523565b500190565b602080825260139082015272556e617574686f72697a656420656e7469747960681b604082015260600190565b600081600019048311821515161561365c5761365c613523565b500290565b60008261367e57634e487b7160e01b600052601260045260246000fd5b500490565b60008282101561369557613695613523565b50039056fea2646970667358221220707a00c931a465fd8e0c2e5a25302873ab03cb62fe313f0e191b831c9d3d055b64736f6c634300080b0033",
  "linkReferences": {},
  "deployedLinkReferences": {}
}