{
  "_format": "hh-sol-artifact-1",
  "contractName": "DappWorks",
  "sourceName": "src/contracts/DappWorks.sol",
  "abi": [
    {
      "anonymous": false,
      "inputs": [
        {
          "indexed": true,
          "internalType": "address",
          "name": "previousOwner",
          "type": "address"
        },
        {
          "indexed": true,
          "internalType": "address",
          "name": "newOwner",
          "type": "address"
        }
      ],
      "name": "OwnershipTransferred",
      "type": "event"
    },
    {
      "inputs": [
        {
          "internalType": "uint256",
          "name": "id",
          "type": "uint256"
        },
        {
          "internalType": "uint256",
          "name": "jId",
          "type": "uint256"
        },
        {
          "internalType": "address",
          "name": "bidder",
          "type": "address"
        }
      ],
      "name": "acceptBid",
      "outputs": [],
      "stateMutability": "nonpayable",
      "type": "function"
    },
    {
      "inputs": [
        {
          "internalType": "string",
          "name": "jobTitle",
          "type": "string"
        },
        {
          "internalType": "string",
          "name": "description",
          "type": "string"
        },
        {
          "internalType": "string",
          "name": "tags",
          "type": "string"
        }
      ],
      "name": "addJobListing",
      "outputs": [],
      "stateMutability": "payable",
      "type": "function"
    },
    {
      "inputs": [
        {
          "internalType": "uint256",
          "name": "id",
          "type": "uint256"
        }
      ],
      "name": "bidForJob",
      "outputs": [],
      "stateMutability": "nonpayable",
      "type": "function"
    },
    {
      "inputs": [
        {
          "internalType": "uint256",
          "name": "id",
          "type": "uint256"
        }
      ],
      "name": "bidStatus",
      "outputs": [
        {
          "internalType": "bool",
          "name": "",
          "type": "bool"
        }
      ],
      "stateMutability": "view",
      "type": "function"
    },
    {
      "inputs": [
        {
          "internalType": "uint256",
          "name": "id",
          "type": "uint256"
        }
      ],
      "name": "deleteJob",
      "outputs": [],
      "stateMutability": "nonpayable",
      "type": "function"
    },
    {
      "inputs": [
        {
          "internalType": "uint256",
          "name": "id",
          "type": "uint256"
        }
      ],
      "name": "dispute",
      "outputs": [],
      "stateMutability": "nonpayable",
      "type": "function"
    },
    {
      "inputs": [
        {
          "internalType": "uint256",
          "name": "id",
          "type": "uint256"
        }
      ],
      "name": "getAcceptedFreelancer",
      "outputs": [
        {
          "components": [
            {
              "internalType": "uint256",
              "name": "id",
              "type": "uint256"
            },
            {
              "internalType": "uint256",
              "name": "jId",
              "type": "uint256"
            },
            {
              "internalType": "address",
              "name": "account",
              "type": "address"
            },
            {
              "internalType": "bool",
              "name": "isAssigned",
              "type": "bool"
            }
          ],
          "internalType": "struct DappWorks.FreelancerStruct",
          "name": "",
          "type": "tuple"
        }
      ],
      "stateMutability": "view",
      "type": "function"
    },
    {
      "inputs": [
        {
          "internalType": "uint256",
          "name": "id",
          "type": "uint256"
        }
      ],
      "name": "getBidders",
      "outputs": [
        {
          "components": [
            {
              "internalType": "uint256",
              "name": "id",
              "type": "uint256"
            },
            {
              "internalType": "uint256",
              "name": "jId",
              "type": "uint256"
            },
            {
              "internalType": "address",
              "name": "account",
              "type": "address"
            }
          ],
          "internalType": "struct DappWorks.BidStruct[]",
          "name": "Bidders",
          "type": "tuple[]"
        }
      ],
      "stateMutability": "view",
      "type": "function"
    },
    {
      "inputs": [
        {
          "internalType": "uint256",
          "name": "id",
          "type": "uint256"
        }
      ],
      "name": "getFreelancers",
      "outputs": [
        {
          "components": [
            {
              "internalType": "uint256",
              "name": "id",
              "type": "uint256"
            },
            {
              "internalType": "uint256",
              "name": "jId",
              "type": "uint256"
            },
            {
              "internalType": "address",
              "name": "account",
              "type": "address"
            },
            {
              "internalType": "bool",
              "name": "isAssigned",
              "type": "bool"
            }
          ],
          "internalType": "struct DappWorks.FreelancerStruct[]",
          "name": "",
          "type": "tuple[]"
        }
      ],
      "stateMutability": "view",
      "type": "function"
    },
    {
      "inputs": [
        {
          "internalType": "uint256",
          "name": "id",
          "type": "uint256"
        }
      ],
      "name": "getJob",
      "outputs": [
        {
          "components": [
            {
              "internalType": "uint256",
              "name": "id",
              "type": "uint256"
            },
            {
              "internalType": "address",
              "name": "owner",
              "type": "address"
            },
            {
              "internalType": "string",
              "name": "jobTitle",
              "type": "string"
            },
            {
              "internalType": "string",
              "name": "description",
              "type": "string"
            },
            {
              "internalType": "string",
              "name": "tags",
              "type": "string"
            },
            {
              "internalType": "uint256",
              "name": "prize",
              "type": "uint256"
            },
            {
              "internalType": "bool",
              "name": "paidOut",
              "type": "bool"
            },
            {
              "internalType": "uint256",
              "name": "timestamp",
              "type": "uint256"
            },
            {
              "internalType": "bool",
              "name": "listed",
              "type": "bool"
            },
            {
              "internalType": "bool",
              "name": "disputed",
              "type": "bool"
            }
          ],
          "internalType": "struct DappWorks.JobStruct",
          "name": "",
          "type": "tuple"
        }
      ],
      "stateMutability": "view",
      "type": "function"
    },
    {
      "inputs": [],
      "name": "getJobs",
      "outputs": [
        {
          "components": [
            {
              "internalType": "uint256",
              "name": "id",
              "type": "uint256"
            },
            {
              "internalType": "address",
              "name": "owner",
              "type": "address"
            },
            {
              "internalType": "string",
              "name": "jobTitle",
              "type": "string"
            },
            {
              "internalType": "string",
              "name": "description",
              "type": "string"
            },
            {
              "internalType": "string",
              "name": "tags",
              "type": "string"
            },
            {
              "internalType": "uint256",
              "name": "prize",
              "type": "uint256"
            },
            {
              "internalType": "bool",
              "name": "paidOut",
              "type": "bool"
            },
            {
              "internalType": "uint256",
              "name": "timestamp",
              "type": "uint256"
            },
            {
              "internalType": "bool",
              "name": "listed",
              "type": "bool"
            },
            {
              "internalType": "bool",
              "name": "disputed",
              "type": "bool"
            }
          ],
          "internalType": "struct DappWorks.JobStruct[]",
          "name": "ActiveJobs",
          "type": "tuple[]"
        }
      ],
      "stateMutability": "view",
      "type": "function"
    },
    {
      "inputs": [
        {
          "internalType": "uint256",
          "name": "",
          "type": "uint256"
        },
        {
          "internalType": "address",
          "name": "",
          "type": "address"
        }
      ],
      "name": "hasPlacedBid",
      "outputs": [
        {
          "internalType": "bool",
          "name": "",
          "type": "bool"
        }
      ],
      "stateMutability": "view",
      "type": "function"
    },
    {
      "inputs": [],
      "name": "owner",
      "outputs": [
        {
          "internalType": "address",
          "name": "",
          "type": "address"
        }
      ],
      "stateMutability": "view",
      "type": "function"
    },
    {
      "inputs": [
        {
          "internalType": "uint256",
          "name": "id",
          "type": "uint256"
        }
      ],
      "name": "payout",
      "outputs": [],
      "stateMutability": "nonpayable",
      "type": "function"
    },
    {
      "inputs": [],
      "name": "platformCharge",
      "outputs": [
        {
          "internalType": "uint256",
          "name": "",
          "type": "uint256"
        }
      ],
      "stateMutability": "view",
      "type": "function"
    },
    {
      "inputs": [],
      "name": "renounceOwnership",
      "outputs": [],
      "stateMutability": "nonpayable",
      "type": "function"
    },
    {
      "inputs": [
        {
          "internalType": "uint256",
          "name": "id",
          "type": "uint256"
        }
      ],
      "name": "resolved",
      "outputs": [],
      "stateMutability": "nonpayable",
      "type": "function"
    },
    {
      "inputs": [
        {
          "internalType": "uint256",
          "name": "jId",
          "type": "uint256"
        },
        {
          "internalType": "uint256",
          "name": "id",
          "type": "uint256"
        }
      ],
      "name": "revoke",
      "outputs": [],
      "stateMutability": "nonpayable",
      "type": "function"
    },
    {
      "inputs": [
        {
          "internalType": "address",
          "name": "newOwner",
          "type": "address"
        }
      ],
      "name": "transferOwnership",
      "outputs": [],
      "stateMutability": "nonpayable",
      "type": "function"
    },
    {
      "inputs": [
        {
          "internalType": "uint256",
          "name": "id",
          "type": "uint256"
        },
        {
          "internalType": "string",
          "name": "jobTitle",
          "type": "string"
        },
        {
          "internalType": "string",
          "name": "description",
          "type": "string"
        },
        {
          "internalType": "string",
          "name": "tags",
          "type": "string"
        }
      ],
      "name": "updateJob",
      "outputs": [],
      "stateMutability": "nonpayable",
      "type": "function"
    }
  ],
  "bytecode": "0x6080604052600560035534801561001557600080fd5b5061001f33610028565b60018055610078565b600080546001600160a01b038381166001600160a01b0319831681178455604051919092169283917f8be0079c531659141344cd1fd0a4f28419497f9722a3daafe3b4186f6b6457e09190a35050565b6125f6806100876000396000f3fe60806040526004361061011e5760003560e01c80638da5cb5b116100a0578063d090961511610064578063d09096151461037a578063def5e7371461038d578063e1152343146103ad578063eb361f81146103cd578063f2fde38b146103fa57600080fd5b80638da5cb5b146102aa578063a7e2a330146102d2578063b9b7efb61461030d578063be1b6fc61461032d578063bf22c4571461034d57600080fd5b806365a990f0116100e757806365a990f01461020f57806368581ebd1461022f578063715018a61461025157806386d6282c146102665780638b1422251461028657600080fd5b80620a106b1461012357806328867624146101735780634b3f53e0146101955780634fa7b507146101c25780636358bb8c146101ef575b600080fd5b34801561012f57600080fd5b5061015e61013e366004611f21565b600860209081526000928352604080842090915290825290205460ff1681565b60405190151581526020015b60405180910390f35b34801561017f57600080fd5b5061019361018e366004611f4d565b61041a565b005b3480156101a157600080fd5b506101b56101b0366004611f4d565b610619565b60405161016a9190611f66565b3480156101ce57600080fd5b506101e26101dd366004611f4d565b6106c1565b60405161016a9190611fdd565b3480156101fb57600080fd5b5061019361020a366004611f4d565b610770565b34801561021b57600080fd5b5061019361022a3660046120e2565b61086c565b34801561023b57600080fd5b5061024461099f565b60405161016a9190612287565b34801561025d57600080fd5b50610193610d2f565b34801561027257600080fd5b50610193610281366004611f4d565b610d43565b34801561029257600080fd5b5061029c60035481565b60405190815260200161016a565b3480156102b657600080fd5b506000546040516001600160a01b03909116815260200161016a565b3480156102de57600080fd5b5061015e6102ed366004611f4d565b600090815260086020908152604080832033845290915290205460ff1690565b34801561031957600080fd5b50610193610328366004611f4d565b610e66565b34801561033957600080fd5b506101936103483660046122e9565b610f50565b34801561035957600080fd5b5061036d610368366004611f4d565b6110ad565b60405161016a919061230b565b610193610388366004612325565b6112f0565b34801561039957600080fd5b506101936103a83660046123ad565b61158c565b3480156103b957600080fd5b506101936103c8366004611f4d565b611861565b3480156103d957600080fd5b506103ed6103e8366004611f4d565b611aa7565b60405161016a91906123e2565b34801561040657600080fd5b50610193610415366004612418565b611bd9565b60008181526007602052604090205460ff166104515760405162461bcd60e51b815260040161044890612433565b60405180910390fd5b60008181526004602052604090206006015460ff16156104835760405162461bcd60e51b81526004016104489061246a565b60008181526004602052604090206008015460ff166104df5760405162461bcd60e51b81526020600482015260186024820152772a3434b9903537b1103430bb32903132b2b7103a30b5b2b760411b6044820152606401610448565b600081815260086020908152604080832033845290915290205460ff16156105495760405162461bcd60e51b815260206004820152601d60248201527f596f75206861766520706c6163656420612062696420616c72656164790000006044820152606401610448565b6105766040518060600160405280600081526020016000815260200160006001600160a01b031681525090565b6000828152600660205260409020546105909060016124b7565b815260208082018381523360408085018281526000878152600886528281209381529285528183208054600160ff19909116811790915596835260068552908220805480880182559083529390912093516003909302909301918255519281019290925551600290910180546001600160a01b0319166001600160a01b03909216919091179055565b606060056000838152602001908152602001600020805480602002602001604051908101604052809291908181526020016000905b828210156106b6576000848152602090819020604080516080810182526003860290920180548352600180820154848601526002909101546001600160a01b03811692840192909252600160a01b90910460ff1615156060830152908352909201910161064e565b505050509050919050565b60008181526007602052604090205460609060ff166106f25760405162461bcd60e51b815260040161044890612433565b600082815260066020908152604080832080548251818502810185019093528083529193909284015b828210156106b6576000848152602090819020604080516060810182526003860290920180548352600180820154848601526002909101546001600160a01b031691830191909152908352909201910161071b565b60008181526007602052604090205460ff1661079e5760405162461bcd60e51b815260040161044890612433565b60008181526004602052604090206008015460ff166107f95760405162461bcd60e51b81526020600482015260176024820152762a3434b9903537b1103430b9903132b2b7103a30b5b2b760491b6044820152606401610448565b60008181526004602052604090206006015460ff161561082b5760405162461bcd60e51b81526004016104489061246a565b6000818152600760209081526040808320805460ff19169055600490915290206001810154600590910154610869916001600160a01b031690611c4f565b50565b60008481526007602052604090205460ff1661089a5760405162461bcd60e51b815260040161044890612433565b60008481526004602052604090206008015460ff166108f55760405162461bcd60e51b81526020600482015260176024820152762a3434b9903537b1103430b9903132b2b7103a30b5b2b760491b6044820152606401610448565b60008481526004602052604090206006015460ff16156109275760405162461bcd60e51b81526004016104489061246a565b6000848152600460209081526040909120845161094c92600290920191860190611dd7565b506000848152600460209081526040909120835161097292600390920191850190611dd7565b506000848152600460208181526040909220835161099893919092019190840190611dd7565b5050505050565b606060008060015b6002548111610a225760008181526007602052604090205460ff1680156109df575060008181526004602052604090206008015460ff165b80156109fd575060008181526004602052604090206006015460ff16155b15610a105782610a0c816124cf565b9350505b80610a1a816124cf565b9150506109a7565b508167ffffffffffffffff811115610a3c57610a3c61203f565b604051908082528060200260200182016040528015610a7557816020015b610a62611e5b565b815260200190600190039081610a5a5790505b50925060015b6002548111610d295760008181526007602052604090205460ff168015610ab4575060008181526004602052604090206006015460ff16155b15610d17576000818152600460209081526040918290208251610140810184528154815260018201546001600160a01b0316928101929092526002810180549293919291840191610b04906124ea565b80601f0160208091040260200160405190810160405280929190818152602001828054610b30906124ea565b8015610b7d5780601f10610b5257610100808354040283529160200191610b7d565b820191906000526020600020905b815481529060010190602001808311610b6057829003601f168201915b50505050508152602001600382018054610b96906124ea565b80601f0160208091040260200160405190810160405280929190818152602001828054610bc2906124ea565b8015610c0f5780601f10610be457610100808354040283529160200191610c0f565b820191906000526020600020905b815481529060010190602001808311610bf257829003601f168201915b50505050508152602001600482018054610c28906124ea565b80601f0160208091040260200160405190810160405280929190818152602001828054610c54906124ea565b8015610ca15780601f10610c7657610100808354040283529160200191610ca1565b820191906000526020600020905b815481529060010190602001808311610c8457829003601f168201915b505050918352505060058201546020820152600682015460ff9081161515604083015260078301546060830152600890920154808316151560808301526101009004909116151560a0909101528483610cf9816124cf565b945081518110610d0b57610d0b612525565b60200260200101819052505b80610d21816124cf565b915050610a7b565b50505090565b610d37611cb4565b610d416000611d0e565b565b60008181526004602052604090206001015481906001600160a01b03163314610d7e5760405162461bcd60e51b81526004016104489061253b565b60008281526007602052604090205460ff16610dac5760405162461bcd60e51b815260040161044890612433565b600082815260046020526040902060080154610100900460ff1615610e135760405162461bcd60e51b815260206004820152601960248201527f54686973206a6f6220616c7265616479206469737075746564000000000000006044820152606401610448565b60008281526004602052604090206006015460ff1615610e455760405162461bcd60e51b81526004016104489061246a565b506000908152600460205260409020600801805461ff001916610100179055565b610e6e611cb4565b60008181526007602052604090205460ff16610e9c5760405162461bcd60e51b815260040161044890612433565b600081815260046020526040902060080154610100900460ff16610f025760405162461bcd60e51b815260206004820152601b60248201527f54686973206a6f62206d757374206265206f6e206469737075746500000000006044820152606401610448565b60008181526004602052604090206006015460ff1615610f345760405162461bcd60e51b81526004016104489061246a565b6000908152600460205260409020600801805461ff0019169055565b610f58611cb4565b60008281526007602052604090205460ff16610f865760405162461bcd60e51b815260040161044890612433565b600082815260046020526040902060080154610100900460ff16610fec5760405162461bcd60e51b815260206004820152601b60248201527f54686973206a6f62206d757374206265206f6e206469737075746500000000006044820152606401610448565b60008281526004602052604090206006015460ff161561101e5760405162461bcd60e51b81526004016104489061246a565b600082815260056020526040812080548390811061103e5761103e612525565b600091825260208083206002600390930201918201805460ff60a01b19169055858352600490526040909120600181015460059091015491925061108d916001600160a01b0390911690611c4f565b50506000908152600460205260409020600801805460ff19166001179055565b6110b5611e5b565b6000828152600460209081526040918290208251610140810184528154815260018201546001600160a01b0316928101929092526002810180549293919291840191611100906124ea565b80601f016020809104026020016040519081016040528092919081815260200182805461112c906124ea565b80156111795780601f1061114e57610100808354040283529160200191611179565b820191906000526020600020905b81548152906001019060200180831161115c57829003601f168201915b50505050508152602001600382018054611192906124ea565b80601f01602080910402602001604051908101604052809291908181526020018280546111be906124ea565b801561120b5780601f106111e05761010080835404028352916020019161120b565b820191906000526020600020905b8154815290600101906020018083116111ee57829003601f168201915b50505050508152602001600482018054611224906124ea565b80601f0160208091040260200160405190810160405280929190818152602001828054611250906124ea565b801561129d5780601f106112725761010080835404028352916020019161129d565b820191906000526020600020905b81548152906001019060200180831161128057829003601f168201915b505050918352505060058201546020820152600682015460ff9081161515604083015260078301546060830152600890920154808316151560808301526101009004909116151560a09091015292915050565b60008351116113415760405162461bcd60e51b815260206004820152601a60248201527f506c656173652070726f766964652061206a6f62207469746c650000000000006044820152606401610448565b60008251116113925760405162461bcd60e51b815260206004820152601c60248201527f506c656173652070726f766964652061206465736372697074696f6e000000006044820152606401610448565b60008151116113d95760405162461bcd60e51b8152602060048201526013602482015272506c656173652070726f76696465207461677360681b6044820152606401610448565b6000341161141e5760405162461bcd60e51b8152602060048201526012602482015271496e73756666696369656e742066756e647360701b6044820152606401610448565b61142c600280546001019055565b600061143760025490565b9050611441611e5b565b8181523360208201526040810185905260608101849052608081018390523460a08201526001610100820152611475611d5e565b60e082015260008281526004602090815260409182902083518155818401516001820180546001600160a01b0319166001600160a01b039092169190911790559183015180518493926114cf926002850192910190611dd7565b50606082015180516114eb916003840191602090910190611dd7565b5060808201518051611507916004840191602090910190611dd7565b5060a0820151600582015560c082015160068201805491151560ff1992831617905560e0830151600780840191909155610100808501516008909401805461012090960151151590910261ff00199415159490941661ffff19909516949094179290921790925560009384526020526040909220805490921660011790915550505050565b60008281526004602052604090206001015482906001600160a01b031633146115c75760405162461bcd60e51b81526004016104489061253b565b60008381526007602052604090205460ff166115f55760405162461bcd60e51b815260040161044890612433565b60008381526004602052604090206008015460ff166116515760405162461bcd60e51b81526020600482015260186024820152772a3434b9903537b1103430bb32903132b2b7103a30b5b2b760411b6044820152606401610448565b60008381526004602052604090206006015460ff16156116835760405162461bcd60e51b81526004016104489061246a565b60008381526008602090815260408083206001600160a01b038616845290915290205460ff166116eb5760405162461bcd60e51b81526020600482015260136024820152722ab724b232b73a34b334b2b2103134b23232b960691b6044820152606401610448565b6116f3611ebd565b600084815260056020818152604080842080548087528684018a81526001600160a01b03808b16948901948552600160608a0181815297875280840185559388529487208851600390930201918255519181019190915590516002909101805493511515600160a01b026001600160a81b031990941691909216179190911790555b6000858152600660205260409020548110156118415760008581526006602052604090208054879190839081106117ae576117ae612525565b9060005260206000209060030201600001541461182f576000858152600860209081526040808320600690925282208054839190859081106117f2576117f2612525565b60009182526020808320600392909202909101600201546001600160a01b031683528201929092526040019020805460ff19169115159190911790555b80611839816124cf565b915050611775565b505050600091825250600460205260409020600801805460ff1916905550565b611869611d7d565b60008181526004602052604090206001015481906001600160a01b031633146118a45760405162461bcd60e51b81526004016104489061253b565b60008281526007602052604090205460ff166118d25760405162461bcd60e51b815260040161044890612433565b600082815260046020526040902060080154610100900460ff16156119395760405162461bcd60e51b815260206004820152601f60248201527f54686973206a6f62206d757374206e6f74206265206f6e2064697370757465006044820152606401610448565b60008281526004602052604090206006015460ff161561196b5760405162461bcd60e51b81526004016104489061246a565b6000828152600460205260408120600501546003549091906064906119909084612568565b61199a9190612587565b905060015b600085815260056020526040902054811015611a635760008581526005602052604090208054829081106119d5576119d5612525565b906000526020600020906003020160020160149054906101000a900460ff161515600115151415611a515760008581526005602052604090208054611a51919083908110611a2557611a25612525565b60009182526020909120600260039092020101546001600160a01b0316611a4c84866125a9565b611c4f565b80611a5b816124cf565b91505061199f565b50611a7f611a796000546001600160a01b031690565b82611c4f565b5050506000818152600460205260409020600601805460ff1916600117905561086960018055565b611aaf611ebd565b60008281526007602052604090205460ff16611add5760405162461bcd60e51b815260040161044890612433565b60005b600083815260056020526040902054811015611bca576000838152600560205260409020805482908110611b1657611b16612525565b906000526020600020906003020160020160149054906101000a900460ff1615611bb8576000838152600560205260409020805482908110611b5a57611b5a612525565b600091825260209182902060408051608081018252600393909302909101805483526001810154938301939093526002909201546001600160a01b03811692820192909252600160a01b90910460ff16151560608201529392505050565b80611bc2816124cf565b915050611ae0565b50611bd3611ebd565b92915050565b611be1611cb4565b6001600160a01b038116611c465760405162461bcd60e51b815260206004820152602660248201527f4f776e61626c653a206e6577206f776e657220697320746865207a65726f206160448201526564647265737360d01b6064820152608401610448565b61086981611d0e565b6000826001600160a01b03168260405160006040518083038185875af1925050503d8060008114611c9c576040519150601f19603f3d011682016040523d82523d6000602084013e611ca1565b606091505b5050905080611caf57600080fd5b505050565b6000546001600160a01b03163314610d415760405162461bcd60e51b815260206004820181905260248201527f4f776e61626c653a2063616c6c6572206973206e6f7420746865206f776e65726044820152606401610448565b600080546001600160a01b038381166001600160a01b0319831681178455604051919092169283917f8be0079c531659141344cd1fd0a4f28419497f9722a3daafe3b4186f6b6457e09190a35050565b6000611d6c426103e8612568565b611d78906103e86124b7565b905090565b60026001541415611dd05760405162461bcd60e51b815260206004820152601f60248201527f5265656e7472616e637947756172643a207265656e7472616e742063616c6c006044820152606401610448565b6002600155565b828054611de3906124ea565b90600052602060002090601f016020900481019282611e055760008555611e4b565b82601f10611e1e57805160ff1916838001178555611e4b565b82800160010185558215611e4b579182015b82811115611e4b578251825591602001919060010190611e30565b50611e57929150611ef0565b5090565b6040518061014001604052806000815260200160006001600160a01b0316815260200160608152602001606081526020016060815260200160008152602001600015158152602001600081526020016000151581526020016000151581525090565b6040518060800160405280600081526020016000815260200160006001600160a01b031681526020016000151581525090565b5b80821115611e575760008155600101611ef1565b80356001600160a01b0381168114611f1c57600080fd5b919050565b60008060408385031215611f3457600080fd5b82359150611f4460208401611f05565b90509250929050565b600060208284031215611f5f57600080fd5b5035919050565b6020808252825182820181905260009190848201906040850190845b81811015611fd157611fbe83855180518252602080820151908301526040808201516001600160a01b0316908301526060908101511515910152565b9284019260809290920191600101611f82565b50909695505050505050565b602080825282518282018190526000919060409081850190868401855b828110156120325781518051855286810151878601528501516001600160a01b03168585015260609093019290850190600101611ffa565b5091979650505050505050565b634e487b7160e01b600052604160045260246000fd5b600082601f83011261206657600080fd5b813567ffffffffffffffff808211156120815761208161203f565b604051601f8301601f19908116603f011681019082821181831017156120a9576120a961203f565b816040528381528660208588010111156120c257600080fd5b836020870160208301376000602085830101528094505050505092915050565b600080600080608085870312156120f857600080fd5b84359350602085013567ffffffffffffffff8082111561211757600080fd5b61212388838901612055565b9450604087013591508082111561213957600080fd5b61214588838901612055565b9350606087013591508082111561215b57600080fd5b5061216887828801612055565b91505092959194509250565b6000815180845260005b8181101561219a5760208185018101518683018201520161217e565b818111156121ac576000602083870101525b50601f01601f19169290920160200192915050565b60006101408251845260208301516121e460208601826001600160a01b03169052565b5060408301518160408601526121fc82860182612174565b915050606083015184820360608601526122168282612174565b915050608083015184820360808601526122308282612174565b91505060a083015160a085015260c083015161225060c086018215159052565b5060e083015160e08501526101008084015161226f8287018215159052565b50506101209283015115159390920192909252919050565b6000602080830181845280855180835260408601915060408160051b870101925083870160005b828110156122dc57603f198886030184526122ca8583516121c1565b945092850192908501906001016122ae565b5092979650505050505050565b600080604083850312156122fc57600080fd5b50508035926020909101359150565b60208152600061231e60208301846121c1565b9392505050565b60008060006060848603121561233a57600080fd5b833567ffffffffffffffff8082111561235257600080fd5b61235e87838801612055565b9450602086013591508082111561237457600080fd5b61238087838801612055565b9350604086013591508082111561239657600080fd5b506123a386828701612055565b9150509250925092565b6000806000606084860312156123c257600080fd5b83359250602084013591506123d960408501611f05565b90509250925092565b81518152602080830151908201526040808301516001600160a01b03169082015260608083015115159082015260808101611bd3565b60006020828403121561242a57600080fd5b61231e82611f05565b6020808252601e908201527f54686973206a6f62206c697374696e6720646f65736e27742065786973740000604082015260600190565b6020808252601a908201527f54686973206a6f6220686173206265656e2070616964206f7574000000000000604082015260600190565b634e487b7160e01b600052601160045260246000fd5b600082198211156124ca576124ca6124a1565b500190565b60006000198214156124e3576124e36124a1565b5060010190565b600181811c908216806124fe57607f821691505b6020821081141561251f57634e487b7160e01b600052602260045260246000fd5b50919050565b634e487b7160e01b600052603260045260246000fd5b602080825260139082015272556e617574686f72697a656420656e7469747960681b604082015260600190565b6000816000190483118215151615612582576125826124a1565b500290565b6000826125a457634e487b7160e01b600052601260045260246000fd5b500490565b6000828210156125bb576125bb6124a1565b50039056fea2646970667358221220255177f7bdd2a74b5d84d10d6829fa64eb3226c8633998fb9c6e82c319df96dc64736f6c634300080b0033",
  "linkReferences": {},
  "deployedLinkReferences": {}
}