{
  "_format": "hh-sol-artifact-1",
  "contractName": "DappWorks",
  "sourceName": "src/contracts/DappWorks.sol",
  "abi": [
    {
      "anonymous": false,
      "inputs": [
        {
          "indexed": true,
          "internalType": "address",
          "name": "previousOwner",
          "type": "address"
        },
        {
          "indexed": true,
          "internalType": "address",
          "name": "newOwner",
          "type": "address"
        }
      ],
      "name": "OwnershipTransferred",
      "type": "event"
    },
    {
      "inputs": [
        {
          "internalType": "uint256",
          "name": "id",
          "type": "uint256"
        },
        {
          "internalType": "uint256",
          "name": "jId",
          "type": "uint256"
        },
        {
          "internalType": "address",
          "name": "bidder",
          "type": "address"
        }
      ],
      "name": "acceptBid",
      "outputs": [],
      "stateMutability": "nonpayable",
      "type": "function"
    },
    {
      "inputs": [
        {
          "internalType": "string",
          "name": "jobTitle",
          "type": "string"
        },
        {
          "internalType": "string",
          "name": "description",
          "type": "string"
        },
        {
          "internalType": "string",
          "name": "tags",
          "type": "string"
        }
      ],
      "name": "addJobListing",
      "outputs": [],
      "stateMutability": "payable",
      "type": "function"
    },
    {
      "inputs": [
        {
          "internalType": "uint256",
          "name": "id",
          "type": "uint256"
        }
      ],
      "name": "bidForJob",
      "outputs": [],
      "stateMutability": "nonpayable",
      "type": "function"
    },
    {
      "inputs": [
        {
          "internalType": "uint256",
          "name": "id",
          "type": "uint256"
        }
      ],
      "name": "bidStatus",
      "outputs": [
        {
          "internalType": "bool",
          "name": "",
          "type": "bool"
        }
      ],
      "stateMutability": "view",
      "type": "function"
    },
    {
      "inputs": [
        {
          "internalType": "uint256",
          "name": "id",
          "type": "uint256"
        }
      ],
      "name": "deleteJob",
      "outputs": [],
      "stateMutability": "nonpayable",
      "type": "function"
    },
    {
      "inputs": [
        {
          "internalType": "uint256",
          "name": "id",
          "type": "uint256"
        }
      ],
      "name": "dispute",
      "outputs": [],
      "stateMutability": "nonpayable",
      "type": "function"
    },
    {
      "inputs": [
        {
          "internalType": "uint256",
          "name": "id",
          "type": "uint256"
        }
      ],
      "name": "getAcceptedFreelancer",
      "outputs": [
        {
          "components": [
            {
              "internalType": "uint256",
              "name": "id",
              "type": "uint256"
            },
            {
              "internalType": "uint256",
              "name": "jId",
              "type": "uint256"
            },
            {
              "internalType": "address",
              "name": "account",
              "type": "address"
            },
            {
              "internalType": "bool",
              "name": "isAssigned",
              "type": "bool"
            }
          ],
          "internalType": "struct DappWorks.FreelancerStruct",
          "name": "",
          "type": "tuple"
        }
      ],
      "stateMutability": "view",
      "type": "function"
    },
    {
      "inputs": [],
      "name": "getAssignedJobs",
      "outputs": [
        {
          "components": [
            {
              "internalType": "uint256",
              "name": "id",
              "type": "uint256"
            },
            {
              "internalType": "address",
              "name": "owner",
              "type": "address"
            },
            {
              "internalType": "address",
              "name": "freelancer",
              "type": "address"
            },
            {
              "internalType": "string",
              "name": "jobTitle",
              "type": "string"
            },
            {
              "internalType": "string",
              "name": "description",
              "type": "string"
            },
            {
              "internalType": "string",
              "name": "tags",
              "type": "string"
            },
            {
              "internalType": "uint256",
              "name": "prize",
              "type": "uint256"
            },
            {
              "internalType": "bool",
              "name": "paidOut",
              "type": "bool"
            },
            {
              "internalType": "uint256",
              "name": "timestamp",
              "type": "uint256"
            },
            {
              "internalType": "bool",
              "name": "listed",
              "type": "bool"
            },
            {
              "internalType": "bool",
              "name": "disputed",
              "type": "bool"
            },
            {
              "internalType": "address[]",
              "name": "bidders",
              "type": "address[]"
            }
          ],
          "internalType": "struct DappWorks.JobStruct[]",
          "name": "AssignedJobs",
          "type": "tuple[]"
        }
      ],
      "stateMutability": "view",
      "type": "function"
    },
    {
      "inputs": [
        {
          "internalType": "uint256",
          "name": "id",
          "type": "uint256"
        }
      ],
      "name": "getBidders",
      "outputs": [
        {
          "components": [
            {
              "internalType": "uint256",
              "name": "id",
              "type": "uint256"
            },
            {
              "internalType": "uint256",
              "name": "jId",
              "type": "uint256"
            },
            {
              "internalType": "address",
              "name": "account",
              "type": "address"
            }
          ],
          "internalType": "struct DappWorks.BidStruct[]",
          "name": "Bidders",
          "type": "tuple[]"
        }
      ],
      "stateMutability": "view",
      "type": "function"
    },
    {
      "inputs": [],
      "name": "getBidsForBidder",
      "outputs": [
        {
          "components": [
            {
              "internalType": "uint256",
              "name": "id",
              "type": "uint256"
            },
            {
              "internalType": "uint256",
              "name": "jId",
              "type": "uint256"
            },
            {
              "internalType": "address",
              "name": "account",
              "type": "address"
            }
          ],
          "internalType": "struct DappWorks.BidStruct[]",
          "name": "Bids",
          "type": "tuple[]"
        }
      ],
      "stateMutability": "view",
      "type": "function"
    },
    {
      "inputs": [
        {
          "internalType": "uint256",
          "name": "id",
          "type": "uint256"
        }
      ],
      "name": "getFreelancers",
      "outputs": [
        {
          "components": [
            {
              "internalType": "uint256",
              "name": "id",
              "type": "uint256"
            },
            {
              "internalType": "uint256",
              "name": "jId",
              "type": "uint256"
            },
            {
              "internalType": "address",
              "name": "account",
              "type": "address"
            },
            {
              "internalType": "bool",
              "name": "isAssigned",
              "type": "bool"
            }
          ],
          "internalType": "struct DappWorks.FreelancerStruct[]",
          "name": "",
          "type": "tuple[]"
        }
      ],
      "stateMutability": "view",
      "type": "function"
    },
    {
      "inputs": [
        {
          "internalType": "uint256",
          "name": "id",
          "type": "uint256"
        }
      ],
      "name": "getJob",
      "outputs": [
        {
          "components": [
            {
              "internalType": "uint256",
              "name": "id",
              "type": "uint256"
            },
            {
              "internalType": "address",
              "name": "owner",
              "type": "address"
            },
            {
              "internalType": "address",
              "name": "freelancer",
              "type": "address"
            },
            {
              "internalType": "string",
              "name": "jobTitle",
              "type": "string"
            },
            {
              "internalType": "string",
              "name": "description",
              "type": "string"
            },
            {
              "internalType": "string",
              "name": "tags",
              "type": "string"
            },
            {
              "internalType": "uint256",
              "name": "prize",
              "type": "uint256"
            },
            {
              "internalType": "bool",
              "name": "paidOut",
              "type": "bool"
            },
            {
              "internalType": "uint256",
              "name": "timestamp",
              "type": "uint256"
            },
            {
              "internalType": "bool",
              "name": "listed",
              "type": "bool"
            },
            {
              "internalType": "bool",
              "name": "disputed",
              "type": "bool"
            },
            {
              "internalType": "address[]",
              "name": "bidders",
              "type": "address[]"
            }
          ],
          "internalType": "struct DappWorks.JobStruct",
          "name": "",
          "type": "tuple"
        }
      ],
      "stateMutability": "view",
      "type": "function"
    },
    {
      "inputs": [],
      "name": "getJobs",
      "outputs": [
        {
          "components": [
            {
              "internalType": "uint256",
              "name": "id",
              "type": "uint256"
            },
            {
              "internalType": "address",
              "name": "owner",
              "type": "address"
            },
            {
              "internalType": "address",
              "name": "freelancer",
              "type": "address"
            },
            {
              "internalType": "string",
              "name": "jobTitle",
              "type": "string"
            },
            {
              "internalType": "string",
              "name": "description",
              "type": "string"
            },
            {
              "internalType": "string",
              "name": "tags",
              "type": "string"
            },
            {
              "internalType": "uint256",
              "name": "prize",
              "type": "uint256"
            },
            {
              "internalType": "bool",
              "name": "paidOut",
              "type": "bool"
            },
            {
              "internalType": "uint256",
              "name": "timestamp",
              "type": "uint256"
            },
            {
              "internalType": "bool",
              "name": "listed",
              "type": "bool"
            },
            {
              "internalType": "bool",
              "name": "disputed",
              "type": "bool"
            },
            {
              "internalType": "address[]",
              "name": "bidders",
              "type": "address[]"
            }
          ],
          "internalType": "struct DappWorks.JobStruct[]",
          "name": "ActiveJobs",
          "type": "tuple[]"
        }
      ],
      "stateMutability": "view",
      "type": "function"
    },
    {
      "inputs": [],
      "name": "getJobsForBidder",
      "outputs": [
        {
          "components": [
            {
              "internalType": "uint256",
              "name": "id",
              "type": "uint256"
            },
            {
              "internalType": "address",
              "name": "owner",
              "type": "address"
            },
            {
              "internalType": "address",
              "name": "freelancer",
              "type": "address"
            },
            {
              "internalType": "string",
              "name": "jobTitle",
              "type": "string"
            },
            {
              "internalType": "string",
              "name": "description",
              "type": "string"
            },
            {
              "internalType": "string",
              "name": "tags",
              "type": "string"
            },
            {
              "internalType": "uint256",
              "name": "prize",
              "type": "uint256"
            },
            {
              "internalType": "bool",
              "name": "paidOut",
              "type": "bool"
            },
            {
              "internalType": "uint256",
              "name": "timestamp",
              "type": "uint256"
            },
            {
              "internalType": "bool",
              "name": "listed",
              "type": "bool"
            },
            {
              "internalType": "bool",
              "name": "disputed",
              "type": "bool"
            },
            {
              "internalType": "address[]",
              "name": "bidders",
              "type": "address[]"
            }
          ],
          "internalType": "struct DappWorks.JobStruct[]",
          "name": "bidderJobs",
          "type": "tuple[]"
        }
      ],
      "stateMutability": "view",
      "type": "function"
    },
    {
      "inputs": [],
      "name": "getMyJobs",
      "outputs": [
        {
          "components": [
            {
              "internalType": "uint256",
              "name": "id",
              "type": "uint256"
            },
            {
              "internalType": "address",
              "name": "owner",
              "type": "address"
            },
            {
              "internalType": "address",
              "name": "freelancer",
              "type": "address"
            },
            {
              "internalType": "string",
              "name": "jobTitle",
              "type": "string"
            },
            {
              "internalType": "string",
              "name": "description",
              "type": "string"
            },
            {
              "internalType": "string",
              "name": "tags",
              "type": "string"
            },
            {
              "internalType": "uint256",
              "name": "prize",
              "type": "uint256"
            },
            {
              "internalType": "bool",
              "name": "paidOut",
              "type": "bool"
            },
            {
              "internalType": "uint256",
              "name": "timestamp",
              "type": "uint256"
            },
            {
              "internalType": "bool",
              "name": "listed",
              "type": "bool"
            },
            {
              "internalType": "bool",
              "name": "disputed",
              "type": "bool"
            },
            {
              "internalType": "address[]",
              "name": "bidders",
              "type": "address[]"
            }
          ],
          "internalType": "struct DappWorks.JobStruct[]",
          "name": "MyJobs",
          "type": "tuple[]"
        }
      ],
      "stateMutability": "view",
      "type": "function"
    },
    {
      "inputs": [
        {
          "internalType": "uint256",
          "name": "",
          "type": "uint256"
        },
        {
          "internalType": "address",
          "name": "",
          "type": "address"
        }
      ],
      "name": "hasPlacedBid",
      "outputs": [
        {
          "internalType": "bool",
          "name": "",
          "type": "bool"
        }
      ],
      "stateMutability": "view",
      "type": "function"
    },
    {
      "inputs": [],
      "name": "owner",
      "outputs": [
        {
          "internalType": "address",
          "name": "",
          "type": "address"
        }
      ],
      "stateMutability": "view",
      "type": "function"
    },
    {
      "inputs": [
        {
          "internalType": "uint256",
          "name": "id",
          "type": "uint256"
        }
      ],
      "name": "payout",
      "outputs": [],
      "stateMutability": "nonpayable",
      "type": "function"
    },
    {
      "inputs": [],
      "name": "platformCharge",
      "outputs": [
        {
          "internalType": "uint256",
          "name": "",
          "type": "uint256"
        }
      ],
      "stateMutability": "view",
      "type": "function"
    },
    {
      "inputs": [],
      "name": "renounceOwnership",
      "outputs": [],
      "stateMutability": "nonpayable",
      "type": "function"
    },
    {
      "inputs": [
        {
          "internalType": "uint256",
          "name": "id",
          "type": "uint256"
        }
      ],
      "name": "resolved",
      "outputs": [],
      "stateMutability": "nonpayable",
      "type": "function"
    },
    {
      "inputs": [
        {
          "internalType": "uint256",
          "name": "jId",
          "type": "uint256"
        },
        {
          "internalType": "uint256",
          "name": "id",
          "type": "uint256"
        }
      ],
      "name": "revoke",
      "outputs": [],
      "stateMutability": "nonpayable",
      "type": "function"
    },
    {
      "inputs": [
        {
          "internalType": "address",
          "name": "newOwner",
          "type": "address"
        }
      ],
      "name": "transferOwnership",
      "outputs": [],
      "stateMutability": "nonpayable",
      "type": "function"
    },
    {
      "inputs": [
        {
          "internalType": "uint256",
          "name": "id",
          "type": "uint256"
        },
        {
          "internalType": "string",
          "name": "jobTitle",
          "type": "string"
        },
        {
          "internalType": "string",
          "name": "description",
          "type": "string"
        },
        {
          "internalType": "string",
          "name": "tags",
          "type": "string"
        }
      ],
      "name": "updateJob",
      "outputs": [],
      "stateMutability": "nonpayable",
      "type": "function"
    }
  ],
  "bytecode": "0x608060405260056003553480156200001657600080fd5b5062000022336200002c565b600180556200007c565b600080546001600160a01b038381166001600160a01b0319831681178455604051919092169283917f8be0079c531659141344cd1fd0a4f28419497f9722a3daafe3b4186f6b6457e09190a35050565b613896806200008c6000396000f3fe6080604052600436106101495760003560e01c80639180f2a0116100b6578063c4ff0b451161006f578063c4ff0b45146103e4578063d0909615146103f9578063def5e7371461040c578063e11523431461042c578063eb361f811461044c578063f2fde38b1461047957600080fd5b80639180f2a0146103125780639b00214c14610327578063a7e2a3301461033c578063b9b7efb614610377578063be1b6fc614610397578063bf22c457146103b757600080fd5b806365a990f01161010857806365a990f01461025c57806368581ebd1461027c578063715018a61461029157806386d6282c146102a65780638b142225146102c65780638da5cb5b146102ea57600080fd5b80620a106b1461014e578062ebd5fa1461019e57806328867624146101c05780634b3f53e0146101e25780634fa7b5071461020f5780636358bb8c1461023c575b600080fd5b34801561015a57600080fd5b50610189610169366004613151565b600860209081526000928352604080842090915290825290205460ff1681565b60405190151581526020015b60405180910390f35b3480156101aa57600080fd5b506101b3610499565b6040516101959190613300565b3480156101cc57600080fd5b506101e06101db366004613362565b6108d2565b005b3480156101ee57600080fd5b506102026101fd366004613362565b610b2f565b604051610195919061337b565b34801561021b57600080fd5b5061022f61022a366004613362565b610bd7565b60405161019591906133f2565b34801561024857600080fd5b506101e0610257366004613362565b610cc6565b34801561026857600080fd5b506101e06102773660046134f7565b610dc2565b34801561028857600080fd5b506101b3610ef5565b34801561029d57600080fd5b506101e0611317565b3480156102b257600080fd5b506101e06102c1366004613362565b61132b565b3480156102d257600080fd5b506102dc60035481565b604051908152602001610195565b3480156102f657600080fd5b506000546040516001600160a01b039091168152602001610195565b34801561031e57600080fd5b5061022f61144e565b34801561033357600080fd5b506101b36116f2565b34801561034857600080fd5b50610189610357366004613362565b600090815260086020908152604080832033845290915290205460ff1690565b34801561038357600080fd5b506101e0610392366004613362565b611ae8565b3480156103a357600080fd5b506101e06103b2366004613589565b611bd2565b3480156103c357600080fd5b506103d76103d2366004613362565b611d42565b60405161019591906135ab565b3480156103f057600080fd5b506101b3612000565b6101e06104073660046135c5565b61247b565b34801561041857600080fd5b506101e061042736600461364d565b612742565b34801561043857600080fd5b506101e0610447366004613362565b612a37565b34801561045857600080fd5b5061046c610467366004613362565b612c46565b6040516101959190613682565b34801561048557600080fd5b506101e06104943660046136b8565b612d78565b6060600060015b60025481116105235760008181526007602052604090205460ff1680156104d9575060008181526004602052604090206007015460ff16155b80156104fe57506000818152600460205260409020600201546001600160a01b031633145b15610511578161050d816136e9565b9250505b8061051b816136e9565b9150506104a0565b508067ffffffffffffffff81111561053d5761053d613454565b60405190808252806020026020018201604052801561057657816020015b610563612f76565b81526020019060019003908161055b5790505b509150600060015b60025481116108cc5760008181526007602052604090205460ff1680156105b7575060008181526004602052604090206007015460ff16155b80156105dc57506000818152600460205260409020600201546001600160a01b031633145b156108ba576000818152600460209081526040918290208251610180810184528154815260018201546001600160a01b039081169382019390935260028201549092169282019290925260038201805491929160608401919061063e90613704565b80601f016020809104026020016040519081016040528092919081815260200182805461066a90613704565b80156106b75780601f1061068c576101008083540402835291602001916106b7565b820191906000526020600020905b81548152906001019060200180831161069a57829003601f168201915b505050505081526020016004820180546106d090613704565b80601f01602080910402602001604051908101604052809291908181526020018280546106fc90613704565b80156107495780601f1061071e57610100808354040283529160200191610749565b820191906000526020600020905b81548152906001019060200180831161072c57829003601f168201915b5050505050815260200160058201805461076290613704565b80601f016020809104026020016040519081016040528092919081815260200182805461078e90613704565b80156107db5780601f106107b0576101008083540402835291602001916107db565b820191906000526020600020905b8154815290600101906020018083116107be57829003601f168201915b50505091835250506006820154602080830191909152600783015460ff9081161515604080850191909152600885015460608501526009850154808316151560808601526101009004909116151560a0840152600a8401805482518185028101850190935280835260c090940193919290919083018282801561088757602002820191906000526020600020905b81546001600160a01b03168152600190910190602001808311610869575b50505050508152505084838061089c906136e9565b9450815181106108ae576108ae61373f565b60200260200101819052505b806108c4816136e9565b91505061057e565b50505090565b60008181526007602052604090205460ff166109095760405162461bcd60e51b815260040161090090613755565b60405180910390fd5b6000818152600460205260409020600101546001600160a01b03163314156109675760405162461bcd60e51b8152602060048201526011602482015270466f7262696464656e20616374696f6e2160781b6044820152606401610900565b60008181526004602052604090206007015460ff16156109995760405162461bcd60e51b81526004016109009061378c565b60008181526004602052604090206009015460ff166109f55760405162461bcd60e51b81526020600482015260186024820152772a3434b9903537b1103430bb32903132b2b7103a30b5b2b760411b6044820152606401610900565b600081815260086020908152604080832033845290915290205460ff1615610a5f5760405162461bcd60e51b815260206004820152601d60248201527f596f75206861766520706c6163656420612062696420616c72656164790000006044820152606401610900565b610a67612fef565b600082815260066020526040902054610a819060016137c3565b8152602080820183815233604080850182815260008781526008865282812084825286528281208054600160ff19909116811790915588825260048752838220600a01805480830182559083528783200180546001600160a01b03199081169096179055978152600686529182208054808901825590835294909120945160039094029094019283559051938201939093559051600290910180549092166001600160a01b03909116179055565b606060056000838152602001908152602001600020805480602002602001604051908101604052809291908181526020016000905b82821015610bcc576000848152602090819020604080516080810182526003860290920180548352600180820154848601526002909101546001600160a01b03811692840192909252600160a01b90910460ff16151560608301529083529092019101610b64565b505050509050919050565b60008181526004602052604090206009015460609060ff168015610c09575060008281526007602052604090205460ff165b15610c8c57600082815260066020908152604080832080548251818502810185019093528083529193909284015b82821015610bcc576000848152602090819020604080516060810182526003860290920180548352600180820154848601526002909101546001600160a01b0316918301919091529083529092019101610c37565b6040805160008082526020820190925290610cbd565b610caa612fef565b815260200190600190039081610ca25790505b5090505b919050565b60008181526007602052604090205460ff16610cf45760405162461bcd60e51b815260040161090090613755565b60008181526004602052604090206009015460ff16610d4f5760405162461bcd60e51b81526020600482015260176024820152762a3434b9903537b1103430b9903132b2b7103a30b5b2b760491b6044820152606401610900565b60008181526004602052604090206007015460ff1615610d815760405162461bcd60e51b81526004016109009061378c565b6000818152600760209081526040808320805460ff19169055600490915290206001810154600690910154610dbf916001600160a01b031690612dee565b50565b60008481526007602052604090205460ff16610df05760405162461bcd60e51b815260040161090090613755565b60008481526004602052604090206009015460ff16610e4b5760405162461bcd60e51b81526020600482015260176024820152762a3434b9903537b1103430b9903132b2b7103a30b5b2b760491b6044820152606401610900565b60008481526004602052604090206007015460ff1615610e7d5760405162461bcd60e51b81526004016109009061378c565b60008481526004602090815260409091208451610ea292600390920191860190613019565b5060008481526004602081815260409092208451610ec893919092019190850190613019565b5060008481526004602090815260409091208251610eee92600590920191840190613019565b5050505050565b606060008060015b6002548111610f785760008181526007602052604090205460ff168015610f35575060008181526004602052604090206009015460ff165b8015610f53575060008181526004602052604090206007015460ff16155b15610f665782610f62816136e9565b9350505b80610f70816136e9565b915050610efd565b508167ffffffffffffffff811115610f9257610f92613454565b604051908082528060200260200182016040528015610fcb57816020015b610fb8612f76565b815260200190600190039081610fb05790505b50925060015b60025481116108cc5760008181526007602052604090205460ff168015611009575060008181526004602052604090206009015460ff165b8015611027575060008181526004602052604090206007015460ff16155b15611305576000818152600460209081526040918290208251610180810184528154815260018201546001600160a01b039081169382019390935260028201549092169282019290925260038201805491929160608401919061108990613704565b80601f01602080910402602001604051908101604052809291908181526020018280546110b590613704565b80156111025780601f106110d757610100808354040283529160200191611102565b820191906000526020600020905b8154815290600101906020018083116110e557829003601f168201915b5050505050815260200160048201805461111b90613704565b80601f016020809104026020016040519081016040528092919081815260200182805461114790613704565b80156111945780601f1061116957610100808354040283529160200191611194565b820191906000526020600020905b81548152906001019060200180831161117757829003601f168201915b505050505081526020016005820180546111ad90613704565b80601f01602080910402602001604051908101604052809291908181526020018280546111d990613704565b80156112265780601f106111fb57610100808354040283529160200191611226565b820191906000526020600020905b81548152906001019060200180831161120957829003601f168201915b50505091835250506006820154602080830191909152600783015460ff9081161515604080850191909152600885015460608501526009850154808316151560808601526101009004909116151560a0840152600a8401805482518185028101850190935280835260c09094019391929091908301828280156112d257602002820191906000526020600020905b81546001600160a01b031681526001909101906020018083116112b4575b5050505050815250508483806112e7906136e9565b9450815181106112f9576112f961373f565b60200260200101819052505b8061130f816136e9565b915050610fd1565b61131f612e53565b6113296000612ead565b565b60008181526004602052604090206001015481906001600160a01b031633146113665760405162461bcd60e51b8152600401610900906137db565b60008281526007602052604090205460ff166113945760405162461bcd60e51b815260040161090090613755565b600082815260046020526040902060090154610100900460ff16156113fb5760405162461bcd60e51b815260206004820152601960248201527f54686973206a6f6220616c7265616479206469737075746564000000000000006044820152606401610900565b60008281526004602052604090206007015460ff161561142d5760405162461bcd60e51b81526004016109009061378c565b506000908152600460205260409020600901805461ff001916610100179055565b6060600061145b60025490565b67ffffffffffffffff81111561147357611473613454565b6040519080825280602002602001820160405280156114ac57816020015b611499612fef565b8152602001906001900390816114915790505b509050600060015b60025481116116475760008181526007602052604090205460ff1680156114ec575060008181526004602052604090206009015460ff165b801561150a575060008181526004602052604090206007015460ff16155b1561163557600081815260086020908152604080832033845290915290205460ff16156116355760005b60008281526006602052604090205481101561163357600082815260066020526040902080543391908390811061156d5761156d61373f565b60009182526020909120600260039092020101546001600160a01b031614156116215760008281526006602052604090208054829081106115b0576115b061373f565b6000918252602091829020604080516060810182526003909302909101805483526001810154938301939093526002909201546001600160a01b03169181019190915284518590859081106116075761160761373f565b6020026020010181905250828061161d906136e9565b9350505b8061162b816136e9565b915050611534565b505b8061163f816136e9565b9150506114b4565b508067ffffffffffffffff81111561166157611661613454565b60405190808252806020026020018201604052801561169a57816020015b611687612fef565b81526020019060019003908161167f5790505b50925060005b818110156108cc578281815181106116ba576116ba61373f565b60200260200101518482815181106116d4576116d461373f565b602002602001018190525080806116ea906136e9565b9150506116a0565b606060008060015b600254811161175f5760008181526007602052604090205460ff16801561173a57506000818152600460205260409020600101546001600160a01b031633145b1561174d5782611749816136e9565b9350505b80611757816136e9565b9150506116fa565b508167ffffffffffffffff81111561177957611779613454565b6040519080825280602002602001820160405280156117b257816020015b61179f612f76565b8152602001906001900390816117975790505b50925060015b60025481116108cc5760008181526007602052604090205460ff1680156117f857506000818152600460205260409020600101546001600160a01b031633145b15611ad6576000818152600460209081526040918290208251610180810184528154815260018201546001600160a01b039081169382019390935260028201549092169282019290925260038201805491929160608401919061185a90613704565b80601f016020809104026020016040519081016040528092919081815260200182805461188690613704565b80156118d35780601f106118a8576101008083540402835291602001916118d3565b820191906000526020600020905b8154815290600101906020018083116118b657829003601f168201915b505050505081526020016004820180546118ec90613704565b80601f016020809104026020016040519081016040528092919081815260200182805461191890613704565b80156119655780601f1061193a57610100808354040283529160200191611965565b820191906000526020600020905b81548152906001019060200180831161194857829003601f168201915b5050505050815260200160058201805461197e90613704565b80601f01602080910402602001604051908101604052809291908181526020018280546119aa90613704565b80156119f75780601f106119cc576101008083540402835291602001916119f7565b820191906000526020600020905b8154815290600101906020018083116119da57829003601f168201915b50505091835250506006820154602080830191909152600783015460ff9081161515604080850191909152600885015460608501526009850154808316151560808601526101009004909116151560a0840152600a8401805482518185028101850190935280835260c0909401939192909190830182828015611aa357602002820191906000526020600020905b81546001600160a01b03168152600190910190602001808311611a85575b505050505081525050848380611ab8906136e9565b945081518110611aca57611aca61373f565b60200260200101819052505b80611ae0816136e9565b9150506117b8565b611af0612e53565b60008181526007602052604090205460ff16611b1e5760405162461bcd60e51b815260040161090090613755565b600081815260046020526040902060090154610100900460ff16611b845760405162461bcd60e51b815260206004820152601b60248201527f54686973206a6f62206d757374206265206f6e206469737075746500000000006044820152606401610900565b60008181526004602052604090206007015460ff1615611bb65760405162461bcd60e51b81526004016109009061378c565b6000908152600460205260409020600901805461ff0019169055565b611bda612e53565b60008281526007602052604090205460ff16611c085760405162461bcd60e51b815260040161090090613755565b600082815260046020526040902060090154610100900460ff16611c6e5760405162461bcd60e51b815260206004820152601b60248201527f54686973206a6f62206d757374206265206f6e206469737075746500000000006044820152606401610900565b60008281526004602052604090206007015460ff1615611ca05760405162461bcd60e51b81526004016109009061378c565b6000828152600560205260408120805483908110611cc057611cc061373f565b600091825260208083206002600390930201828101805460ff60a01b191690558684526004909152604090922090810180546001600160a01b03191690556001810154600690910154919250611d22916001600160a01b039190911690612dee565b50506000908152600460205260409020600901805460ff19166001179055565b611d4a612f76565b6000828152600460209081526040918290208251610180810184528154815260018201546001600160a01b0390811693820193909352600282015490921692820192909252600382018054919291606084019190611da790613704565b80601f0160208091040260200160405190810160405280929190818152602001828054611dd390613704565b8015611e205780601f10611df557610100808354040283529160200191611e20565b820191906000526020600020905b815481529060010190602001808311611e0357829003601f168201915b50505050508152602001600482018054611e3990613704565b80601f0160208091040260200160405190810160405280929190818152602001828054611e6590613704565b8015611eb25780601f10611e8757610100808354040283529160200191611eb2565b820191906000526020600020905b815481529060010190602001808311611e9557829003601f168201915b50505050508152602001600582018054611ecb90613704565b80601f0160208091040260200160405190810160405280929190818152602001828054611ef790613704565b8015611f445780601f10611f1957610100808354040283529160200191611f44565b820191906000526020600020905b815481529060010190602001808311611f2757829003601f168201915b50505091835250506006820154602080830191909152600783015460ff9081161515604080850191909152600885015460608501526009850154808316151560808601526101009004909116151560a0840152600a8401805482518185028101850190935280835260c0909401939192909190830182828015611ff057602002820191906000526020600020905b81546001600160a01b03168152600190910190602001808311611fd2575b5050505050815250509050919050565b6060600061200d60025490565b67ffffffffffffffff81111561202557612025613454565b60405190808252806020026020018201604052801561205e57816020015b61204b612f76565b8152602001906001900390816120435790505b509050600060015b60025481116123d05760008181526007602052604090205460ff16801561209e575060008181526004602052604090206009015460ff165b80156120bc575060008181526004602052604090206007015460ff16155b156123be57600081815260086020908152604080832033845290915290205460ff16156123be576000818152600460209081526040918290208251610180810184528154815260018201546001600160a01b039081169382019390935260028201549092169282019290925260038201805491929160608401919061214090613704565b80601f016020809104026020016040519081016040528092919081815260200182805461216c90613704565b80156121b95780601f1061218e576101008083540402835291602001916121b9565b820191906000526020600020905b81548152906001019060200180831161219c57829003601f168201915b505050505081526020016004820180546121d290613704565b80601f01602080910402602001604051908101604052809291908181526020018280546121fe90613704565b801561224b5780601f106122205761010080835404028352916020019161224b565b820191906000526020600020905b81548152906001019060200180831161222e57829003601f168201915b5050505050815260200160058201805461226490613704565b80601f016020809104026020016040519081016040528092919081815260200182805461229090613704565b80156122dd5780601f106122b2576101008083540402835291602001916122dd565b820191906000526020600020905b8154815290600101906020018083116122c057829003601f168201915b50505091835250506006820154602080830191909152600783015460ff9081161515604080850191909152600885015460608501526009850154808316151560808601526101009004909116151560a0840152600a8401805482518185028101850190935280835260c090940193919290919083018282801561238957602002820191906000526020600020905b81546001600160a01b0316815260019091019060200180831161236b575b5050505050815250508383815181106123a4576123a461373f565b602002602001018190525081806123ba906136e9565b9250505b806123c8816136e9565b915050612066565b508067ffffffffffffffff8111156123ea576123ea613454565b60405190808252806020026020018201604052801561242357816020015b612410612f76565b8152602001906001900390816124085790505b50925060005b818110156108cc578281815181106124435761244361373f565b602002602001015184828151811061245d5761245d61373f565b60200260200101819052508080612473906136e9565b915050612429565b60008351116124cc5760405162461bcd60e51b815260206004820152601a60248201527f506c656173652070726f766964652061206a6f62207469746c650000000000006044820152606401610900565b600082511161251d5760405162461bcd60e51b815260206004820152601c60248201527f506c656173652070726f766964652061206465736372697074696f6e000000006044820152606401610900565b60008151116125645760405162461bcd60e51b8152602060048201526013602482015272506c656173652070726f76696465207461677360681b6044820152606401610900565b600034116125a95760405162461bcd60e51b8152602060048201526012602482015271496e73756666696369656e742066756e647360701b6044820152606401610900565b6125b7600280546001019055565b60006125c260025490565b90506125cc612f76565b818152336020820152606081018590526080810184905260a081018390523460c08201526001610120820152612600612efd565b61010082015260008281526004602090815260409182902083518155818401516001820180546001600160a01b03199081166001600160a01b0393841617909155938501516002830180549095169116179092556060830151805184939261266f926003850192910190613019565b506080820151805161268b916004840191602090910190613019565b5060a082015180516126a7916005840191602090910190613019565b5060c0820151600682015560e082015160078201805460ff191691151591909117905561010080830151600883015561012083015160098301805461014086015161ffff1990911692151561ff00191692909217911515909202179055610160820151805161272091600a84019160209091019061309d565b505050600091825250600760205260409020805460ff19166001179055505050565b60008281526004602052604090206001015482906001600160a01b0316331461277d5760405162461bcd60e51b8152600401610900906137db565b60008381526007602052604090205460ff166127ab5760405162461bcd60e51b815260040161090090613755565b60008381526004602052604090206009015460ff166128075760405162461bcd60e51b81526020600482015260186024820152772a3434b9903537b1103430bb32903132b2b7103a30b5b2b760411b6044820152606401610900565b60008381526004602052604090206007015460ff16156128395760405162461bcd60e51b81526004016109009061378c565b60008381526008602090815260408083206001600160a01b038616845290915290205460ff166128a15760405162461bcd60e51b81526020600482015260136024820152722ab724b232b73a34b334b2b2103134b23232b960691b6044820152606401610900565b6128a96130f2565b600084815260056020818152604080842080548087528684018a81526001600160a01b03808b16898601818152600160608c018181529989528086018755958a52878a208b5160039096020194855592519484019490945590516002928301805497511515600160a01b026001600160a81b03199098169190921617959095179094558885526004909252832090910180546001600160a01b03191690911790555b600085815260066020526040902054811015612a175760008581526006602052604090208054879190839081106129845761298461373f565b90600052602060002090600302016000015414612a05576000858152600860209081526040808320600690925282208054839190859081106129c8576129c861373f565b60009182526020808320600392909202909101600201546001600160a01b031683528201929092526040019020805460ff19169115159190911790555b80612a0f816136e9565b91505061294b565b505050600091825250600460205260409020600901805460ff1916905550565b612a3f612f1c565b60008181526004602052604090206001015481906001600160a01b03163314612a7a5760405162461bcd60e51b8152600401610900906137db565b60008281526007602052604090205460ff16612aa85760405162461bcd60e51b815260040161090090613755565b60008281526004602052604090206009015460ff1615612b0a5760405162461bcd60e51b815260206004820152601b60248201527f54686973206a6f6220686173206e6f74206265656e2074616b656e00000000006044820152606401610900565b600082815260046020526040902060090154610100900460ff1615612b715760405162461bcd60e51b815260206004820152601f60248201527f54686973206a6f62206d757374206e6f74206265206f6e2064697370757465006044820152606401610900565b60008281526004602052604090206007015460ff1615612ba35760405162461bcd60e51b81526004016109009061378c565b600082815260046020526040812060060154600354909190606490612bc89084613808565b612bd29190613827565b600085815260046020526040902060020154909150612c03906001600160a01b0316612bfe8385613849565b612dee565b612c1e612c186000546001600160a01b031690565b82612dee565b5050506000818152600460205260409020600701805460ff19166001179055610dbf60018055565b612c4e6130f2565b60008281526007602052604090205460ff16612c7c5760405162461bcd60e51b815260040161090090613755565b60005b600083815260056020526040902054811015612d69576000838152600560205260409020805482908110612cb557612cb561373f565b906000526020600020906003020160020160149054906101000a900460ff1615612d57576000838152600560205260409020805482908110612cf957612cf961373f565b600091825260209182902060408051608081018252600393909302909101805483526001810154938301939093526002909201546001600160a01b03811692820192909252600160a01b90910460ff16151560608201529392505050565b80612d61816136e9565b915050612c7f565b50612d726130f2565b92915050565b612d80612e53565b6001600160a01b038116612de55760405162461bcd60e51b815260206004820152602660248201527f4f776e61626c653a206e6577206f776e657220697320746865207a65726f206160448201526564647265737360d01b6064820152608401610900565b610dbf81612ead565b6000826001600160a01b03168260405160006040518083038185875af1925050503d8060008114612e3b576040519150601f19603f3d011682016040523d82523d6000602084013e612e40565b606091505b5050905080612e4e57600080fd5b505050565b6000546001600160a01b031633146113295760405162461bcd60e51b815260206004820181905260248201527f4f776e61626c653a2063616c6c6572206973206e6f7420746865206f776e65726044820152606401610900565b600080546001600160a01b038381166001600160a01b0319831681178455604051919092169283917f8be0079c531659141344cd1fd0a4f28419497f9722a3daafe3b4186f6b6457e09190a35050565b6000612f0b426103e8613808565b612f17906103e86137c3565b905090565b60026001541415612f6f5760405162461bcd60e51b815260206004820152601f60248201527f5265656e7472616e637947756172643a207265656e7472616e742063616c6c006044820152606401610900565b6002600155565b6040518061018001604052806000815260200160006001600160a01b0316815260200160006001600160a01b031681526020016060815260200160608152602001606081526020016000815260200160001515815260200160008152602001600015158152602001600015158152602001606081525090565b6040518060600160405280600081526020016000815260200160006001600160a01b031681525090565b82805461302590613704565b90600052602060002090601f016020900481019282613047576000855561308d565b82601f1061306057805160ff191683800117855561308d565b8280016001018555821561308d579182015b8281111561308d578251825591602001919060010190613072565b50613099929150613125565b5090565b82805482825590600052602060002090810192821561308d579160200282015b8281111561308d57825182546001600160a01b0319166001600160a01b039091161782556020909201916001909101906130bd565b6040518060800160405280600081526020016000815260200160006001600160a01b031681526020016000151581525090565b5b808211156130995760008155600101613126565b80356001600160a01b0381168114610cc157600080fd5b6000806040838503121561316457600080fd5b823591506131746020840161313a565b90509250929050565b6000815180845260005b818110156131a357602081850181015186830182015201613187565b818111156131b5576000602083870101525b50601f01601f19169290920160200192915050565b600081518084526020808501945080840160005b838110156132035781516001600160a01b0316875295820195908201906001016131de565b509495945050505050565b600061018082518452602083015161323160208601826001600160a01b03169052565b50604083015161324c60408601826001600160a01b03169052565b5060608301518160608601526132648286018261317d565b9150506080830151848203608086015261327e828261317d565b91505060a083015184820360a0860152613298828261317d565b91505060c083015160c085015260e08301516132b860e086018215159052565b506101008381015190850152610120808401511515908501526101408084015115159085015261016080840151858303828701526132f683826131ca565b9695505050505050565b6000602080830181845280855180835260408601915060408160051b870101925083870160005b8281101561335557603f1988860301845261334385835161320e565b94509285019290850190600101613327565b5092979650505050505050565b60006020828403121561337457600080fd5b5035919050565b6020808252825182820181905260009190848201906040850190845b818110156133e6576133d383855180518252602080820151908301526040808201516001600160a01b0316908301526060908101511515910152565b9284019260809290920191600101613397565b50909695505050505050565b602080825282518282018190526000919060409081850190868401855b828110156134475781518051855286810151878601528501516001600160a01b0316858501526060909301929085019060010161340f565b5091979650505050505050565b634e487b7160e01b600052604160045260246000fd5b600082601f83011261347b57600080fd5b813567ffffffffffffffff8082111561349657613496613454565b604051601f8301601f19908116603f011681019082821181831017156134be576134be613454565b816040528381528660208588010111156134d757600080fd5b836020870160208301376000602085830101528094505050505092915050565b6000806000806080858703121561350d57600080fd5b84359350602085013567ffffffffffffffff8082111561352c57600080fd5b6135388883890161346a565b9450604087013591508082111561354e57600080fd5b61355a8883890161346a565b9350606087013591508082111561357057600080fd5b5061357d8782880161346a565b91505092959194509250565b6000806040838503121561359c57600080fd5b50508035926020909101359150565b6020815260006135be602083018461320e565b9392505050565b6000806000606084860312156135da57600080fd5b833567ffffffffffffffff808211156135f257600080fd5b6135fe8783880161346a565b9450602086013591508082111561361457600080fd5b6136208783880161346a565b9350604086013591508082111561363657600080fd5b506136438682870161346a565b9150509250925092565b60008060006060848603121561366257600080fd5b83359250602084013591506136796040850161313a565b90509250925092565b81518152602080830151908201526040808301516001600160a01b03169082015260608083015115159082015260808101612d72565b6000602082840312156136ca57600080fd5b6135be8261313a565b634e487b7160e01b600052601160045260246000fd5b60006000198214156136fd576136fd6136d3565b5060010190565b600181811c9082168061371857607f821691505b6020821081141561373957634e487b7160e01b600052602260045260246000fd5b50919050565b634e487b7160e01b600052603260045260246000fd5b6020808252601e908201527f54686973206a6f62206c697374696e6720646f65736e27742065786973740000604082015260600190565b6020808252601a908201527f54686973206a6f6220686173206265656e2070616964206f7574000000000000604082015260600190565b600082198211156137d6576137d66136d3565b500190565b602080825260139082015272556e617574686f72697a656420656e7469747960681b604082015260600190565b6000816000190483118215151615613822576138226136d3565b500290565b60008261384457634e487b7160e01b600052601260045260246000fd5b500490565b60008282101561385b5761385b6136d3565b50039056fea2646970667358221220a412bf57e82b689d7f4e0923e1cb957fa3055c5519d3094ccabbac5cd57f745b64736f6c634300080b0033",
  "linkReferences": {},
  "deployedLinkReferences": {}
}