{
  "_format": "hh-sol-artifact-1",
  "contractName": "DappWorks",
  "sourceName": "src/contracts/DappWorks.sol",
  "abi": [
    {
      "anonymous": false,
      "inputs": [
        {
          "indexed": true,
          "internalType": "address",
          "name": "previousOwner",
          "type": "address"
        },
        {
          "indexed": true,
          "internalType": "address",
          "name": "newOwner",
          "type": "address"
        }
      ],
      "name": "OwnershipTransferred",
      "type": "event"
    },
    {
      "inputs": [
        {
          "internalType": "uint256",
          "name": "id",
          "type": "uint256"
        },
        {
          "internalType": "uint256",
          "name": "jId",
          "type": "uint256"
        },
        {
          "internalType": "address",
          "name": "bidder",
          "type": "address"
        }
      ],
      "name": "acceptBid",
      "outputs": [],
      "stateMutability": "nonpayable",
      "type": "function"
    },
    {
      "inputs": [
        {
          "internalType": "string",
          "name": "jobTitle",
          "type": "string"
        },
        {
          "internalType": "string",
          "name": "description",
          "type": "string"
        },
        {
          "internalType": "string",
          "name": "tags",
          "type": "string"
        }
      ],
      "name": "addJobListing",
      "outputs": [],
      "stateMutability": "payable",
      "type": "function"
    },
    {
      "inputs": [
        {
          "internalType": "uint256",
          "name": "id",
          "type": "uint256"
        }
      ],
      "name": "bidForJob",
      "outputs": [],
      "stateMutability": "nonpayable",
      "type": "function"
    },
    {
      "inputs": [
        {
          "internalType": "uint256",
          "name": "id",
          "type": "uint256"
        }
      ],
      "name": "bidStatus",
      "outputs": [
        {
          "internalType": "bool",
          "name": "",
          "type": "bool"
        }
      ],
      "stateMutability": "view",
      "type": "function"
    },
    {
      "inputs": [
        {
          "internalType": "uint256",
          "name": "id",
          "type": "uint256"
        }
      ],
      "name": "deleteJob",
      "outputs": [],
      "stateMutability": "nonpayable",
      "type": "function"
    },
    {
      "inputs": [
        {
          "internalType": "uint256",
          "name": "id",
          "type": "uint256"
        }
      ],
      "name": "dispute",
      "outputs": [],
      "stateMutability": "nonpayable",
      "type": "function"
    },
    {
      "inputs": [
        {
          "internalType": "uint256",
          "name": "id",
          "type": "uint256"
        }
      ],
      "name": "getAcceptedFreelancer",
      "outputs": [
        {
          "components": [
            {
              "internalType": "uint256",
              "name": "id",
              "type": "uint256"
            },
            {
              "internalType": "uint256",
              "name": "jId",
              "type": "uint256"
            },
            {
              "internalType": "address",
              "name": "account",
              "type": "address"
            },
            {
              "internalType": "bool",
              "name": "isAssigned",
              "type": "bool"
            }
          ],
          "internalType": "struct DappWorks.FreelancerStruct",
          "name": "",
          "type": "tuple"
        }
      ],
      "stateMutability": "view",
      "type": "function"
    },
    {
      "inputs": [
        {
          "internalType": "uint256",
          "name": "id",
          "type": "uint256"
        }
      ],
      "name": "getBidders",
      "outputs": [
        {
          "components": [
            {
              "internalType": "uint256",
              "name": "id",
              "type": "uint256"
            },
            {
              "internalType": "uint256",
              "name": "jId",
              "type": "uint256"
            },
            {
              "internalType": "address",
              "name": "account",
              "type": "address"
            }
          ],
          "internalType": "struct DappWorks.BidStruct[]",
          "name": "Bidders",
          "type": "tuple[]"
        }
      ],
      "stateMutability": "view",
      "type": "function"
    },
    {
      "inputs": [
        {
          "internalType": "uint256",
          "name": "id",
          "type": "uint256"
        }
      ],
      "name": "getFreelancers",
      "outputs": [
        {
          "components": [
            {
              "internalType": "uint256",
              "name": "id",
              "type": "uint256"
            },
            {
              "internalType": "uint256",
              "name": "jId",
              "type": "uint256"
            },
            {
              "internalType": "address",
              "name": "account",
              "type": "address"
            },
            {
              "internalType": "bool",
              "name": "isAssigned",
              "type": "bool"
            }
          ],
          "internalType": "struct DappWorks.FreelancerStruct[]",
          "name": "",
          "type": "tuple[]"
        }
      ],
      "stateMutability": "view",
      "type": "function"
    },
    {
      "inputs": [
        {
          "internalType": "uint256",
          "name": "id",
          "type": "uint256"
        }
      ],
      "name": "getJob",
      "outputs": [
        {
          "components": [
            {
              "internalType": "uint256",
              "name": "id",
              "type": "uint256"
            },
            {
              "internalType": "address",
              "name": "owner",
              "type": "address"
            },
            {
              "internalType": "string",
              "name": "jobTitle",
              "type": "string"
            },
            {
              "internalType": "string",
              "name": "description",
              "type": "string"
            },
            {
              "internalType": "string",
              "name": "tags",
              "type": "string"
            },
            {
              "internalType": "uint256",
              "name": "prize",
              "type": "uint256"
            },
            {
              "internalType": "bool",
              "name": "paidOut",
              "type": "bool"
            },
            {
              "internalType": "uint256",
              "name": "timestamp",
              "type": "uint256"
            },
            {
              "internalType": "bool",
              "name": "listed",
              "type": "bool"
            },
            {
              "internalType": "bool",
              "name": "disputed",
              "type": "bool"
            }
          ],
          "internalType": "struct DappWorks.JobStruct",
          "name": "",
          "type": "tuple"
        }
      ],
      "stateMutability": "view",
      "type": "function"
    },
    {
      "inputs": [],
      "name": "getJobs",
      "outputs": [
        {
          "components": [
            {
              "internalType": "uint256",
              "name": "id",
              "type": "uint256"
            },
            {
              "internalType": "address",
              "name": "owner",
              "type": "address"
            },
            {
              "internalType": "string",
              "name": "jobTitle",
              "type": "string"
            },
            {
              "internalType": "string",
              "name": "description",
              "type": "string"
            },
            {
              "internalType": "string",
              "name": "tags",
              "type": "string"
            },
            {
              "internalType": "uint256",
              "name": "prize",
              "type": "uint256"
            },
            {
              "internalType": "bool",
              "name": "paidOut",
              "type": "bool"
            },
            {
              "internalType": "uint256",
              "name": "timestamp",
              "type": "uint256"
            },
            {
              "internalType": "bool",
              "name": "listed",
              "type": "bool"
            },
            {
              "internalType": "bool",
              "name": "disputed",
              "type": "bool"
            }
          ],
          "internalType": "struct DappWorks.JobStruct[]",
          "name": "ActiveJobs",
          "type": "tuple[]"
        }
      ],
      "stateMutability": "view",
      "type": "function"
    },
    {
      "inputs": [],
      "name": "getMyJobs",
      "outputs": [
        {
          "components": [
            {
              "internalType": "uint256",
              "name": "id",
              "type": "uint256"
            },
            {
              "internalType": "address",
              "name": "owner",
              "type": "address"
            },
            {
              "internalType": "string",
              "name": "jobTitle",
              "type": "string"
            },
            {
              "internalType": "string",
              "name": "description",
              "type": "string"
            },
            {
              "internalType": "string",
              "name": "tags",
              "type": "string"
            },
            {
              "internalType": "uint256",
              "name": "prize",
              "type": "uint256"
            },
            {
              "internalType": "bool",
              "name": "paidOut",
              "type": "bool"
            },
            {
              "internalType": "uint256",
              "name": "timestamp",
              "type": "uint256"
            },
            {
              "internalType": "bool",
              "name": "listed",
              "type": "bool"
            },
            {
              "internalType": "bool",
              "name": "disputed",
              "type": "bool"
            }
          ],
          "internalType": "struct DappWorks.JobStruct[]",
          "name": "MyJobs",
          "type": "tuple[]"
        }
      ],
      "stateMutability": "view",
      "type": "function"
    },
    {
      "inputs": [
        {
          "internalType": "uint256",
          "name": "",
          "type": "uint256"
        },
        {
          "internalType": "address",
          "name": "",
          "type": "address"
        }
      ],
      "name": "hasPlacedBid",
      "outputs": [
        {
          "internalType": "bool",
          "name": "",
          "type": "bool"
        }
      ],
      "stateMutability": "view",
      "type": "function"
    },
    {
      "inputs": [
        {
          "internalType": "uint256",
          "name": "",
          "type": "uint256"
        }
      ],
      "name": "isBidAccepted",
      "outputs": [
        {
          "internalType": "bool",
          "name": "",
          "type": "bool"
        }
      ],
      "stateMutability": "view",
      "type": "function"
    },
    {
      "inputs": [],
      "name": "owner",
      "outputs": [
        {
          "internalType": "address",
          "name": "",
          "type": "address"
        }
      ],
      "stateMutability": "view",
      "type": "function"
    },
    {
      "inputs": [
        {
          "internalType": "uint256",
          "name": "id",
          "type": "uint256"
        }
      ],
      "name": "payout",
      "outputs": [],
      "stateMutability": "nonpayable",
      "type": "function"
    },
    {
      "inputs": [],
      "name": "platformCharge",
      "outputs": [
        {
          "internalType": "uint256",
          "name": "",
          "type": "uint256"
        }
      ],
      "stateMutability": "view",
      "type": "function"
    },
    {
      "inputs": [],
      "name": "renounceOwnership",
      "outputs": [],
      "stateMutability": "nonpayable",
      "type": "function"
    },
    {
      "inputs": [
        {
          "internalType": "uint256",
          "name": "id",
          "type": "uint256"
        }
      ],
      "name": "resolved",
      "outputs": [],
      "stateMutability": "nonpayable",
      "type": "function"
    },
    {
      "inputs": [
        {
          "internalType": "uint256",
          "name": "jId",
          "type": "uint256"
        },
        {
          "internalType": "uint256",
          "name": "id",
          "type": "uint256"
        }
      ],
      "name": "revoke",
      "outputs": [],
      "stateMutability": "nonpayable",
      "type": "function"
    },
    {
      "inputs": [
        {
          "internalType": "address",
          "name": "newOwner",
          "type": "address"
        }
      ],
      "name": "transferOwnership",
      "outputs": [],
      "stateMutability": "nonpayable",
      "type": "function"
    },
    {
      "inputs": [
        {
          "internalType": "uint256",
          "name": "id",
          "type": "uint256"
        },
        {
          "internalType": "string",
          "name": "jobTitle",
          "type": "string"
        },
        {
          "internalType": "string",
          "name": "description",
          "type": "string"
        },
        {
          "internalType": "string",
          "name": "tags",
          "type": "string"
        }
      ],
      "name": "updateJob",
      "outputs": [],
      "stateMutability": "nonpayable",
      "type": "function"
    }
  ],
  "bytecode": "0x6080604052600560035534801561001557600080fd5b5061001f33610028565b60018055610078565b600080546001600160a01b038381166001600160a01b0319831681178455604051919092169283917f8be0079c531659141344cd1fd0a4f28419497f9722a3daafe3b4186f6b6457e09190a35050565b612b3580620000886000396000f3fe6080604052600436106101345760003560e01c80638da5cb5b116100ab578063bf22c4571161006f578063bf22c457146103a8578063d0909615146103d5578063def5e737146103e8578063e115234314610408578063eb361f8114610428578063f2fde38b1461045557600080fd5b80638da5cb5b146102f05780639b00214c14610318578063a7e2a3301461032d578063b9b7efb614610368578063be1b6fc61461038857600080fd5b80636358bb8c116100fd5780636358bb8c1461023557806365a990f01461025557806368581ebd14610275578063715018a61461029757806386d6282c146102ac5780638b142225146102cc57600080fd5b80620a106b146101395780632886762414610189578063474a2d15146101ab5780634b3f53e0146101db5780634fa7b50714610208575b600080fd5b34801561014557600080fd5b50610174610154366004612460565b600860209081526000928352604080842090915290825290205460ff1681565b60405190151581526020015b60405180910390f35b34801561019557600080fd5b506101a96101a436600461248c565b610475565b005b3480156101b757600080fd5b506101746101c636600461248c565b60096020526000908152604090205460ff1681565b3480156101e757600080fd5b506101fb6101f636600461248c565b6106d2565b60405161018091906124a5565b34801561021457600080fd5b5061022861022336600461248c565b61077a565b604051610180919061251c565b34801561024157600080fd5b506101a961025036600461248c565b6108a2565b34801561026157600080fd5b506101a9610270366004612621565b61099e565b34801561028157600080fd5b5061028a610ad1565b60405161018091906127c6565b3480156102a357600080fd5b506101a9610e7e565b3480156102b857600080fd5b506101a96102c736600461248c565b610e92565b3480156102d857600080fd5b506102e260035481565b604051908152602001610180565b3480156102fc57600080fd5b506000546040516001600160a01b039091168152602001610180565b34801561032457600080fd5b5061028a610fb5565b34801561033957600080fd5b5061017461034836600461248c565b600090815260086020908152604080832033845290915290205460ff1690565b34801561037457600080fd5b506101a961038336600461248c565b611330565b34801561039457600080fd5b506101a96103a3366004612828565b61141a565b3480156103b457600080fd5b506103c86103c336600461248c565b611577565b604051610180919061284a565b6101a96103e3366004612864565b6117ba565b3480156103f457600080fd5b506101a96104033660046128ec565b611a56565b34801561041457600080fd5b506101a961042336600461248c565b611d43565b34801561043457600080fd5b5061044861044336600461248c565b611feb565b6040516101809190612921565b34801561046157600080fd5b506101a9610470366004612957565b61211d565b60008181526007602052604090205460ff166104ac5760405162461bcd60e51b81526004016104a390612972565b60405180910390fd5b6000818152600460205260409020600101546001600160a01b031633141561050a5760405162461bcd60e51b8152602060048201526011602482015270466f7262696464656e20616374696f6e2160781b60448201526064016104a3565b60008181526004602052604090206006015460ff161561053c5760405162461bcd60e51b81526004016104a3906129a9565b60008181526004602052604090206008015460ff166105985760405162461bcd60e51b81526020600482015260186024820152772a3434b9903537b1103430bb32903132b2b7103a30b5b2b760411b60448201526064016104a3565b600081815260086020908152604080832033845290915290205460ff16156106025760405162461bcd60e51b815260206004820152601d60248201527f596f75206861766520706c6163656420612062696420616c726561647900000060448201526064016104a3565b61062f6040518060600160405280600081526020016000815260200160006001600160a01b031681525090565b6000828152600660205260409020546106499060016129f6565b815260208082018381523360408085018281526000878152600886528281209381529285528183208054600160ff19909116811790915596835260068552908220805480880182559083529390912093516003909302909301918255519281019290925551600290910180546001600160a01b0319166001600160a01b03909216919091179055565b606060056000838152602001908152602001600020805480602002602001604051908101604052809291908181526020016000905b8282101561076f576000848152602090819020604080516080810182526003860290920180548352600180820154848601526002909101546001600160a01b03811692840192909252600160a01b90910460ff16151560608301529083529092019101610707565b505050509050919050565b60008181526007602052604090205460609060ff166107ab5760405162461bcd60e51b81526004016104a390612972565b60008281526009602052604090205460ff161561081f576040805160008082526020820190925290610818565b6108056040518060600160405280600081526020016000815260200160006001600160a01b031681525090565b8152602001906001900390816107d85790505b5092915050565b600082815260066020908152604080832080548251818502810185019093528083529193909284015b8282101561076f576000848152602090819020604080516060810182526003860290920180548352600180820154848601526002909101546001600160a01b0316918301919091529083529092019101610848565b919050565b60008181526007602052604090205460ff166108d05760405162461bcd60e51b81526004016104a390612972565b60008181526004602052604090206008015460ff1661092b5760405162461bcd60e51b81526020600482015260176024820152762a3434b9903537b1103430b9903132b2b7103a30b5b2b760491b60448201526064016104a3565b60008181526004602052604090206006015460ff161561095d5760405162461bcd60e51b81526004016104a3906129a9565b6000818152600760209081526040808320805460ff1916905560049091529020600181015460059091015461099b916001600160a01b031690612193565b50565b60008481526007602052604090205460ff166109cc5760405162461bcd60e51b81526004016104a390612972565b60008481526004602052604090206008015460ff16610a275760405162461bcd60e51b81526020600482015260176024820152762a3434b9903537b1103430b9903132b2b7103a30b5b2b760491b60448201526064016104a3565b60008481526004602052604090206006015460ff1615610a595760405162461bcd60e51b81526004016104a3906129a9565b60008481526004602090815260409091208451610a7e9260029092019186019061231b565b5060008481526004602090815260409091208351610aa49260039092019185019061231b565b5060008481526004602081815260409092208351610aca9391909201919084019061231b565b5050505050565b606060008060015b6002548111610b545760008181526007602052604090205460ff168015610b11575060008181526004602052604090206008015460ff165b8015610b2f575060008181526004602052604090206006015460ff16155b15610b425782610b3e81612a0e565b9350505b80610b4c81612a0e565b915050610ad9565b508167ffffffffffffffff811115610b6e57610b6e61257e565b604051908082528060200260200182016040528015610ba757816020015b610b9461239f565b815260200190600190039081610b8c5790505b50925060015b6002548111610e785760008181526007602052604090205460ff168015610be5575060008181526004602052604090206008015460ff165b8015610c03575060008181526004602052604090206006015460ff16155b15610e66576000818152600460209081526040918290208251610140810184528154815260018201546001600160a01b0316928101929092526002810180549293919291840191610c5390612a29565b80601f0160208091040260200160405190810160405280929190818152602001828054610c7f90612a29565b8015610ccc5780601f10610ca157610100808354040283529160200191610ccc565b820191906000526020600020905b815481529060010190602001808311610caf57829003601f168201915b50505050508152602001600382018054610ce590612a29565b80601f0160208091040260200160405190810160405280929190818152602001828054610d1190612a29565b8015610d5e5780601f10610d3357610100808354040283529160200191610d5e565b820191906000526020600020905b815481529060010190602001808311610d4157829003601f168201915b50505050508152602001600482018054610d7790612a29565b80601f0160208091040260200160405190810160405280929190818152602001828054610da390612a29565b8015610df05780601f10610dc557610100808354040283529160200191610df0565b820191906000526020600020905b815481529060010190602001808311610dd357829003601f168201915b505050918352505060058201546020820152600682015460ff9081161515604083015260078301546060830152600890920154808316151560808301526101009004909116151560a0909101528483610e4881612a0e565b945081518110610e5a57610e5a612a64565b60200260200101819052505b80610e7081612a0e565b915050610bad565b50505090565b610e866121f8565b610e906000612252565b565b60008181526004602052604090206001015481906001600160a01b03163314610ecd5760405162461bcd60e51b81526004016104a390612a7a565b60008281526007602052604090205460ff16610efb5760405162461bcd60e51b81526004016104a390612972565b600082815260046020526040902060080154610100900460ff1615610f625760405162461bcd60e51b815260206004820152601960248201527f54686973206a6f6220616c72656164792064697370757465640000000000000060448201526064016104a3565b60008281526004602052604090206006015460ff1615610f945760405162461bcd60e51b81526004016104a3906129a9565b506000908152600460205260409020600801805461ff001916610100179055565b606060008060015b60025481116110225760008181526007602052604090205460ff168015610ffd57506000818152600460205260409020600101546001600160a01b031633145b15611010578261100c81612a0e565b9350505b8061101a81612a0e565b915050610fbd565b508167ffffffffffffffff81111561103c5761103c61257e565b60405190808252806020026020018201604052801561107557816020015b61106261239f565b81526020019060019003908161105a5790505b50925060015b6002548111610e785760008181526007602052604090205460ff1680156110bb57506000818152600460205260409020600101546001600160a01b031633145b1561131e576000818152600460209081526040918290208251610140810184528154815260018201546001600160a01b031692810192909252600281018054929391929184019161110b90612a29565b80601f016020809104026020016040519081016040528092919081815260200182805461113790612a29565b80156111845780601f1061115957610100808354040283529160200191611184565b820191906000526020600020905b81548152906001019060200180831161116757829003601f168201915b5050505050815260200160038201805461119d90612a29565b80601f01602080910402602001604051908101604052809291908181526020018280546111c990612a29565b80156112165780601f106111eb57610100808354040283529160200191611216565b820191906000526020600020905b8154815290600101906020018083116111f957829003601f168201915b5050505050815260200160048201805461122f90612a29565b80601f016020809104026020016040519081016040528092919081815260200182805461125b90612a29565b80156112a85780601f1061127d576101008083540402835291602001916112a8565b820191906000526020600020905b81548152906001019060200180831161128b57829003601f168201915b505050918352505060058201546020820152600682015460ff9081161515604083015260078301546060830152600890920154808316151560808301526101009004909116151560a090910152848361130081612a0e565b94508151811061131257611312612a64565b60200260200101819052505b8061132881612a0e565b91505061107b565b6113386121f8565b60008181526007602052604090205460ff166113665760405162461bcd60e51b81526004016104a390612972565b600081815260046020526040902060080154610100900460ff166113cc5760405162461bcd60e51b815260206004820152601b60248201527f54686973206a6f62206d757374206265206f6e2064697370757465000000000060448201526064016104a3565b60008181526004602052604090206006015460ff16156113fe5760405162461bcd60e51b81526004016104a3906129a9565b6000908152600460205260409020600801805461ff0019169055565b6114226121f8565b60008281526007602052604090205460ff166114505760405162461bcd60e51b81526004016104a390612972565b600082815260046020526040902060080154610100900460ff166114b65760405162461bcd60e51b815260206004820152601b60248201527f54686973206a6f62206d757374206265206f6e2064697370757465000000000060448201526064016104a3565b60008281526004602052604090206006015460ff16156114e85760405162461bcd60e51b81526004016104a3906129a9565b600082815260056020526040812080548390811061150857611508612a64565b600091825260208083206002600390930201918201805460ff60a01b191690558583526004905260409091206001810154600590910154919250611557916001600160a01b0390911690612193565b50506000908152600460205260409020600801805460ff19166001179055565b61157f61239f565b6000828152600460209081526040918290208251610140810184528154815260018201546001600160a01b03169281019290925260028101805492939192918401916115ca90612a29565b80601f01602080910402602001604051908101604052809291908181526020018280546115f690612a29565b80156116435780601f1061161857610100808354040283529160200191611643565b820191906000526020600020905b81548152906001019060200180831161162657829003601f168201915b5050505050815260200160038201805461165c90612a29565b80601f016020809104026020016040519081016040528092919081815260200182805461168890612a29565b80156116d55780601f106116aa576101008083540402835291602001916116d5565b820191906000526020600020905b8154815290600101906020018083116116b857829003601f168201915b505050505081526020016004820180546116ee90612a29565b80601f016020809104026020016040519081016040528092919081815260200182805461171a90612a29565b80156117675780601f1061173c57610100808354040283529160200191611767565b820191906000526020600020905b81548152906001019060200180831161174a57829003601f168201915b505050918352505060058201546020820152600682015460ff9081161515604083015260078301546060830152600890920154808316151560808301526101009004909116151560a09091015292915050565b600083511161180b5760405162461bcd60e51b815260206004820152601a60248201527f506c656173652070726f766964652061206a6f62207469746c6500000000000060448201526064016104a3565b600082511161185c5760405162461bcd60e51b815260206004820152601c60248201527f506c656173652070726f766964652061206465736372697074696f6e0000000060448201526064016104a3565b60008151116118a35760405162461bcd60e51b8152602060048201526013602482015272506c656173652070726f76696465207461677360681b60448201526064016104a3565b600034116118e85760405162461bcd60e51b8152602060048201526012602482015271496e73756666696369656e742066756e647360701b60448201526064016104a3565b6118f6600280546001019055565b600061190160025490565b905061190b61239f565b8181523360208201526040810185905260608101849052608081018390523460a0820152600161010082015261193f6122a2565b60e082015260008281526004602090815260409182902083518155818401516001820180546001600160a01b0319166001600160a01b0390921691909117905591830151805184939261199992600285019291019061231b565b50606082015180516119b591600384019160209091019061231b565b50608082015180516119d191600484019160209091019061231b565b5060a0820151600582015560c082015160068201805491151560ff1992831617905560e0830151600780840191909155610100808501516008909401805461012090960151151590910261ff00199415159490941661ffff19909516949094179290921790925560009384526020526040909220805490921660011790915550505050565b60008281526004602052604090206001015482906001600160a01b03163314611a915760405162461bcd60e51b81526004016104a390612a7a565b60008381526007602052604090205460ff16611abf5760405162461bcd60e51b81526004016104a390612972565b60008381526004602052604090206008015460ff16611b1b5760405162461bcd60e51b81526020600482015260186024820152772a3434b9903537b1103430bb32903132b2b7103a30b5b2b760411b60448201526064016104a3565b60008381526004602052604090206006015460ff1615611b4d5760405162461bcd60e51b81526004016104a3906129a9565b60008381526008602090815260408083206001600160a01b038616845290915290205460ff16611bb55760405162461bcd60e51b81526020600482015260136024820152722ab724b232b73a34b334b2b2103134b23232b960691b60448201526064016104a3565b611bbd612401565b600084815260056020818152604080842080548087528684018a81526001600160a01b03808b16948901948552600160608a0181815297875280840185559388529487208851600390930201918255519181019190915590516002909101805493511515600160a01b026001600160a81b031990941691909216179190911790555b600085815260066020526040902054811015611d0b576000858152600660205260409020805487919083908110611c7857611c78612a64565b90600052602060002090600302016000015414611cf957600085815260086020908152604080832060069092528220805483919085908110611cbc57611cbc612a64565b60009182526020808320600392909202909101600201546001600160a01b031683528201929092526040019020805460ff19169115159190911790555b80611d0381612a0e565b915050611c3f565b505050600091825250600460209081526040808320600801805460ff1990811690915560099092529091208054909116600117905550565b611d4b6122c1565b60008181526004602052604090206001015481906001600160a01b03163314611d865760405162461bcd60e51b81526004016104a390612a7a565b60008281526007602052604090205460ff16611db45760405162461bcd60e51b81526004016104a390612972565b60008281526004602052604090206008015460ff1615611e165760405162461bcd60e51b815260206004820152601b60248201527f54686973206a6f6220686173206e6f74206265656e2074616b656e000000000060448201526064016104a3565b600082815260046020526040902060080154610100900460ff1615611e7d5760405162461bcd60e51b815260206004820152601f60248201527f54686973206a6f62206d757374206e6f74206265206f6e20646973707574650060448201526064016104a3565b60008281526004602052604090206006015460ff1615611eaf5760405162461bcd60e51b81526004016104a3906129a9565b600082815260046020526040812060050154600354909190606490611ed49084612aa7565b611ede9190612ac6565b905060015b600085815260056020526040902054811015611fa7576000858152600560205260409020805482908110611f1957611f19612a64565b906000526020600020906003020160020160149054906101000a900460ff161515600115151415611f955760008581526005602052604090208054611f95919083908110611f6957611f69612a64565b60009182526020909120600260039092020101546001600160a01b0316611f908486612ae8565b612193565b80611f9f81612a0e565b915050611ee3565b50611fc3611fbd6000546001600160a01b031690565b82612193565b5050506000818152600460205260409020600601805460ff1916600117905561099b60018055565b611ff3612401565b60008281526007602052604090205460ff166120215760405162461bcd60e51b81526004016104a390612972565b60005b60008381526005602052604090205481101561210e57600083815260056020526040902080548290811061205a5761205a612a64565b906000526020600020906003020160020160149054906101000a900460ff16156120fc57600083815260056020526040902080548290811061209e5761209e612a64565b600091825260209182902060408051608081018252600393909302909101805483526001810154938301939093526002909201546001600160a01b03811692820192909252600160a01b90910460ff16151560608201529392505050565b8061210681612a0e565b915050612024565b50612117612401565b92915050565b6121256121f8565b6001600160a01b03811661218a5760405162461bcd60e51b815260206004820152602660248201527f4f776e61626c653a206e6577206f776e657220697320746865207a65726f206160448201526564647265737360d01b60648201526084016104a3565b61099b81612252565b6000826001600160a01b03168260405160006040518083038185875af1925050503d80600081146121e0576040519150601f19603f3d011682016040523d82523d6000602084013e6121e5565b606091505b50509050806121f357600080fd5b505050565b6000546001600160a01b03163314610e905760405162461bcd60e51b815260206004820181905260248201527f4f776e61626c653a2063616c6c6572206973206e6f7420746865206f776e657260448201526064016104a3565b600080546001600160a01b038381166001600160a01b0319831681178455604051919092169283917f8be0079c531659141344cd1fd0a4f28419497f9722a3daafe3b4186f6b6457e09190a35050565b60006122b0426103e8612aa7565b6122bc906103e86129f6565b905090565b600260015414156123145760405162461bcd60e51b815260206004820152601f60248201527f5265656e7472616e637947756172643a207265656e7472616e742063616c6c0060448201526064016104a3565b6002600155565b82805461232790612a29565b90600052602060002090601f016020900481019282612349576000855561238f565b82601f1061236257805160ff191683800117855561238f565b8280016001018555821561238f579182015b8281111561238f578251825591602001919060010190612374565b5061239b929150612434565b5090565b6040518061014001604052806000815260200160006001600160a01b0316815260200160608152602001606081526020016060815260200160008152602001600015158152602001600081526020016000151581526020016000151581525090565b6040518060800160405280600081526020016000815260200160006001600160a01b031681526020016000151581525090565b5b8082111561239b5760008155600101612435565b80356001600160a01b038116811461089d57600080fd5b6000806040838503121561247357600080fd5b8235915061248360208401612449565b90509250929050565b60006020828403121561249e57600080fd5b5035919050565b6020808252825182820181905260009190848201906040850190845b81811015612510576124fd83855180518252602080820151908301526040808201516001600160a01b0316908301526060908101511515910152565b92840192608092909201916001016124c1565b50909695505050505050565b602080825282518282018190526000919060409081850190868401855b828110156125715781518051855286810151878601528501516001600160a01b03168585015260609093019290850190600101612539565b5091979650505050505050565b634e487b7160e01b600052604160045260246000fd5b600082601f8301126125a557600080fd5b813567ffffffffffffffff808211156125c0576125c061257e565b604051601f8301601f19908116603f011681019082821181831017156125e8576125e861257e565b8160405283815286602085880101111561260157600080fd5b836020870160208301376000602085830101528094505050505092915050565b6000806000806080858703121561263757600080fd5b84359350602085013567ffffffffffffffff8082111561265657600080fd5b61266288838901612594565b9450604087013591508082111561267857600080fd5b61268488838901612594565b9350606087013591508082111561269a57600080fd5b506126a787828801612594565b91505092959194509250565b6000815180845260005b818110156126d9576020818501810151868301820152016126bd565b818111156126eb576000602083870101525b50601f01601f19169290920160200192915050565b600061014082518452602083015161272360208601826001600160a01b03169052565b50604083015181604086015261273b828601826126b3565b9150506060830151848203606086015261275582826126b3565b9150506080830151848203608086015261276f82826126b3565b91505060a083015160a085015260c083015161278f60c086018215159052565b5060e083015160e0850152610100808401516127ae8287018215159052565b50506101209283015115159390920192909252919050565b6000602080830181845280855180835260408601915060408160051b870101925083870160005b8281101561281b57603f19888603018452612809858351612700565b945092850192908501906001016127ed565b5092979650505050505050565b6000806040838503121561283b57600080fd5b50508035926020909101359150565b60208152600061285d6020830184612700565b9392505050565b60008060006060848603121561287957600080fd5b833567ffffffffffffffff8082111561289157600080fd5b61289d87838801612594565b945060208601359150808211156128b357600080fd5b6128bf87838801612594565b935060408601359150808211156128d557600080fd5b506128e286828701612594565b9150509250925092565b60008060006060848603121561290157600080fd5b833592506020840135915061291860408501612449565b90509250925092565b81518152602080830151908201526040808301516001600160a01b03169082015260608083015115159082015260808101612117565b60006020828403121561296957600080fd5b61285d82612449565b6020808252601e908201527f54686973206a6f62206c697374696e6720646f65736e27742065786973740000604082015260600190565b6020808252601a908201527f54686973206a6f6220686173206265656e2070616964206f7574000000000000604082015260600190565b634e487b7160e01b600052601160045260246000fd5b60008219821115612a0957612a096129e0565b500190565b6000600019821415612a2257612a226129e0565b5060010190565b600181811c90821680612a3d57607f821691505b60208210811415612a5e57634e487b7160e01b600052602260045260246000fd5b50919050565b634e487b7160e01b600052603260045260246000fd5b602080825260139082015272556e617574686f72697a656420656e7469747960681b604082015260600190565b6000816000190483118215151615612ac157612ac16129e0565b500290565b600082612ae357634e487b7160e01b600052601260045260246000fd5b500490565b600082821015612afa57612afa6129e0565b50039056fea26469706673582212201323aeb23f46df98db650efadef5e90925eeb87fb704b903eeeb7bf8b5c6802864736f6c634300080b0033",
  "linkReferences": {},
  "deployedLinkReferences": {}
}