{
  "_format": "hh-sol-artifact-1",
  "contractName": "DappWorks",
  "sourceName": "src/contracts/DappWorks.sol",
  "abi": [
    {
      "anonymous": false,
      "inputs": [
        {
          "indexed": true,
          "internalType": "address",
          "name": "previousOwner",
          "type": "address"
        },
        {
          "indexed": true,
          "internalType": "address",
          "name": "newOwner",
          "type": "address"
        }
      ],
      "name": "OwnershipTransferred",
      "type": "event"
    },
    {
      "inputs": [
        {
          "internalType": "uint256",
          "name": "jId",
          "type": "uint256"
        },
        {
          "internalType": "address",
          "name": "bidder",
          "type": "address"
        }
      ],
      "name": "acceptBid",
      "outputs": [],
      "stateMutability": "nonpayable",
      "type": "function"
    },
    {
      "inputs": [
        {
          "internalType": "string",
          "name": "jobTitle",
          "type": "string"
        },
        {
          "internalType": "string",
          "name": "description",
          "type": "string"
        },
        {
          "internalType": "string",
          "name": "tags",
          "type": "string"
        }
      ],
      "name": "addJobListing",
      "outputs": [],
      "stateMutability": "payable",
      "type": "function"
    },
    {
      "inputs": [
        {
          "internalType": "uint256",
          "name": "id",
          "type": "uint256"
        }
      ],
      "name": "bidForJob",
      "outputs": [],
      "stateMutability": "nonpayable",
      "type": "function"
    },
    {
      "inputs": [
        {
          "internalType": "uint256",
          "name": "id",
          "type": "uint256"
        }
      ],
      "name": "deleteJob",
      "outputs": [],
      "stateMutability": "nonpayable",
      "type": "function"
    },
    {
      "inputs": [
        {
          "internalType": "uint256",
          "name": "id",
          "type": "uint256"
        }
      ],
      "name": "dispute",
      "outputs": [],
      "stateMutability": "nonpayable",
      "type": "function"
    },
    {
      "inputs": [
        {
          "internalType": "uint256",
          "name": "id",
          "type": "uint256"
        }
      ],
      "name": "getAcceptedFreelancers",
      "outputs": [
        {
          "components": [
            {
              "internalType": "uint256",
              "name": "id",
              "type": "uint256"
            },
            {
              "internalType": "uint256",
              "name": "jId",
              "type": "uint256"
            },
            {
              "internalType": "address",
              "name": "freelancer",
              "type": "address"
            },
            {
              "internalType": "bool",
              "name": "isAssigned",
              "type": "bool"
            }
          ],
          "internalType": "struct DappWorks.FreelancerStruct[]",
          "name": "",
          "type": "tuple[]"
        }
      ],
      "stateMutability": "view",
      "type": "function"
    },
    {
      "inputs": [
        {
          "internalType": "uint256",
          "name": "id",
          "type": "uint256"
        }
      ],
      "name": "getBidders",
      "outputs": [
        {
          "components": [
            {
              "internalType": "uint256",
              "name": "jId",
              "type": "uint256"
            },
            {
              "internalType": "address",
              "name": "bidder",
              "type": "address"
            }
          ],
          "internalType": "struct DappWorks.BidStruct[]",
          "name": "Bidders",
          "type": "tuple[]"
        }
      ],
      "stateMutability": "view",
      "type": "function"
    },
    {
      "inputs": [
        {
          "internalType": "uint256",
          "name": "id",
          "type": "uint256"
        }
      ],
      "name": "getJob",
      "outputs": [
        {
          "components": [
            {
              "internalType": "uint256",
              "name": "id",
              "type": "uint256"
            },
            {
              "internalType": "address",
              "name": "owner",
              "type": "address"
            },
            {
              "internalType": "string",
              "name": "jobTitle",
              "type": "string"
            },
            {
              "internalType": "string",
              "name": "description",
              "type": "string"
            },
            {
              "internalType": "string",
              "name": "tags",
              "type": "string"
            },
            {
              "internalType": "uint256",
              "name": "prize",
              "type": "uint256"
            },
            {
              "internalType": "bool",
              "name": "paidOut",
              "type": "bool"
            },
            {
              "internalType": "uint256",
              "name": "timestamp",
              "type": "uint256"
            },
            {
              "internalType": "bool",
              "name": "listed",
              "type": "bool"
            },
            {
              "internalType": "bool",
              "name": "disputed",
              "type": "bool"
            }
          ],
          "internalType": "struct DappWorks.JobStruct",
          "name": "",
          "type": "tuple"
        }
      ],
      "stateMutability": "view",
      "type": "function"
    },
    {
      "inputs": [],
      "name": "getJobs",
      "outputs": [
        {
          "components": [
            {
              "internalType": "uint256",
              "name": "id",
              "type": "uint256"
            },
            {
              "internalType": "address",
              "name": "owner",
              "type": "address"
            },
            {
              "internalType": "string",
              "name": "jobTitle",
              "type": "string"
            },
            {
              "internalType": "string",
              "name": "description",
              "type": "string"
            },
            {
              "internalType": "string",
              "name": "tags",
              "type": "string"
            },
            {
              "internalType": "uint256",
              "name": "prize",
              "type": "uint256"
            },
            {
              "internalType": "bool",
              "name": "paidOut",
              "type": "bool"
            },
            {
              "internalType": "uint256",
              "name": "timestamp",
              "type": "uint256"
            },
            {
              "internalType": "bool",
              "name": "listed",
              "type": "bool"
            },
            {
              "internalType": "bool",
              "name": "disputed",
              "type": "bool"
            }
          ],
          "internalType": "struct DappWorks.JobStruct[]",
          "name": "ActiveJobs",
          "type": "tuple[]"
        }
      ],
      "stateMutability": "view",
      "type": "function"
    },
    {
      "inputs": [],
      "name": "owner",
      "outputs": [
        {
          "internalType": "address",
          "name": "",
          "type": "address"
        }
      ],
      "stateMutability": "view",
      "type": "function"
    },
    {
      "inputs": [
        {
          "internalType": "uint256",
          "name": "id",
          "type": "uint256"
        }
      ],
      "name": "payout",
      "outputs": [],
      "stateMutability": "nonpayable",
      "type": "function"
    },
    {
      "inputs": [],
      "name": "platformCharge",
      "outputs": [
        {
          "internalType": "uint256",
          "name": "",
          "type": "uint256"
        }
      ],
      "stateMutability": "view",
      "type": "function"
    },
    {
      "inputs": [],
      "name": "renounceOwnership",
      "outputs": [],
      "stateMutability": "nonpayable",
      "type": "function"
    },
    {
      "inputs": [
        {
          "internalType": "uint256",
          "name": "id",
          "type": "uint256"
        }
      ],
      "name": "resolved",
      "outputs": [],
      "stateMutability": "nonpayable",
      "type": "function"
    },
    {
      "inputs": [
        {
          "internalType": "uint256",
          "name": "jId",
          "type": "uint256"
        },
        {
          "internalType": "uint256",
          "name": "id",
          "type": "uint256"
        }
      ],
      "name": "revoke",
      "outputs": [],
      "stateMutability": "nonpayable",
      "type": "function"
    },
    {
      "inputs": [
        {
          "internalType": "address",
          "name": "newOwner",
          "type": "address"
        }
      ],
      "name": "transferOwnership",
      "outputs": [],
      "stateMutability": "nonpayable",
      "type": "function"
    },
    {
      "inputs": [
        {
          "internalType": "uint256",
          "name": "id",
          "type": "uint256"
        },
        {
          "internalType": "string",
          "name": "jobTitle",
          "type": "string"
        },
        {
          "internalType": "string",
          "name": "description",
          "type": "string"
        },
        {
          "internalType": "string",
          "name": "tags",
          "type": "string"
        }
      ],
      "name": "updateJob",
      "outputs": [],
      "stateMutability": "nonpayable",
      "type": "function"
    }
  ],
  "bytecode": "0x6080604052600560035534801561001557600080fd5b5061001f33610028565b60018055610078565b600080546001600160a01b038381166001600160a01b0319831681178455604051919092169283917f8be0079c531659141344cd1fd0a4f28419497f9722a3daafe3b4186f6b6457e09190a35050565b6122a1806100876000396000f3fe6080604052600436106100fe5760003560e01c806386d6282c11610095578063be1b6fc611610064578063be1b6fc6146102ab578063bf22c457146102cb578063d0909615146102f8578063e11523431461030b578063f2fde38b1461032b57600080fd5b806386d6282c1461021f5780638b1422251461023f5780638da5cb5b14610263578063b9b7efb61461028b57600080fd5b806365a990f0116100d157806365a990f01461019b57806368581ebd146101bb578063715018a6146101dd57806385e04cc6146101f257600080fd5b8063020686641461010357806328867624146101255780634fa7b507146101455780636358bb8c1461017b575b600080fd5b34801561010f57600080fd5b5061012361011e366004611c86565b61034b565b005b34801561013157600080fd5b50610123610140366004611cb2565b6104c0565b34801561015157600080fd5b50610165610160366004611cb2565b6105dc565b6040516101729190611ccb565b60405180910390f35b34801561018757600080fd5b50610123610196366004611cb2565b610689565b3480156101a757600080fd5b506101236101b6366004611dc6565b610785565b3480156101c757600080fd5b506101d06108b8565b6040516101729190611f68565b3480156101e957600080fd5b50610123610c48565b3480156101fe57600080fd5b5061021261020d366004611cb2565b610c5c565b6040516101729190611fca565b34801561022b57600080fd5b5061012361023a366004611cb2565b610e96565b34801561024b57600080fd5b5061025560035481565b604051908152602001610172565b34801561026f57600080fd5b506000546040516001600160a01b039091168152602001610172565b34801561029757600080fd5b506101236102a6366004611cb2565b610fdf565b3480156102b757600080fd5b506101236102c636600461202c565b6110c9565b3480156102d757600080fd5b506102eb6102e6366004611cb2565b611226565b604051610172919061204e565b610123610306366004612068565b611469565b34801561031757600080fd5b50610123610326366004611cb2565b611705565b34801561033757600080fd5b506101236103463660046120f0565b611971565b60008281526007602052604090205460ff166103825760405162461bcd60e51b81526004016103799061210b565b60405180910390fd5b60008281526004602052604090206008015460ff166103de5760405162461bcd60e51b81526020600482015260186024820152772a3434b9903537b1103430bb32903132b2b7103a30b5b2b760411b6044820152606401610379565b60008281526004602052604090206006015460ff16156104105760405162461bcd60e51b815260040161037990612142565b604080516080810182526000808252602080830182815283850183815260608501848152888552600580855287862080548089528b86526001600160a01b039a8b1685526001808552928752828101825590875285872097516003909102909701968755925192860192909255516002909401805491511515600160a01b026001600160a81b0319909216949096169390931792909217909355928252600490925220600801805460ff19169055565b60008181526007602052604090205460ff166104ee5760405162461bcd60e51b81526004016103799061210b565b60008181526004602052604090206006015460ff16156105205760405162461bcd60e51b815260040161037990612142565b60008181526004602052604090206008015460ff1661057c5760405162461bcd60e51b81526020600482015260186024820152772a3434b9903537b1103430bb32903132b2b7103a30b5b2b760411b6044820152606401610379565b604080518082018252828152336020808301918252600094855260068152928420805460018082018355918652939094209151600290930290910191825551910180546001600160a01b0319166001600160a01b03909216919091179055565b60008181526007602052604090205460609060ff1661060d5760405162461bcd60e51b81526004016103799061210b565b600082815260066020908152604080832080548251818502810185019093528083529193909284015b8282101561067e5760008481526020908190206040805180820190915260028502909101805482526001908101546001600160a01b0316828401529083529092019101610636565b505050509050919050565b60008181526007602052604090205460ff166106b75760405162461bcd60e51b81526004016103799061210b565b60008181526004602052604090206008015460ff166107125760405162461bcd60e51b81526020600482015260176024820152762a3434b9903537b1103430b9903132b2b7103a30b5b2b760491b6044820152606401610379565b60008181526004602052604090206006015460ff16156107445760405162461bcd60e51b815260040161037990612142565b6000818152600760209081526040808320805460ff19169055600490915290206001810154600590910154610782916001600160a01b0316906119e7565b50565b60008481526007602052604090205460ff166107b35760405162461bcd60e51b81526004016103799061210b565b60008481526004602052604090206008015460ff1661080e5760405162461bcd60e51b81526020600482015260176024820152762a3434b9903537b1103430b9903132b2b7103a30b5b2b760491b6044820152606401610379565b60008481526004602052604090206006015460ff16156108405760405162461bcd60e51b815260040161037990612142565b6000848152600460209081526040909120845161086592600290920191860190611b6f565b506000848152600460209081526040909120835161088b92600390920191850190611b6f565b50600084815260046020818152604090922083516108b193919092019190840190611b6f565b5050505050565b606060008060015b600254811161093b5760008181526007602052604090205460ff1680156108f8575060008181526004602052604090206008015460ff165b8015610916575060008181526004602052604090206006015460ff16155b1561092957826109258161218f565b9350505b806109338161218f565b9150506108c0565b508167ffffffffffffffff81111561095557610955611d23565b60405190808252806020026020018201604052801561098e57816020015b61097b611bf3565b8152602001906001900390816109735790505b50925060015b6002548111610c425760008181526007602052604090205460ff1680156109cd575060008181526004602052604090206006015460ff16155b15610c30576000818152600460209081526040918290208251610140810184528154815260018201546001600160a01b0316928101929092526002810180549293919291840191610a1d906121aa565b80601f0160208091040260200160405190810160405280929190818152602001828054610a49906121aa565b8015610a965780601f10610a6b57610100808354040283529160200191610a96565b820191906000526020600020905b815481529060010190602001808311610a7957829003601f168201915b50505050508152602001600382018054610aaf906121aa565b80601f0160208091040260200160405190810160405280929190818152602001828054610adb906121aa565b8015610b285780601f10610afd57610100808354040283529160200191610b28565b820191906000526020600020905b815481529060010190602001808311610b0b57829003601f168201915b50505050508152602001600482018054610b41906121aa565b80601f0160208091040260200160405190810160405280929190818152602001828054610b6d906121aa565b8015610bba5780601f10610b8f57610100808354040283529160200191610bba565b820191906000526020600020905b815481529060010190602001808311610b9d57829003601f168201915b505050918352505060058201546020820152600682015460ff9081161515604083015260078301546060830152600890920154808316151560808301526101009004909116151560a0909101528483610c128161218f565b945081518110610c2457610c246121e5565b60200260200101819052505b80610c3a8161218f565b915050610994565b50505090565b610c50611a4c565b610c5a6000611aa6565b565b60008181526007602052604090205460609060ff16610c8d5760405162461bcd60e51b81526004016103799061210b565b6000805b600084815260056020526040902054811015610d0b576000848152600560205260409020805482908110610cc757610cc76121e5565b906000526020600020906003020160020160149054906101000a900460ff1615610cf95781610cf58161218f565b9250505b80610d038161218f565b915050610c91565b5060008167ffffffffffffffff811115610d2757610d27611d23565b604051908082528060200260200182016040528015610d7957816020015b604080516080810182526000808252602080830182905292820181905260608201528252600019909201910181610d455790505b5090506000805b600086815260056020526040902054811015610e8c576000868152600560205260409020805482908110610db657610db66121e5565b906000526020600020906003020160020160149054906101000a900460ff1615610e7a576000868152600560205260409020805482908110610dfa57610dfa6121e5565b600091825260209182902060408051608081018252600393909302909101805483526001810154938301939093526002909201546001600160a01b03811692820192909252600160a01b90910460ff16151560608201528383610e5c8161218f565b945081518110610e6e57610e6e6121e5565b60200260200101819052505b80610e848161218f565b915050610d80565b5090949350505050565b60008181526004602052604090206001015481906001600160a01b03163314610ef75760405162461bcd60e51b8152602060048201526013602482015272556e617574686f72697a656420656e7469747960681b6044820152606401610379565b60008281526007602052604090205460ff16610f255760405162461bcd60e51b81526004016103799061210b565b600082815260046020526040902060080154610100900460ff1615610f8c5760405162461bcd60e51b815260206004820152601960248201527f54686973206a6f6220616c7265616479206469737075746564000000000000006044820152606401610379565b60008281526004602052604090206006015460ff1615610fbe5760405162461bcd60e51b815260040161037990612142565b506000908152600460205260409020600801805461ff001916610100179055565b610fe7611a4c565b60008181526007602052604090205460ff166110155760405162461bcd60e51b81526004016103799061210b565b600081815260046020526040902060080154610100900460ff1661107b5760405162461bcd60e51b815260206004820152601b60248201527f54686973206a6f62206d757374206265206f6e206469737075746500000000006044820152606401610379565b60008181526004602052604090206006015460ff16156110ad5760405162461bcd60e51b815260040161037990612142565b6000908152600460205260409020600801805461ff0019169055565b6110d1611a4c565b60008281526007602052604090205460ff166110ff5760405162461bcd60e51b81526004016103799061210b565b600082815260046020526040902060080154610100900460ff166111655760405162461bcd60e51b815260206004820152601b60248201527f54686973206a6f62206d757374206265206f6e206469737075746500000000006044820152606401610379565b60008281526004602052604090206006015460ff16156111975760405162461bcd60e51b815260040161037990612142565b60008281526005602052604081208054839081106111b7576111b76121e5565b600091825260208083206002600390930201918201805460ff60a01b191690558583526004905260409091206001810154600590910154919250611206916001600160a01b03909116906119e7565b50506000908152600460205260409020600801805460ff19166001179055565b61122e611bf3565b6000828152600460209081526040918290208251610140810184528154815260018201546001600160a01b0316928101929092526002810180549293919291840191611279906121aa565b80601f01602080910402602001604051908101604052809291908181526020018280546112a5906121aa565b80156112f25780601f106112c7576101008083540402835291602001916112f2565b820191906000526020600020905b8154815290600101906020018083116112d557829003601f168201915b5050505050815260200160038201805461130b906121aa565b80601f0160208091040260200160405190810160405280929190818152602001828054611337906121aa565b80156113845780601f1061135957610100808354040283529160200191611384565b820191906000526020600020905b81548152906001019060200180831161136757829003601f168201915b5050505050815260200160048201805461139d906121aa565b80601f01602080910402602001604051908101604052809291908181526020018280546113c9906121aa565b80156114165780601f106113eb57610100808354040283529160200191611416565b820191906000526020600020905b8154815290600101906020018083116113f957829003601f168201915b505050918352505060058201546020820152600682015460ff9081161515604083015260078301546060830152600890920154808316151560808301526101009004909116151560a09091015292915050565b60008351116114ba5760405162461bcd60e51b815260206004820152601a60248201527f506c656173652070726f766964652061206a6f62207469746c650000000000006044820152606401610379565b600082511161150b5760405162461bcd60e51b815260206004820152601c60248201527f506c656173652070726f766964652061206465736372697074696f6e000000006044820152606401610379565b60008151116115525760405162461bcd60e51b8152602060048201526013602482015272506c656173652070726f76696465207461677360681b6044820152606401610379565b600034116115975760405162461bcd60e51b8152602060048201526012602482015271496e73756666696369656e742066756e647360701b6044820152606401610379565b6115a5600280546001019055565b60006115b060025490565b90506115ba611bf3565b8181523360208201526040810185905260608101849052608081018390523460a082015260016101008201526115ee611af6565b60e082015260008281526004602090815260409182902083518155818401516001820180546001600160a01b0319166001600160a01b03909216919091179055918301518051849392611648926002850192910190611b6f565b5060608201518051611664916003840191602090910190611b6f565b5060808201518051611680916004840191602090910190611b6f565b5060a0820151600582015560c082015160068201805491151560ff1992831617905560e0830151600780840191909155610100808501516008909401805461012090960151151590910261ff00199415159490941661ffff19909516949094179290921790925560009384526020526040909220805490921660011790915550505050565b61170d611b15565b60008181526004602052604090206001015481906001600160a01b0316331461176e5760405162461bcd60e51b8152602060048201526013602482015272556e617574686f72697a656420656e7469747960681b6044820152606401610379565b60008281526007602052604090205460ff1661179c5760405162461bcd60e51b81526004016103799061210b565b600082815260046020526040902060080154610100900460ff16156118035760405162461bcd60e51b815260206004820152601f60248201527f54686973206a6f62206d757374206e6f74206265206f6e2064697370757465006044820152606401610379565b60008281526004602052604090206006015460ff16156118355760405162461bcd60e51b815260040161037990612142565b60008281526004602052604081206005015460035490919060649061185a90846121fb565b611864919061221a565b905060015b60008581526005602052604090205481101561192d57600085815260056020526040902080548290811061189f5761189f6121e5565b906000526020600020906003020160020160149054906101000a900460ff16151560011515141561191b576000858152600560205260409020805461191b9190839081106118ef576118ef6121e5565b60009182526020909120600260039092020101546001600160a01b0316611916848661223c565b6119e7565b806119258161218f565b915050611869565b506119496119436000546001600160a01b031690565b826119e7565b5050506000818152600460205260409020600601805460ff1916600117905561078260018055565b611979611a4c565b6001600160a01b0381166119de5760405162461bcd60e51b815260206004820152602660248201527f4f776e61626c653a206e6577206f776e657220697320746865207a65726f206160448201526564647265737360d01b6064820152608401610379565b61078281611aa6565b6000826001600160a01b03168260405160006040518083038185875af1925050503d8060008114611a34576040519150601f19603f3d011682016040523d82523d6000602084013e611a39565b606091505b5050905080611a4757600080fd5b505050565b6000546001600160a01b03163314610c5a5760405162461bcd60e51b815260206004820181905260248201527f4f776e61626c653a2063616c6c6572206973206e6f7420746865206f776e65726044820152606401610379565b600080546001600160a01b038381166001600160a01b0319831681178455604051919092169283917f8be0079c531659141344cd1fd0a4f28419497f9722a3daafe3b4186f6b6457e09190a35050565b6000611b04426103e86121fb565b611b10906103e8612253565b905090565b60026001541415611b685760405162461bcd60e51b815260206004820152601f60248201527f5265656e7472616e637947756172643a207265656e7472616e742063616c6c006044820152606401610379565b6002600155565b828054611b7b906121aa565b90600052602060002090601f016020900481019282611b9d5760008555611be3565b82601f10611bb657805160ff1916838001178555611be3565b82800160010185558215611be3579182015b82811115611be3578251825591602001919060010190611bc8565b50611bef929150611c55565b5090565b6040518061014001604052806000815260200160006001600160a01b0316815260200160608152602001606081526020016060815260200160008152602001600015158152602001600081526020016000151581526020016000151581525090565b5b80821115611bef5760008155600101611c56565b80356001600160a01b0381168114611c8157600080fd5b919050565b60008060408385031215611c9957600080fd5b82359150611ca960208401611c6a565b90509250929050565b600060208284031215611cc457600080fd5b5035919050565b602080825282518282018190526000919060409081850190868401855b82811015611d16578151805185528601516001600160a01b0316868501529284019290850190600101611ce8565b5091979650505050505050565b634e487b7160e01b600052604160045260246000fd5b600082601f830112611d4a57600080fd5b813567ffffffffffffffff80821115611d6557611d65611d23565b604051601f8301601f19908116603f01168101908282118183101715611d8d57611d8d611d23565b81604052838152866020858801011115611da657600080fd5b836020870160208301376000602085830101528094505050505092915050565b60008060008060808587031215611ddc57600080fd5b84359350602085013567ffffffffffffffff80821115611dfb57600080fd5b611e0788838901611d39565b94506040870135915080821115611e1d57600080fd5b611e2988838901611d39565b93506060870135915080821115611e3f57600080fd5b50611e4c87828801611d39565b91505092959194509250565b6000815180845260005b81811015611e7e57602081850181015186830182015201611e62565b81811115611e90576000602083870101525b50601f01601f19169290920160200192915050565b6000610140825184526020830151611ec860208601826001600160a01b03169052565b506040830151816040860152611ee082860182611e58565b91505060608301518482036060860152611efa8282611e58565b91505060808301518482036080860152611f148282611e58565b91505060a083015160a085015260c0830151611f3460c086018215159052565b5060e083015160e085015261010080840151611f538287018215159052565b50506101208381015180151586830152610e8c565b6000602080830181845280855180835260408601915060408160051b870101925083870160005b82811015611fbd57603f19888603018452611fab858351611ea5565b94509285019290850190600101611f8f565b5092979650505050505050565b602080825282518282018190526000919060409081850190868401855b82811015611d16578151805185528681015187860152858101516001600160a01b03168686015260609081015115159085015260809093019290850190600101611fe7565b6000806040838503121561203f57600080fd5b50508035926020909101359150565b6020815260006120616020830184611ea5565b9392505050565b60008060006060848603121561207d57600080fd5b833567ffffffffffffffff8082111561209557600080fd5b6120a187838801611d39565b945060208601359150808211156120b757600080fd5b6120c387838801611d39565b935060408601359150808211156120d957600080fd5b506120e686828701611d39565b9150509250925092565b60006020828403121561210257600080fd5b61206182611c6a565b6020808252601e908201527f54686973206a6f62206c697374696e6720646f65736e27742065786973740000604082015260600190565b6020808252601a908201527f54686973206a6f6220686173206265656e2070616964206f7574000000000000604082015260600190565b634e487b7160e01b600052601160045260246000fd5b60006000198214156121a3576121a3612179565b5060010190565b600181811c908216806121be57607f821691505b602082108114156121df57634e487b7160e01b600052602260045260246000fd5b50919050565b634e487b7160e01b600052603260045260246000fd5b600081600019048311821515161561221557612215612179565b500290565b60008261223757634e487b7160e01b600052601260045260246000fd5b500490565b60008282101561224e5761224e612179565b500390565b6000821982111561226657612266612179565b50019056fea264697066735822122088f076d3a7ceef1e86100fe191d783c2200ec26046a14393ce5b81c3a243c0c664736f6c634300080b0033",
  "linkReferences": {},
  "deployedLinkReferences": {}
}