{
  "_format": "hh-sol-artifact-1",
  "contractName": "DappWorks",
  "sourceName": "src/contracts/DappWorks.sol",
  "abi": [
    {
      "anonymous": false,
      "inputs": [
        {
          "indexed": true,
          "internalType": "address",
          "name": "previousOwner",
          "type": "address"
        },
        {
          "indexed": true,
          "internalType": "address",
          "name": "newOwner",
          "type": "address"
        }
      ],
      "name": "OwnershipTransferred",
      "type": "event"
    },
    {
      "inputs": [
        {
          "internalType": "uint256",
          "name": "id",
          "type": "uint256"
        },
        {
          "internalType": "uint256",
          "name": "jId",
          "type": "uint256"
        },
        {
          "internalType": "address",
          "name": "bidder",
          "type": "address"
        }
      ],
      "name": "acceptBid",
      "outputs": [],
      "stateMutability": "nonpayable",
      "type": "function"
    },
    {
      "inputs": [
        {
          "internalType": "string",
          "name": "jobTitle",
          "type": "string"
        },
        {
          "internalType": "string",
          "name": "description",
          "type": "string"
        },
        {
          "internalType": "string",
          "name": "tags",
          "type": "string"
        }
      ],
      "name": "addJobListing",
      "outputs": [],
      "stateMutability": "payable",
      "type": "function"
    },
    {
      "inputs": [
        {
          "internalType": "uint256",
          "name": "id",
          "type": "uint256"
        }
      ],
      "name": "bidForJob",
      "outputs": [],
      "stateMutability": "nonpayable",
      "type": "function"
    },
    {
      "inputs": [
        {
          "internalType": "uint256",
          "name": "id",
          "type": "uint256"
        }
      ],
      "name": "bidStatus",
      "outputs": [
        {
          "internalType": "bool",
          "name": "",
          "type": "bool"
        }
      ],
      "stateMutability": "view",
      "type": "function"
    },
    {
      "inputs": [
        {
          "internalType": "uint256",
          "name": "id",
          "type": "uint256"
        }
      ],
      "name": "deleteJob",
      "outputs": [],
      "stateMutability": "nonpayable",
      "type": "function"
    },
    {
      "inputs": [
        {
          "internalType": "uint256",
          "name": "id",
          "type": "uint256"
        }
      ],
      "name": "dispute",
      "outputs": [],
      "stateMutability": "nonpayable",
      "type": "function"
    },
    {
      "inputs": [
        {
          "internalType": "uint256",
          "name": "id",
          "type": "uint256"
        }
      ],
      "name": "getAcceptedFreelancer",
      "outputs": [
        {
          "components": [
            {
              "internalType": "uint256",
              "name": "id",
              "type": "uint256"
            },
            {
              "internalType": "uint256",
              "name": "jId",
              "type": "uint256"
            },
            {
              "internalType": "address",
              "name": "account",
              "type": "address"
            },
            {
              "internalType": "bool",
              "name": "isAssigned",
              "type": "bool"
            }
          ],
          "internalType": "struct DappWorks.FreelancerStruct",
          "name": "",
          "type": "tuple"
        }
      ],
      "stateMutability": "view",
      "type": "function"
    },
    {
      "inputs": [],
      "name": "getAssignedJobs",
      "outputs": [
        {
          "components": [
            {
              "internalType": "uint256",
              "name": "id",
              "type": "uint256"
            },
            {
              "internalType": "address",
              "name": "owner",
              "type": "address"
            },
            {
              "internalType": "string",
              "name": "jobTitle",
              "type": "string"
            },
            {
              "internalType": "string",
              "name": "description",
              "type": "string"
            },
            {
              "internalType": "string",
              "name": "tags",
              "type": "string"
            },
            {
              "internalType": "uint256",
              "name": "prize",
              "type": "uint256"
            },
            {
              "internalType": "bool",
              "name": "paidOut",
              "type": "bool"
            },
            {
              "internalType": "uint256",
              "name": "timestamp",
              "type": "uint256"
            },
            {
              "internalType": "bool",
              "name": "listed",
              "type": "bool"
            },
            {
              "internalType": "bool",
              "name": "disputed",
              "type": "bool"
            }
          ],
          "internalType": "struct DappWorks.JobStruct[]",
          "name": "AssignedJobs",
          "type": "tuple[]"
        }
      ],
      "stateMutability": "view",
      "type": "function"
    },
    {
      "inputs": [
        {
          "internalType": "uint256",
          "name": "id",
          "type": "uint256"
        }
      ],
      "name": "getBidders",
      "outputs": [
        {
          "components": [
            {
              "internalType": "uint256",
              "name": "id",
              "type": "uint256"
            },
            {
              "internalType": "uint256",
              "name": "jId",
              "type": "uint256"
            },
            {
              "internalType": "address",
              "name": "account",
              "type": "address"
            }
          ],
          "internalType": "struct DappWorks.BidStruct[]",
          "name": "Bidders",
          "type": "tuple[]"
        }
      ],
      "stateMutability": "view",
      "type": "function"
    },
    {
      "inputs": [],
      "name": "getBidsForBidder",
      "outputs": [
        {
          "components": [
            {
              "internalType": "uint256",
              "name": "id",
              "type": "uint256"
            },
            {
              "internalType": "uint256",
              "name": "jId",
              "type": "uint256"
            },
            {
              "internalType": "address",
              "name": "account",
              "type": "address"
            }
          ],
          "internalType": "struct DappWorks.BidStruct[]",
          "name": "Bids",
          "type": "tuple[]"
        }
      ],
      "stateMutability": "view",
      "type": "function"
    },
    {
      "inputs": [
        {
          "internalType": "uint256",
          "name": "id",
          "type": "uint256"
        }
      ],
      "name": "getFreelancers",
      "outputs": [
        {
          "components": [
            {
              "internalType": "uint256",
              "name": "id",
              "type": "uint256"
            },
            {
              "internalType": "uint256",
              "name": "jId",
              "type": "uint256"
            },
            {
              "internalType": "address",
              "name": "account",
              "type": "address"
            },
            {
              "internalType": "bool",
              "name": "isAssigned",
              "type": "bool"
            }
          ],
          "internalType": "struct DappWorks.FreelancerStruct[]",
          "name": "",
          "type": "tuple[]"
        }
      ],
      "stateMutability": "view",
      "type": "function"
    },
    {
      "inputs": [
        {
          "internalType": "uint256",
          "name": "id",
          "type": "uint256"
        }
      ],
      "name": "getJob",
      "outputs": [
        {
          "components": [
            {
              "internalType": "uint256",
              "name": "id",
              "type": "uint256"
            },
            {
              "internalType": "address",
              "name": "owner",
              "type": "address"
            },
            {
              "internalType": "string",
              "name": "jobTitle",
              "type": "string"
            },
            {
              "internalType": "string",
              "name": "description",
              "type": "string"
            },
            {
              "internalType": "string",
              "name": "tags",
              "type": "string"
            },
            {
              "internalType": "uint256",
              "name": "prize",
              "type": "uint256"
            },
            {
              "internalType": "bool",
              "name": "paidOut",
              "type": "bool"
            },
            {
              "internalType": "uint256",
              "name": "timestamp",
              "type": "uint256"
            },
            {
              "internalType": "bool",
              "name": "listed",
              "type": "bool"
            },
            {
              "internalType": "bool",
              "name": "disputed",
              "type": "bool"
            }
          ],
          "internalType": "struct DappWorks.JobStruct",
          "name": "",
          "type": "tuple"
        }
      ],
      "stateMutability": "view",
      "type": "function"
    },
    {
      "inputs": [],
      "name": "getJobs",
      "outputs": [
        {
          "components": [
            {
              "internalType": "uint256",
              "name": "id",
              "type": "uint256"
            },
            {
              "internalType": "address",
              "name": "owner",
              "type": "address"
            },
            {
              "internalType": "string",
              "name": "jobTitle",
              "type": "string"
            },
            {
              "internalType": "string",
              "name": "description",
              "type": "string"
            },
            {
              "internalType": "string",
              "name": "tags",
              "type": "string"
            },
            {
              "internalType": "uint256",
              "name": "prize",
              "type": "uint256"
            },
            {
              "internalType": "bool",
              "name": "paidOut",
              "type": "bool"
            },
            {
              "internalType": "uint256",
              "name": "timestamp",
              "type": "uint256"
            },
            {
              "internalType": "bool",
              "name": "listed",
              "type": "bool"
            },
            {
              "internalType": "bool",
              "name": "disputed",
              "type": "bool"
            }
          ],
          "internalType": "struct DappWorks.JobStruct[]",
          "name": "ActiveJobs",
          "type": "tuple[]"
        }
      ],
      "stateMutability": "view",
      "type": "function"
    },
    {
      "inputs": [],
      "name": "getJobsForBidder",
      "outputs": [
        {
          "components": [
            {
              "internalType": "uint256",
              "name": "id",
              "type": "uint256"
            },
            {
              "internalType": "address",
              "name": "owner",
              "type": "address"
            },
            {
              "internalType": "string",
              "name": "jobTitle",
              "type": "string"
            },
            {
              "internalType": "string",
              "name": "description",
              "type": "string"
            },
            {
              "internalType": "string",
              "name": "tags",
              "type": "string"
            },
            {
              "internalType": "uint256",
              "name": "prize",
              "type": "uint256"
            },
            {
              "internalType": "bool",
              "name": "paidOut",
              "type": "bool"
            },
            {
              "internalType": "uint256",
              "name": "timestamp",
              "type": "uint256"
            },
            {
              "internalType": "bool",
              "name": "listed",
              "type": "bool"
            },
            {
              "internalType": "bool",
              "name": "disputed",
              "type": "bool"
            }
          ],
          "internalType": "struct DappWorks.JobStruct[]",
          "name": "bidderJobs",
          "type": "tuple[]"
        }
      ],
      "stateMutability": "view",
      "type": "function"
    },
    {
      "inputs": [],
      "name": "getMyJobs",
      "outputs": [
        {
          "components": [
            {
              "internalType": "uint256",
              "name": "id",
              "type": "uint256"
            },
            {
              "internalType": "address",
              "name": "owner",
              "type": "address"
            },
            {
              "internalType": "string",
              "name": "jobTitle",
              "type": "string"
            },
            {
              "internalType": "string",
              "name": "description",
              "type": "string"
            },
            {
              "internalType": "string",
              "name": "tags",
              "type": "string"
            },
            {
              "internalType": "uint256",
              "name": "prize",
              "type": "uint256"
            },
            {
              "internalType": "bool",
              "name": "paidOut",
              "type": "bool"
            },
            {
              "internalType": "uint256",
              "name": "timestamp",
              "type": "uint256"
            },
            {
              "internalType": "bool",
              "name": "listed",
              "type": "bool"
            },
            {
              "internalType": "bool",
              "name": "disputed",
              "type": "bool"
            }
          ],
          "internalType": "struct DappWorks.JobStruct[]",
          "name": "MyJobs",
          "type": "tuple[]"
        }
      ],
      "stateMutability": "view",
      "type": "function"
    },
    {
      "inputs": [
        {
          "internalType": "uint256",
          "name": "",
          "type": "uint256"
        },
        {
          "internalType": "address",
          "name": "",
          "type": "address"
        }
      ],
      "name": "hasPlacedBid",
      "outputs": [
        {
          "internalType": "bool",
          "name": "",
          "type": "bool"
        }
      ],
      "stateMutability": "view",
      "type": "function"
    },
    {
      "inputs": [],
      "name": "owner",
      "outputs": [
        {
          "internalType": "address",
          "name": "",
          "type": "address"
        }
      ],
      "stateMutability": "view",
      "type": "function"
    },
    {
      "inputs": [
        {
          "internalType": "uint256",
          "name": "id",
          "type": "uint256"
        }
      ],
      "name": "payout",
      "outputs": [],
      "stateMutability": "nonpayable",
      "type": "function"
    },
    {
      "inputs": [],
      "name": "platformCharge",
      "outputs": [
        {
          "internalType": "uint256",
          "name": "",
          "type": "uint256"
        }
      ],
      "stateMutability": "view",
      "type": "function"
    },
    {
      "inputs": [],
      "name": "renounceOwnership",
      "outputs": [],
      "stateMutability": "nonpayable",
      "type": "function"
    },
    {
      "inputs": [
        {
          "internalType": "uint256",
          "name": "id",
          "type": "uint256"
        }
      ],
      "name": "resolved",
      "outputs": [],
      "stateMutability": "nonpayable",
      "type": "function"
    },
    {
      "inputs": [
        {
          "internalType": "uint256",
          "name": "jId",
          "type": "uint256"
        },
        {
          "internalType": "uint256",
          "name": "id",
          "type": "uint256"
        }
      ],
      "name": "revoke",
      "outputs": [],
      "stateMutability": "nonpayable",
      "type": "function"
    },
    {
      "inputs": [
        {
          "internalType": "address",
          "name": "newOwner",
          "type": "address"
        }
      ],
      "name": "transferOwnership",
      "outputs": [],
      "stateMutability": "nonpayable",
      "type": "function"
    },
    {
      "inputs": [
        {
          "internalType": "uint256",
          "name": "id",
          "type": "uint256"
        },
        {
          "internalType": "string",
          "name": "jobTitle",
          "type": "string"
        },
        {
          "internalType": "string",
          "name": "description",
          "type": "string"
        },
        {
          "internalType": "string",
          "name": "tags",
          "type": "string"
        }
      ],
      "name": "updateJob",
      "outputs": [],
      "stateMutability": "nonpayable",
      "type": "function"
    }
  ],
  "bytecode": "0x608060405260056003553480156200001657600080fd5b5062000022336200002c565b600180556200007c565b600080546001600160a01b038381166001600160a01b0319831681178455604051919092169283917f8be0079c531659141344cd1fd0a4f28419497f9722a3daafe3b4186f6b6457e09190a35050565b6136e7806200008c6000396000f3fe6080604052600436106101495760003560e01c80639180f2a0116100b6578063c4ff0b451161006f578063c4ff0b45146103e4578063d0909615146103f9578063def5e7371461040c578063e11523431461042c578063eb361f811461044c578063f2fde38b1461047957600080fd5b80639180f2a0146103125780639b00214c14610327578063a7e2a3301461033c578063b9b7efb614610377578063be1b6fc614610397578063bf22c457146103b757600080fd5b806365a990f01161010857806365a990f01461025c57806368581ebd1461027c578063715018a61461029157806386d6282c146102a65780638b142225146102c65780638da5cb5b146102ea57600080fd5b80620a106b1461014e578062ebd5fa1461019e57806328867624146101c05780634b3f53e0146101e25780634fa7b5071461020f5780636358bb8c1461023c575b600080fd5b34801561015a57600080fd5b50610189610169366004613012565b600860209081526000928352604080842090915290825290205460ff1681565b60405190151581526020015b60405180910390f35b3480156101aa57600080fd5b506101b3610499565b6040516101959190613151565b3480156101cc57600080fd5b506101e06101db3660046131b3565b6109bb565b005b3480156101ee57600080fd5b506102026101fd3660046131b3565b610bf3565b60405161019591906131cc565b34801561021b57600080fd5b5061022f61022a3660046131b3565b610c9b565b6040516101959190613243565b34801561024857600080fd5b506101e06102573660046131b3565b610da1565b34801561026857600080fd5b506101e0610277366004613348565b610e9d565b34801561028857600080fd5b506101b3610fd0565b34801561029d57600080fd5b506101e0611377565b3480156102b257600080fd5b506101e06102c13660046131b3565b61138b565b3480156102d257600080fd5b506102dc60035481565b604051908152602001610195565b3480156102f657600080fd5b506000546040516001600160a01b039091168152602001610195565b34801561031e57600080fd5b5061022f6114ae565b34801561033357600080fd5b506101b3611752565b34801561034857600080fd5b506101896103573660046131b3565b600090815260086020908152604080832033845290915290205460ff1690565b34801561038357600080fd5b506101e06103923660046131b3565b611acd565b3480156103a357600080fd5b506101e06103b23660046133da565b611bb7565b3480156103c357600080fd5b506103d76103d23660046131b3565b611d14565b60405161019591906133fc565b3480156103f057600080fd5b506101b3611f57565b6101e0610407366004613416565b61235a565b34801561041857600080fd5b506101e061042736600461349e565b6125f6565b34801561043857600080fd5b506101e06104473660046131b3565b6128cb565b34801561045857600080fd5b5061046c6104673660046131b3565b612b73565b60405161019591906134d3565b34801561048557600080fd5b506101e0610494366004613509565b612ca5565b606060008060015b60025481116105d65760008181526007602052604090205460ff1680156104d9575060008181526004602052604090206008015460ff165b80156104f7575060008181526004602052604090206006015460ff16155b156105c45760005b6000828152600560205260409020548110156105c257600082815260056020526040902080543391908390811061053857610538613524565b60009182526020909120600260039092020101546001600160a01b031614801561059d5750600082815260056020526040902080548290811061057d5761057d613524565b906000526020600020906003020160020160149054906101000a900460ff165b156105b057836105ac81613550565b9450505b806105ba81613550565b9150506104ff565b505b806105ce81613550565b9150506104a1565b508167ffffffffffffffff8111156105f0576105f06132a5565b60405190808252806020026020018201604052801561062957816020015b610616612ea3565b81526020019060019003908161060e5790505b50925060015b60025481116109b55760008181526007602052604090205460ff168015610668575060008181526004602052604090206008015460ff16155b8015610686575060008181526004602052604090206006015460ff16155b156109a35760005b6000828152600560205260409020548110156109a15760008281526005602052604090208054339190839081106106c7576106c7613524565b60009182526020909120600260039092020101546001600160a01b031614801561072c5750600082815260056020526040902080548290811061070c5761070c613524565b906000526020600020906003020160020160149054906101000a900460ff165b1561098f576000828152600460209081526040918290208251610140810184528154815260018201546001600160a01b031692810192909252600281018054929391929184019161077c9061356b565b80601f01602080910402602001604051908101604052809291908181526020018280546107a89061356b565b80156107f55780601f106107ca576101008083540402835291602001916107f5565b820191906000526020600020905b8154815290600101906020018083116107d857829003601f168201915b5050505050815260200160038201805461080e9061356b565b80601f016020809104026020016040519081016040528092919081815260200182805461083a9061356b565b80156108875780601f1061085c57610100808354040283529160200191610887565b820191906000526020600020905b81548152906001019060200180831161086a57829003601f168201915b505050505081526020016004820180546108a09061356b565b80601f01602080910402602001604051908101604052809291908181526020018280546108cc9061356b565b80156109195780601f106108ee57610100808354040283529160200191610919565b820191906000526020600020905b8154815290600101906020018083116108fc57829003601f168201915b505050918352505060058201546020820152600682015460ff9081161515604083015260078301546060830152600890920154808316151560808301526101009004909116151560a090910152858461097181613550565b95508151811061098357610983613524565b60200260200101819052505b8061099981613550565b91505061068e565b505b806109ad81613550565b91505061062f565b50505090565b60008181526007602052604090205460ff166109f25760405162461bcd60e51b81526004016109e9906135a6565b60405180910390fd5b6000818152600460205260409020600101546001600160a01b0316331415610a505760405162461bcd60e51b8152602060048201526011602482015270466f7262696464656e20616374696f6e2160781b60448201526064016109e9565b60008181526004602052604090206006015460ff1615610a825760405162461bcd60e51b81526004016109e9906135dd565b60008181526004602052604090206008015460ff16610ade5760405162461bcd60e51b81526020600482015260186024820152772a3434b9903537b1103430bb32903132b2b7103a30b5b2b760411b60448201526064016109e9565b600081815260086020908152604080832033845290915290205460ff1615610b485760405162461bcd60e51b815260206004820152601d60248201527f596f75206861766520706c6163656420612062696420616c726561647900000060448201526064016109e9565b610b50612f05565b600082815260066020526040902054610b6a906001613614565b815260208082018381523360408085018281526000878152600886528281209381529285528183208054600160ff19909116811790915596835260068552908220805480880182559083529390912093516003909302909301918255519281019290925551600290910180546001600160a01b0319166001600160a01b03909216919091179055565b606060056000838152602001908152602001600020805480602002602001604051908101604052809291908181526020016000905b82821015610c90576000848152602090819020604080516080810182526003860290920180548352600180820154848601526002909101546001600160a01b03811692840192909252600160a01b90910460ff16151560608301529083529092019101610c28565b505050509050919050565b60008181526007602052604090205460609060ff16610ccc5760405162461bcd60e51b81526004016109e9906135a6565b60008281526004602052604090206008015460ff1615610d1e576040805160008082526020820190925290610d17565b610d04612f05565b815260200190600190039081610cfc5790505b5092915050565b600082815260066020908152604080832080548251818502810185019093528083529193909284015b82821015610c90576000848152602090819020604080516060810182526003860290920180548352600180820154848601526002909101546001600160a01b0316918301919091529083529092019101610d47565b919050565b60008181526007602052604090205460ff16610dcf5760405162461bcd60e51b81526004016109e9906135a6565b60008181526004602052604090206008015460ff16610e2a5760405162461bcd60e51b81526020600482015260176024820152762a3434b9903537b1103430b9903132b2b7103a30b5b2b760491b60448201526064016109e9565b60008181526004602052604090206006015460ff1615610e5c5760405162461bcd60e51b81526004016109e9906135dd565b6000818152600760209081526040808320805460ff19169055600490915290206001810154600590910154610e9a916001600160a01b031690612d1b565b50565b60008481526007602052604090205460ff16610ecb5760405162461bcd60e51b81526004016109e9906135a6565b60008481526004602052604090206008015460ff16610f265760405162461bcd60e51b81526020600482015260176024820152762a3434b9903537b1103430b9903132b2b7103a30b5b2b760491b60448201526064016109e9565b60008481526004602052604090206006015460ff1615610f585760405162461bcd60e51b81526004016109e9906135dd565b60008481526004602090815260409091208451610f7d92600290920191860190612f2f565b5060008481526004602090815260409091208351610fa392600390920191850190612f2f565b5060008481526004602081815260409092208351610fc993919092019190840190612f2f565b5050505050565b606060008060015b60025481116110535760008181526007602052604090205460ff168015611010575060008181526004602052604090206008015460ff165b801561102e575060008181526004602052604090206006015460ff16155b15611041578261103d81613550565b9350505b8061104b81613550565b915050610fd8565b508167ffffffffffffffff81111561106d5761106d6132a5565b6040519080825280602002602001820160405280156110a657816020015b611093612ea3565b81526020019060019003908161108b5790505b50925060015b60025481116109b55760008181526007602052604090205460ff1680156110e4575060008181526004602052604090206008015460ff165b8015611102575060008181526004602052604090206006015460ff16155b15611365576000818152600460209081526040918290208251610140810184528154815260018201546001600160a01b03169281019290925260028101805492939192918401916111529061356b565b80601f016020809104026020016040519081016040528092919081815260200182805461117e9061356b565b80156111cb5780601f106111a0576101008083540402835291602001916111cb565b820191906000526020600020905b8154815290600101906020018083116111ae57829003601f168201915b505050505081526020016003820180546111e49061356b565b80601f01602080910402602001604051908101604052809291908181526020018280546112109061356b565b801561125d5780601f106112325761010080835404028352916020019161125d565b820191906000526020600020905b81548152906001019060200180831161124057829003601f168201915b505050505081526020016004820180546112769061356b565b80601f01602080910402602001604051908101604052809291908181526020018280546112a29061356b565b80156112ef5780601f106112c4576101008083540402835291602001916112ef565b820191906000526020600020905b8154815290600101906020018083116112d257829003601f168201915b505050918352505060058201546020820152600682015460ff9081161515604083015260078301546060830152600890920154808316151560808301526101009004909116151560a090910152848361134781613550565b94508151811061135957611359613524565b60200260200101819052505b8061136f81613550565b9150506110ac565b61137f612d80565b6113896000612dda565b565b60008181526004602052604090206001015481906001600160a01b031633146113c65760405162461bcd60e51b81526004016109e99061362c565b60008281526007602052604090205460ff166113f45760405162461bcd60e51b81526004016109e9906135a6565b600082815260046020526040902060080154610100900460ff161561145b5760405162461bcd60e51b815260206004820152601960248201527f54686973206a6f6220616c72656164792064697370757465640000000000000060448201526064016109e9565b60008281526004602052604090206006015460ff161561148d5760405162461bcd60e51b81526004016109e9906135dd565b506000908152600460205260409020600801805461ff001916610100179055565b606060006114bb60025490565b67ffffffffffffffff8111156114d3576114d36132a5565b60405190808252806020026020018201604052801561150c57816020015b6114f9612f05565b8152602001906001900390816114f15790505b509050600060015b60025481116116a75760008181526007602052604090205460ff16801561154c575060008181526004602052604090206008015460ff165b801561156a575060008181526004602052604090206006015460ff16155b1561169557600081815260086020908152604080832033845290915290205460ff16156116955760005b6000828152600660205260409020548110156116935760008281526006602052604090208054339190839081106115cd576115cd613524565b60009182526020909120600260039092020101546001600160a01b0316141561168157600082815260066020526040902080548290811061161057611610613524565b6000918252602091829020604080516060810182526003909302909101805483526001810154938301939093526002909201546001600160a01b031691810191909152845185908590811061166757611667613524565b6020026020010181905250828061167d90613550565b9350505b8061168b81613550565b915050611594565b505b8061169f81613550565b915050611514565b508067ffffffffffffffff8111156116c1576116c16132a5565b6040519080825280602002602001820160405280156116fa57816020015b6116e7612f05565b8152602001906001900390816116df5790505b50925060005b818110156109b55782818151811061171a5761171a613524565b602002602001015184828151811061173457611734613524565b6020026020010181905250808061174a90613550565b915050611700565b606060008060015b60025481116117bf5760008181526007602052604090205460ff16801561179a57506000818152600460205260409020600101546001600160a01b031633145b156117ad57826117a981613550565b9350505b806117b781613550565b91505061175a565b508167ffffffffffffffff8111156117d9576117d96132a5565b60405190808252806020026020018201604052801561181257816020015b6117ff612ea3565b8152602001906001900390816117f75790505b50925060015b60025481116109b55760008181526007602052604090205460ff16801561185857506000818152600460205260409020600101546001600160a01b031633145b15611abb576000818152600460209081526040918290208251610140810184528154815260018201546001600160a01b03169281019290925260028101805492939192918401916118a89061356b565b80601f01602080910402602001604051908101604052809291908181526020018280546118d49061356b565b80156119215780601f106118f657610100808354040283529160200191611921565b820191906000526020600020905b81548152906001019060200180831161190457829003601f168201915b5050505050815260200160038201805461193a9061356b565b80601f01602080910402602001604051908101604052809291908181526020018280546119669061356b565b80156119b35780601f10611988576101008083540402835291602001916119b3565b820191906000526020600020905b81548152906001019060200180831161199657829003601f168201915b505050505081526020016004820180546119cc9061356b565b80601f01602080910402602001604051908101604052809291908181526020018280546119f89061356b565b8015611a455780601f10611a1a57610100808354040283529160200191611a45565b820191906000526020600020905b815481529060010190602001808311611a2857829003601f168201915b505050918352505060058201546020820152600682015460ff9081161515604083015260078301546060830152600890920154808316151560808301526101009004909116151560a0909101528483611a9d81613550565b945081518110611aaf57611aaf613524565b60200260200101819052505b80611ac581613550565b915050611818565b611ad5612d80565b60008181526007602052604090205460ff16611b035760405162461bcd60e51b81526004016109e9906135a6565b600081815260046020526040902060080154610100900460ff16611b695760405162461bcd60e51b815260206004820152601b60248201527f54686973206a6f62206d757374206265206f6e2064697370757465000000000060448201526064016109e9565b60008181526004602052604090206006015460ff1615611b9b5760405162461bcd60e51b81526004016109e9906135dd565b6000908152600460205260409020600801805461ff0019169055565b611bbf612d80565b60008281526007602052604090205460ff16611bed5760405162461bcd60e51b81526004016109e9906135a6565b600082815260046020526040902060080154610100900460ff16611c535760405162461bcd60e51b815260206004820152601b60248201527f54686973206a6f62206d757374206265206f6e2064697370757465000000000060448201526064016109e9565b60008281526004602052604090206006015460ff1615611c855760405162461bcd60e51b81526004016109e9906135dd565b6000828152600560205260408120805483908110611ca557611ca5613524565b600091825260208083206002600390930201918201805460ff60a01b191690558583526004905260409091206001810154600590910154919250611cf4916001600160a01b0390911690612d1b565b50506000908152600460205260409020600801805460ff19166001179055565b611d1c612ea3565b6000828152600460209081526040918290208251610140810184528154815260018201546001600160a01b0316928101929092526002810180549293919291840191611d679061356b565b80601f0160208091040260200160405190810160405280929190818152602001828054611d939061356b565b8015611de05780601f10611db557610100808354040283529160200191611de0565b820191906000526020600020905b815481529060010190602001808311611dc357829003601f168201915b50505050508152602001600382018054611df99061356b565b80601f0160208091040260200160405190810160405280929190818152602001828054611e259061356b565b8015611e725780601f10611e4757610100808354040283529160200191611e72565b820191906000526020600020905b815481529060010190602001808311611e5557829003601f168201915b50505050508152602001600482018054611e8b9061356b565b80601f0160208091040260200160405190810160405280929190818152602001828054611eb79061356b565b8015611f045780601f10611ed957610100808354040283529160200191611f04565b820191906000526020600020905b815481529060010190602001808311611ee757829003601f168201915b505050918352505060058201546020820152600682015460ff9081161515604083015260078301546060830152600890920154808316151560808301526101009004909116151560a09091015292915050565b60606000611f6460025490565b67ffffffffffffffff811115611f7c57611f7c6132a5565b604051908082528060200260200182016040528015611fb557816020015b611fa2612ea3565b815260200190600190039081611f9a5790505b509050600060015b60025481116122af5760008181526007602052604090205460ff168015611ff5575060008181526004602052604090206008015460ff165b8015612013575060008181526004602052604090206006015460ff16155b1561229d57600081815260086020908152604080832033845290915290205460ff161561229d576000818152600460209081526040918290208251610140810184528154815260018201546001600160a01b03169281019290925260028101805492939192918401916120859061356b565b80601f01602080910402602001604051908101604052809291908181526020018280546120b19061356b565b80156120fe5780601f106120d3576101008083540402835291602001916120fe565b820191906000526020600020905b8154815290600101906020018083116120e157829003601f168201915b505050505081526020016003820180546121179061356b565b80601f01602080910402602001604051908101604052809291908181526020018280546121439061356b565b80156121905780601f1061216557610100808354040283529160200191612190565b820191906000526020600020905b81548152906001019060200180831161217357829003601f168201915b505050505081526020016004820180546121a99061356b565b80601f01602080910402602001604051908101604052809291908181526020018280546121d59061356b565b80156122225780601f106121f757610100808354040283529160200191612222565b820191906000526020600020905b81548152906001019060200180831161220557829003601f168201915b505050918352505060058201546020820152600682015460ff9081161515604083015260078301546060830152600890920154808316151560808301526101009004909116151560a090910152835184908490811061228357612283613524565b6020026020010181905250818061229990613550565b9250505b806122a781613550565b915050611fbd565b508067ffffffffffffffff8111156122c9576122c96132a5565b60405190808252806020026020018201604052801561230257816020015b6122ef612ea3565b8152602001906001900390816122e75790505b50925060005b818110156109b55782818151811061232257612322613524565b602002602001015184828151811061233c5761233c613524565b6020026020010181905250808061235290613550565b915050612308565b60008351116123ab5760405162461bcd60e51b815260206004820152601a60248201527f506c656173652070726f766964652061206a6f62207469746c6500000000000060448201526064016109e9565b60008251116123fc5760405162461bcd60e51b815260206004820152601c60248201527f506c656173652070726f766964652061206465736372697074696f6e0000000060448201526064016109e9565b60008151116124435760405162461bcd60e51b8152602060048201526013602482015272506c656173652070726f76696465207461677360681b60448201526064016109e9565b600034116124885760405162461bcd60e51b8152602060048201526012602482015271496e73756666696369656e742066756e647360701b60448201526064016109e9565b612496600280546001019055565b60006124a160025490565b90506124ab612ea3565b8181523360208201526040810185905260608101849052608081018390523460a082015260016101008201526124df612e2a565b60e082015260008281526004602090815260409182902083518155818401516001820180546001600160a01b0319166001600160a01b03909216919091179055918301518051849392612539926002850192910190612f2f565b5060608201518051612555916003840191602090910190612f2f565b5060808201518051612571916004840191602090910190612f2f565b5060a0820151600582015560c082015160068201805491151560ff1992831617905560e0830151600780840191909155610100808501516008909401805461012090960151151590910261ff00199415159490941661ffff19909516949094179290921790925560009384526020526040909220805490921660011790915550505050565b60008281526004602052604090206001015482906001600160a01b031633146126315760405162461bcd60e51b81526004016109e99061362c565b60008381526007602052604090205460ff1661265f5760405162461bcd60e51b81526004016109e9906135a6565b60008381526004602052604090206008015460ff166126bb5760405162461bcd60e51b81526020600482015260186024820152772a3434b9903537b1103430bb32903132b2b7103a30b5b2b760411b60448201526064016109e9565b60008381526004602052604090206006015460ff16156126ed5760405162461bcd60e51b81526004016109e9906135dd565b60008381526008602090815260408083206001600160a01b038616845290915290205460ff166127555760405162461bcd60e51b81526020600482015260136024820152722ab724b232b73a34b334b2b2103134b23232b960691b60448201526064016109e9565b61275d612fb3565b600084815260056020818152604080842080548087528684018a81526001600160a01b03808b16948901948552600160608a0181815297875280840185559388529487208851600390930201918255519181019190915590516002909101805493511515600160a01b026001600160a81b031990941691909216179190911790555b6000858152600660205260409020548110156128ab57600085815260066020526040902080548791908390811061281857612818613524565b906000526020600020906003020160000154146128995760008581526008602090815260408083206006909252822080548391908590811061285c5761285c613524565b60009182526020808320600392909202909101600201546001600160a01b031683528201929092526040019020805460ff19169115159190911790555b806128a381613550565b9150506127df565b505050600091825250600460205260409020600801805460ff1916905550565b6128d3612e49565b60008181526004602052604090206001015481906001600160a01b0316331461290e5760405162461bcd60e51b81526004016109e99061362c565b60008281526007602052604090205460ff1661293c5760405162461bcd60e51b81526004016109e9906135a6565b60008281526004602052604090206008015460ff161561299e5760405162461bcd60e51b815260206004820152601b60248201527f54686973206a6f6220686173206e6f74206265656e2074616b656e000000000060448201526064016109e9565b600082815260046020526040902060080154610100900460ff1615612a055760405162461bcd60e51b815260206004820152601f60248201527f54686973206a6f62206d757374206e6f74206265206f6e20646973707574650060448201526064016109e9565b60008281526004602052604090206006015460ff1615612a375760405162461bcd60e51b81526004016109e9906135dd565b600082815260046020526040812060050154600354909190606490612a5c9084613659565b612a669190613678565b905060015b600085815260056020526040902054811015612b2f576000858152600560205260409020805482908110612aa157612aa1613524565b906000526020600020906003020160020160149054906101000a900460ff161515600115151415612b1d5760008581526005602052604090208054612b1d919083908110612af157612af1613524565b60009182526020909120600260039092020101546001600160a01b0316612b18848661369a565b612d1b565b80612b2781613550565b915050612a6b565b50612b4b612b456000546001600160a01b031690565b82612d1b565b5050506000818152600460205260409020600601805460ff19166001179055610e9a60018055565b612b7b612fb3565b60008281526007602052604090205460ff16612ba95760405162461bcd60e51b81526004016109e9906135a6565b60005b600083815260056020526040902054811015612c96576000838152600560205260409020805482908110612be257612be2613524565b906000526020600020906003020160020160149054906101000a900460ff1615612c84576000838152600560205260409020805482908110612c2657612c26613524565b600091825260209182902060408051608081018252600393909302909101805483526001810154938301939093526002909201546001600160a01b03811692820192909252600160a01b90910460ff16151560608201529392505050565b80612c8e81613550565b915050612bac565b50612c9f612fb3565b92915050565b612cad612d80565b6001600160a01b038116612d125760405162461bcd60e51b815260206004820152602660248201527f4f776e61626c653a206e6577206f776e657220697320746865207a65726f206160448201526564647265737360d01b60648201526084016109e9565b610e9a81612dda565b6000826001600160a01b03168260405160006040518083038185875af1925050503d8060008114612d68576040519150601f19603f3d011682016040523d82523d6000602084013e612d6d565b606091505b5050905080612d7b57600080fd5b505050565b6000546001600160a01b031633146113895760405162461bcd60e51b815260206004820181905260248201527f4f776e61626c653a2063616c6c6572206973206e6f7420746865206f776e657260448201526064016109e9565b600080546001600160a01b038381166001600160a01b0319831681178455604051919092169283917f8be0079c531659141344cd1fd0a4f28419497f9722a3daafe3b4186f6b6457e09190a35050565b6000612e38426103e8613659565b612e44906103e8613614565b905090565b60026001541415612e9c5760405162461bcd60e51b815260206004820152601f60248201527f5265656e7472616e637947756172643a207265656e7472616e742063616c6c0060448201526064016109e9565b6002600155565b6040518061014001604052806000815260200160006001600160a01b0316815260200160608152602001606081526020016060815260200160008152602001600015158152602001600081526020016000151581526020016000151581525090565b6040518060600160405280600081526020016000815260200160006001600160a01b031681525090565b828054612f3b9061356b565b90600052602060002090601f016020900481019282612f5d5760008555612fa3565b82601f10612f7657805160ff1916838001178555612fa3565b82800160010185558215612fa3579182015b82811115612fa3578251825591602001919060010190612f88565b50612faf929150612fe6565b5090565b6040518060800160405280600081526020016000815260200160006001600160a01b031681526020016000151581525090565b5b80821115612faf5760008155600101612fe7565b80356001600160a01b0381168114610d9c57600080fd5b6000806040838503121561302557600080fd5b8235915061303560208401612ffb565b90509250929050565b6000815180845260005b8181101561306457602081850181015186830182015201613048565b81811115613076576000602083870101525b50601f01601f19169290920160200192915050565b60006101408251845260208301516130ae60208601826001600160a01b03169052565b5060408301518160408601526130c68286018261303e565b915050606083015184820360608601526130e0828261303e565b915050608083015184820360808601526130fa828261303e565b91505060a083015160a085015260c083015161311a60c086018215159052565b5060e083015160e0850152610100808401516131398287018215159052565b50506101209283015115159390920192909252919050565b6000602080830181845280855180835260408601915060408160051b870101925083870160005b828110156131a657603f1988860301845261319485835161308b565b94509285019290850190600101613178565b5092979650505050505050565b6000602082840312156131c557600080fd5b5035919050565b6020808252825182820181905260009190848201906040850190845b818110156132375761322483855180518252602080820151908301526040808201516001600160a01b0316908301526060908101511515910152565b92840192608092909201916001016131e8565b50909695505050505050565b602080825282518282018190526000919060409081850190868401855b828110156132985781518051855286810151878601528501516001600160a01b03168585015260609093019290850190600101613260565b5091979650505050505050565b634e487b7160e01b600052604160045260246000fd5b600082601f8301126132cc57600080fd5b813567ffffffffffffffff808211156132e7576132e76132a5565b604051601f8301601f19908116603f0116810190828211818310171561330f5761330f6132a5565b8160405283815286602085880101111561332857600080fd5b836020870160208301376000602085830101528094505050505092915050565b6000806000806080858703121561335e57600080fd5b84359350602085013567ffffffffffffffff8082111561337d57600080fd5b613389888389016132bb565b9450604087013591508082111561339f57600080fd5b6133ab888389016132bb565b935060608701359150808211156133c157600080fd5b506133ce878288016132bb565b91505092959194509250565b600080604083850312156133ed57600080fd5b50508035926020909101359150565b60208152600061340f602083018461308b565b9392505050565b60008060006060848603121561342b57600080fd5b833567ffffffffffffffff8082111561344357600080fd5b61344f878388016132bb565b9450602086013591508082111561346557600080fd5b613471878388016132bb565b9350604086013591508082111561348757600080fd5b50613494868287016132bb565b9150509250925092565b6000806000606084860312156134b357600080fd5b83359250602084013591506134ca60408501612ffb565b90509250925092565b81518152602080830151908201526040808301516001600160a01b03169082015260608083015115159082015260808101612c9f565b60006020828403121561351b57600080fd5b61340f82612ffb565b634e487b7160e01b600052603260045260246000fd5b634e487b7160e01b600052601160045260246000fd5b60006000198214156135645761356461353a565b5060010190565b600181811c9082168061357f57607f821691505b602082108114156135a057634e487b7160e01b600052602260045260246000fd5b50919050565b6020808252601e908201527f54686973206a6f62206c697374696e6720646f65736e27742065786973740000604082015260600190565b6020808252601a908201527f54686973206a6f6220686173206265656e2070616964206f7574000000000000604082015260600190565b600082198211156136275761362761353a565b500190565b602080825260139082015272556e617574686f72697a656420656e7469747960681b604082015260600190565b60008160001904831182151516156136735761367361353a565b500290565b60008261369557634e487b7160e01b600052601260045260246000fd5b500490565b6000828210156136ac576136ac61353a565b50039056fea2646970667358221220e9723b39390246c44c078e8555c76961f6a3e1dbf5cec6d2f242ec777743d52564736f6c634300080b0033",
  "linkReferences": {},
  "deployedLinkReferences": {}
}