{
  "_format": "hh-sol-artifact-1",
  "contractName": "DappWorks",
  "sourceName": "src/contracts/DappWorks.sol",
  "abi": [
    {
      "anonymous": false,
      "inputs": [
        {
          "indexed": true,
          "internalType": "address",
          "name": "previousOwner",
          "type": "address"
        },
        {
          "indexed": true,
          "internalType": "address",
          "name": "newOwner",
          "type": "address"
        }
      ],
      "name": "OwnershipTransferred",
      "type": "event"
    },
    {
      "inputs": [
        {
          "internalType": "uint256",
          "name": "jId",
          "type": "uint256"
        },
        {
          "internalType": "address",
          "name": "bidder",
          "type": "address"
        }
      ],
      "name": "acceptBid",
      "outputs": [],
      "stateMutability": "nonpayable",
      "type": "function"
    },
    {
      "inputs": [
        {
          "internalType": "string",
          "name": "jobTitle",
          "type": "string"
        },
        {
          "internalType": "string",
          "name": "description",
          "type": "string"
        },
        {
          "internalType": "string",
          "name": "tags",
          "type": "string"
        }
      ],
      "name": "addJobListing",
      "outputs": [],
      "stateMutability": "payable",
      "type": "function"
    },
    {
      "inputs": [
        {
          "internalType": "uint256",
          "name": "id",
          "type": "uint256"
        }
      ],
      "name": "bidForJob",
      "outputs": [],
      "stateMutability": "nonpayable",
      "type": "function"
    },
    {
      "inputs": [
        {
          "internalType": "uint256",
          "name": "id",
          "type": "uint256"
        }
      ],
      "name": "deleteJob",
      "outputs": [],
      "stateMutability": "nonpayable",
      "type": "function"
    },
    {
      "inputs": [
        {
          "internalType": "uint256",
          "name": "id",
          "type": "uint256"
        }
      ],
      "name": "dispute",
      "outputs": [],
      "stateMutability": "nonpayable",
      "type": "function"
    },
    {
      "inputs": [
        {
          "internalType": "uint256",
          "name": "id",
          "type": "uint256"
        }
      ],
      "name": "getJob",
      "outputs": [
        {
          "components": [
            {
              "internalType": "uint256",
              "name": "id",
              "type": "uint256"
            },
            {
              "internalType": "address",
              "name": "owner",
              "type": "address"
            },
            {
              "internalType": "string",
              "name": "jobTitle",
              "type": "string"
            },
            {
              "internalType": "string",
              "name": "description",
              "type": "string"
            },
            {
              "internalType": "string",
              "name": "tags",
              "type": "string"
            },
            {
              "internalType": "uint256",
              "name": "prize",
              "type": "uint256"
            },
            {
              "internalType": "bool",
              "name": "paidOut",
              "type": "bool"
            },
            {
              "internalType": "uint256",
              "name": "timestamp",
              "type": "uint256"
            },
            {
              "internalType": "bool",
              "name": "listed",
              "type": "bool"
            },
            {
              "internalType": "bool",
              "name": "disputed",
              "type": "bool"
            }
          ],
          "internalType": "struct DappWorks.JobStruct",
          "name": "",
          "type": "tuple"
        }
      ],
      "stateMutability": "view",
      "type": "function"
    },
    {
      "inputs": [],
      "name": "getJobs",
      "outputs": [
        {
          "components": [
            {
              "internalType": "uint256",
              "name": "id",
              "type": "uint256"
            },
            {
              "internalType": "address",
              "name": "owner",
              "type": "address"
            },
            {
              "internalType": "string",
              "name": "jobTitle",
              "type": "string"
            },
            {
              "internalType": "string",
              "name": "description",
              "type": "string"
            },
            {
              "internalType": "string",
              "name": "tags",
              "type": "string"
            },
            {
              "internalType": "uint256",
              "name": "prize",
              "type": "uint256"
            },
            {
              "internalType": "bool",
              "name": "paidOut",
              "type": "bool"
            },
            {
              "internalType": "uint256",
              "name": "timestamp",
              "type": "uint256"
            },
            {
              "internalType": "bool",
              "name": "listed",
              "type": "bool"
            },
            {
              "internalType": "bool",
              "name": "disputed",
              "type": "bool"
            }
          ],
          "internalType": "struct DappWorks.JobStruct[]",
          "name": "ActiveJobs",
          "type": "tuple[]"
        }
      ],
      "stateMutability": "view",
      "type": "function"
    },
    {
      "inputs": [],
      "name": "owner",
      "outputs": [
        {
          "internalType": "address",
          "name": "",
          "type": "address"
        }
      ],
      "stateMutability": "view",
      "type": "function"
    },
    {
      "inputs": [
        {
          "internalType": "uint256",
          "name": "id",
          "type": "uint256"
        }
      ],
      "name": "payout",
      "outputs": [],
      "stateMutability": "nonpayable",
      "type": "function"
    },
    {
      "inputs": [],
      "name": "platformCharge",
      "outputs": [
        {
          "internalType": "uint256",
          "name": "",
          "type": "uint256"
        }
      ],
      "stateMutability": "view",
      "type": "function"
    },
    {
      "inputs": [],
      "name": "renounceOwnership",
      "outputs": [],
      "stateMutability": "nonpayable",
      "type": "function"
    },
    {
      "inputs": [
        {
          "internalType": "uint256",
          "name": "id",
          "type": "uint256"
        }
      ],
      "name": "resolved",
      "outputs": [],
      "stateMutability": "nonpayable",
      "type": "function"
    },
    {
      "inputs": [
        {
          "internalType": "uint256",
          "name": "jId",
          "type": "uint256"
        },
        {
          "internalType": "uint256",
          "name": "id",
          "type": "uint256"
        }
      ],
      "name": "revoke",
      "outputs": [],
      "stateMutability": "nonpayable",
      "type": "function"
    },
    {
      "inputs": [
        {
          "internalType": "address",
          "name": "newOwner",
          "type": "address"
        }
      ],
      "name": "transferOwnership",
      "outputs": [],
      "stateMutability": "nonpayable",
      "type": "function"
    },
    {
      "inputs": [
        {
          "internalType": "uint256",
          "name": "id",
          "type": "uint256"
        },
        {
          "internalType": "string",
          "name": "jobTitle",
          "type": "string"
        },
        {
          "internalType": "string",
          "name": "description",
          "type": "string"
        },
        {
          "internalType": "string",
          "name": "tags",
          "type": "string"
        }
      ],
      "name": "updateJob",
      "outputs": [],
      "stateMutability": "nonpayable",
      "type": "function"
    }
  ],
  "bytecode": "0x6080604052600560035534801561001557600080fd5b5061001f33610028565b60018055610078565b600080546001600160a01b038381166001600160a01b0319831681178455604051919092169283917f8be0079c531659141344cd1fd0a4f28419497f9722a3daafe3b4186f6b6457e09190a35050565b611ea7806100876000396000f3fe6080604052600436106100e85760003560e01c80638b1422251161008a578063bf22c45711610059578063bf22c4571461025b578063d090961514610288578063e11523431461029b578063f2fde38b146102bb57600080fd5b80638b142225146101cf5780638da5cb5b146101f3578063b9b7efb61461021b578063be1b6fc61461023b57600080fd5b806365a990f0116100c657806365a990f01461014f57806368581ebd1461016f578063715018a61461019a57806386d6282c146101af57600080fd5b806302068664146100ed578063288676241461010f5780636358bb8c1461012f575b600080fd5b3480156100f957600080fd5b5061010d610108366004611943565b6102db565b005b34801561011b57600080fd5b5061010d61012a36600461196f565b610464565b34801561013b57600080fd5b5061010d61014a36600461196f565b610581565b34801561015b57600080fd5b5061010d61016a366004611a2b565b61067d565b34801561017b57600080fd5b506101846107b0565b6040516101919190611bd0565b60405180910390f35b3480156101a657600080fd5b5061010d610b40565b3480156101bb57600080fd5b5061010d6101ca36600461196f565b610b54565b3480156101db57600080fd5b506101e560035481565b604051908152602001610191565b3480156101ff57600080fd5b506000546040516001600160a01b039091168152602001610191565b34801561022757600080fd5b5061010d61023636600461196f565b610c9c565b34801561024757600080fd5b5061010d610256366004611c32565b610d86565b34801561026757600080fd5b5061027b61027636600461196f565b610ee3565b6040516101919190611c54565b61010d610296366004611c6e565b611126565b3480156102a757600080fd5b5061010d6102b636600461196f565b6113c2565b3480156102c757600080fd5b5061010d6102d6366004611cf6565b61162e565b60008281526007602052604090205460ff166103125760405162461bcd60e51b815260040161030990611d11565b60405180910390fd5b60008281526004602052604090206008015460ff1661036e5760405162461bcd60e51b81526020600482015260186024820152772a3434b9903537b1103430bb32903132b2b7103a30b5b2b760411b6044820152606401610309565b60008281526004602052604090206006015460ff16156103a05760405162461bcd60e51b815260040161030990611d48565b60008281526008602052604081208054916103ba83611d95565b909155505060008281526008602081815260408084205481516080810183529081528083018781526001600160a01b039687168284019081526001606084018181528a89526005875285892080548084018255908a52878a2095516003909102909501948555925190840155516002909201805491511515600160a01b026001600160a81b031990921692909716919091171790945593825260049093522001805460ff19169055565b60008181526007602052604090205460ff166104925760405162461bcd60e51b815260040161030990611d11565b60008181526004602052604090206006015460ff16156104c45760405162461bcd60e51b815260040161030990611d48565b60008181526004602052604090206008015460ff16156105215760405162461bcd60e51b81526020600482015260186024820152772a3434b9903537b1103430bb32903132b2b7103a30b5b2b760411b6044820152606401610309565b604080518082018252828152336020808301918252600094855260068152928420805460018082018355918652939094209151600290930290910191825551910180546001600160a01b0319166001600160a01b03909216919091179055565b60008181526007602052604090205460ff166105af5760405162461bcd60e51b815260040161030990611d11565b60008181526004602052604090206008015460ff1661060a5760405162461bcd60e51b81526020600482015260176024820152762a3434b9903537b1103430b9903132b2b7103a30b5b2b760491b6044820152606401610309565b60008181526004602052604090206006015460ff161561063c5760405162461bcd60e51b815260040161030990611d48565b6000818152600760209081526040808320805460ff1916905560049091529020600181015460059091015461067a916001600160a01b0316906116a4565b50565b60008481526007602052604090205460ff166106ab5760405162461bcd60e51b815260040161030990611d11565b60008481526004602052604090206008015460ff166107065760405162461bcd60e51b81526020600482015260176024820152762a3434b9903537b1103430b9903132b2b7103a30b5b2b760491b6044820152606401610309565b60008481526004602052604090206006015460ff16156107385760405162461bcd60e51b815260040161030990611d48565b6000848152600460209081526040909120845161075d9260029092019186019061182c565b50600084815260046020908152604090912083516107839260039092019185019061182c565b50600084815260046020818152604090922083516107a99391909201919084019061182c565b5050505050565b606060008060015b60025481116108335760008181526007602052604090205460ff1680156107f0575060008181526004602052604090206008015460ff165b801561080e575060008181526004602052604090206006015460ff16155b15610821578261081d81611d95565b9350505b8061082b81611d95565b9150506107b8565b508167ffffffffffffffff81111561084d5761084d611988565b60405190808252806020026020018201604052801561088657816020015b6108736118b0565b81526020019060019003908161086b5790505b50925060015b6002548111610b3a5760008181526007602052604090205460ff1680156108c5575060008181526004602052604090206006015460ff16155b15610b28576000818152600460209081526040918290208251610140810184528154815260018201546001600160a01b031692810192909252600281018054929391929184019161091590611db0565b80601f016020809104026020016040519081016040528092919081815260200182805461094190611db0565b801561098e5780601f106109635761010080835404028352916020019161098e565b820191906000526020600020905b81548152906001019060200180831161097157829003601f168201915b505050505081526020016003820180546109a790611db0565b80601f01602080910402602001604051908101604052809291908181526020018280546109d390611db0565b8015610a205780601f106109f557610100808354040283529160200191610a20565b820191906000526020600020905b815481529060010190602001808311610a0357829003601f168201915b50505050508152602001600482018054610a3990611db0565b80601f0160208091040260200160405190810160405280929190818152602001828054610a6590611db0565b8015610ab25780601f10610a8757610100808354040283529160200191610ab2565b820191906000526020600020905b815481529060010190602001808311610a9557829003601f168201915b505050918352505060058201546020820152600682015460ff9081161515604083015260078301546060830152600890920154808316151560808301526101009004909116151560a0909101528483610b0a81611d95565b945081518110610b1c57610b1c611deb565b60200260200101819052505b80610b3281611d95565b91505061088c565b50505090565b610b48611709565b610b526000611763565b565b60008181526004602052604090206001015481906001600160a01b03163314610bb55760405162461bcd60e51b8152602060048201526013602482015272556e617574686f72697a656420656e7469747960681b6044820152606401610309565b60008281526007602052604090205460ff16610be35760405162461bcd60e51b815260040161030990611d11565b600082815260046020526040902060080154610100900460ff16610c495760405162461bcd60e51b815260206004820152601960248201527f54686973206a6f6220616c7265616479206469737075746564000000000000006044820152606401610309565b60008281526004602052604090206006015460ff1615610c7b5760405162461bcd60e51b815260040161030990611d48565b506000908152600460205260409020600801805461ff001916610100179055565b610ca4611709565b60008181526007602052604090205460ff16610cd25760405162461bcd60e51b815260040161030990611d11565b600081815260046020526040902060080154610100900460ff16610d385760405162461bcd60e51b815260206004820152601b60248201527f54686973206a6f62206d757374206265206f6e206469737075746500000000006044820152606401610309565b60008181526004602052604090206006015460ff1615610d6a5760405162461bcd60e51b815260040161030990611d48565b6000908152600460205260409020600801805461ff0019169055565b610d8e611709565b60008281526007602052604090205460ff16610dbc5760405162461bcd60e51b815260040161030990611d11565b600082815260046020526040902060080154610100900460ff16610e225760405162461bcd60e51b815260206004820152601b60248201527f54686973206a6f62206d757374206265206f6e206469737075746500000000006044820152606401610309565b60008281526004602052604090206006015460ff1615610e545760405162461bcd60e51b815260040161030990611d48565b6000828152600560205260408120805483908110610e7457610e74611deb565b600091825260208083206002600390930201918201805460ff60a01b191690558583526004905260409091206001810154600590910154919250610ec3916001600160a01b03909116906116a4565b506000908152600460205260409020600801805460ff1916600117905550565b610eeb6118b0565b6000828152600460209081526040918290208251610140810184528154815260018201546001600160a01b0316928101929092526002810180549293919291840191610f3690611db0565b80601f0160208091040260200160405190810160405280929190818152602001828054610f6290611db0565b8015610faf5780601f10610f8457610100808354040283529160200191610faf565b820191906000526020600020905b815481529060010190602001808311610f9257829003601f168201915b50505050508152602001600382018054610fc890611db0565b80601f0160208091040260200160405190810160405280929190818152602001828054610ff490611db0565b80156110415780601f1061101657610100808354040283529160200191611041565b820191906000526020600020905b81548152906001019060200180831161102457829003601f168201915b5050505050815260200160048201805461105a90611db0565b80601f016020809104026020016040519081016040528092919081815260200182805461108690611db0565b80156110d35780601f106110a8576101008083540402835291602001916110d3565b820191906000526020600020905b8154815290600101906020018083116110b657829003601f168201915b505050918352505060058201546020820152600682015460ff9081161515604083015260078301546060830152600890920154808316151560808301526101009004909116151560a09091015292915050565b60008351116111775760405162461bcd60e51b815260206004820152601a60248201527f506c656173652070726f766964652061206a6f62207469746c650000000000006044820152606401610309565b60008251116111c85760405162461bcd60e51b815260206004820152601c60248201527f506c656173652070726f766964652061206465736372697074696f6e000000006044820152606401610309565b600081511161120f5760405162461bcd60e51b8152602060048201526013602482015272506c656173652070726f76696465207461677360681b6044820152606401610309565b600034116112545760405162461bcd60e51b8152602060048201526012602482015271496e73756666696369656e742066756e647360701b6044820152606401610309565b611262600280546001019055565b600061126d60025490565b90506112776118b0565b8181523360208201526040810185905260608101849052608081018390523460a082015260016101008201526112ab6117b3565b60e082015260008281526004602090815260409182902083518155818401516001820180546001600160a01b0319166001600160a01b0390921691909117905591830151805184939261130592600285019291019061182c565b506060820151805161132191600384019160209091019061182c565b506080820151805161133d91600484019160209091019061182c565b5060a0820151600582015560c082015160068201805491151560ff1992831617905560e0830151600780840191909155610100808501516008909401805461012090960151151590910261ff00199415159490941661ffff19909516949094179290921790925560009384526020526040909220805490921660011790915550505050565b6113ca6117d2565b60008181526004602052604090206001015481906001600160a01b0316331461142b5760405162461bcd60e51b8152602060048201526013602482015272556e617574686f72697a656420656e7469747960681b6044820152606401610309565b60008281526007602052604090205460ff166114595760405162461bcd60e51b815260040161030990611d11565b600082815260046020526040902060080154610100900460ff16156114c05760405162461bcd60e51b815260206004820152601f60248201527f54686973206a6f62206d757374206e6f74206265206f6e2064697370757465006044820152606401610309565b60008281526004602052604090206006015460ff16156114f25760405162461bcd60e51b815260040161030990611d48565b6000828152600460205260408120600501546003549091906064906115179084611e01565b6115219190611e20565b905060015b6000858152600560205260409020548110156115ea57600085815260056020526040902080548290811061155c5761155c611deb565b906000526020600020906003020160020160149054906101000a900460ff1615156001151514156115d857600085815260056020526040902080546115d89190839081106115ac576115ac611deb565b60009182526020909120600260039092020101546001600160a01b03166115d38486611e42565b6116a4565b806115e281611d95565b915050611526565b506116066116006000546001600160a01b031690565b826116a4565b5050506000818152600460205260409020600601805460ff1916600117905561067a60018055565b611636611709565b6001600160a01b03811661169b5760405162461bcd60e51b815260206004820152602660248201527f4f776e61626c653a206e6577206f776e657220697320746865207a65726f206160448201526564647265737360d01b6064820152608401610309565b61067a81611763565b6000826001600160a01b03168260405160006040518083038185875af1925050503d80600081146116f1576040519150601f19603f3d011682016040523d82523d6000602084013e6116f6565b606091505b505090508061170457600080fd5b505050565b6000546001600160a01b03163314610b525760405162461bcd60e51b815260206004820181905260248201527f4f776e61626c653a2063616c6c6572206973206e6f7420746865206f776e65726044820152606401610309565b600080546001600160a01b038381166001600160a01b0319831681178455604051919092169283917f8be0079c531659141344cd1fd0a4f28419497f9722a3daafe3b4186f6b6457e09190a35050565b60006117c1426103e8611e01565b6117cd906103e8611e59565b905090565b600260015414156118255760405162461bcd60e51b815260206004820152601f60248201527f5265656e7472616e637947756172643a207265656e7472616e742063616c6c006044820152606401610309565b6002600155565b82805461183890611db0565b90600052602060002090601f01602090048101928261185a57600085556118a0565b82601f1061187357805160ff19168380011785556118a0565b828001600101855582156118a0579182015b828111156118a0578251825591602001919060010190611885565b506118ac929150611912565b5090565b6040518061014001604052806000815260200160006001600160a01b0316815260200160608152602001606081526020016060815260200160008152602001600015158152602001600081526020016000151581526020016000151581525090565b5b808211156118ac5760008155600101611913565b80356001600160a01b038116811461193e57600080fd5b919050565b6000806040838503121561195657600080fd5b8235915061196660208401611927565b90509250929050565b60006020828403121561198157600080fd5b5035919050565b634e487b7160e01b600052604160045260246000fd5b600082601f8301126119af57600080fd5b813567ffffffffffffffff808211156119ca576119ca611988565b604051601f8301601f19908116603f011681019082821181831017156119f2576119f2611988565b81604052838152866020858801011115611a0b57600080fd5b836020870160208301376000602085830101528094505050505092915050565b60008060008060808587031215611a4157600080fd5b84359350602085013567ffffffffffffffff80821115611a6057600080fd5b611a6c8883890161199e565b94506040870135915080821115611a8257600080fd5b611a8e8883890161199e565b93506060870135915080821115611aa457600080fd5b50611ab18782880161199e565b91505092959194509250565b6000815180845260005b81811015611ae357602081850181015186830182015201611ac7565b81811115611af5576000602083870101525b50601f01601f19169290920160200192915050565b6000610140825184526020830151611b2d60208601826001600160a01b03169052565b506040830151816040860152611b4582860182611abd565b91505060608301518482036060860152611b5f8282611abd565b91505060808301518482036080860152611b798282611abd565b91505060a083015160a085015260c0830151611b9960c086018215159052565b5060e083015160e085015261010080840151611bb88287018215159052565b50506101209283015115159390920192909252919050565b6000602080830181845280855180835260408601915060408160051b870101925083870160005b82811015611c2557603f19888603018452611c13858351611b0a565b94509285019290850190600101611bf7565b5092979650505050505050565b60008060408385031215611c4557600080fd5b50508035926020909101359150565b602081526000611c676020830184611b0a565b9392505050565b600080600060608486031215611c8357600080fd5b833567ffffffffffffffff80821115611c9b57600080fd5b611ca78783880161199e565b94506020860135915080821115611cbd57600080fd5b611cc98783880161199e565b93506040860135915080821115611cdf57600080fd5b50611cec8682870161199e565b9150509250925092565b600060208284031215611d0857600080fd5b611c6782611927565b6020808252601e908201527f54686973206a6f62206c697374696e6720646f65736e27742065786973740000604082015260600190565b6020808252601a908201527f54686973206a6f6220686173206265656e2070616964206f7574000000000000604082015260600190565b634e487b7160e01b600052601160045260246000fd5b6000600019821415611da957611da9611d7f565b5060010190565b600181811c90821680611dc457607f821691505b60208210811415611de557634e487b7160e01b600052602260045260246000fd5b50919050565b634e487b7160e01b600052603260045260246000fd5b6000816000190483118215151615611e1b57611e1b611d7f565b500290565b600082611e3d57634e487b7160e01b600052601260045260246000fd5b500490565b600082821015611e5457611e54611d7f565b500390565b60008219821115611e6c57611e6c611d7f565b50019056fea264697066735822122031b656bc9c61ddd8c899e828fb8599bfdf91c96583771276c1addb72a073c0dc64736f6c634300080b0033",
  "linkReferences": {},
  "deployedLinkReferences": {}
}